:1000000045C0000061C000005FC000005DC000008E
:100010005BC0000059C0000057C0000055C0000080
:1000200053C0000051C000004FC000004DC0000090
:100030004BC0000049C0000047C0000001C50000DF
:1000400043C0000041C0000040C000003DC00000AF
:100050003BC0000039C0000037C0000035C00000C0
:1000600033C0000031C000002FC000002DC00000D0
:100070002BC0000029C0000053C0000025C00000B4
:1000800023C0000021C000001FC0000011241FBEBB
:10009000CFEFD0E1DEBFCDBF14E0A0E0B1E0E0E201
:1000A000F3E200E00BBF02C007900D92A63AB10741
:1000B000D9F726E0A6EAB4E001C01D92A238B20743
:1000C000E1F7F2D70C948E119BCF1F920F920FB6CF
:1000D0000F9211240BB60F922F933F934F935F9380
:1000E0006F937F938F939F93AF93BF93EF93FF9300
:1000F0008CB1809339050E94360DFF91EF91BF912D
:10010000AF919F918F917F916F915F914F913F91AF
:100110002F910F900BBE0F900FBE0F901F90189550
:100120001F920F920FB60F9211240BB60F921F93CE
:100130002F933F934F935F936F937F938F939F93EF
:10014000AF93BF93EF93FF93CF93DF9300D01F92B2
:10015000CDB7DEB710919C001E3321F481E080936F
:10016000B40442C01F3421F481E08093B0043CC049
:100170001B3451F48091B004813009F087C0809322
:10018000B2041092B00430C01092B0041B3221F4BB
:1001900081E08093AF0476C0193441F48091AF04BC
:1001A000813011F582E08093AF046CC0103541F4CA
:1001B0008091AF048230C1F483E08093AF0462C0C9
:1001C000143441F48091AF04833071F484E080935F
:1001D000AF0458C01C3241F48091AF04843021F444
:1001E00085E08093AF044EC08091AF04853091F4D8
:1001F0001093B10486E08093AF048091B1048983A9
:100200001A82CE0101960E94730E90937506809318
:10021000740638C08630C1F41A3371F08091B1048D
:1002200089831A831B82CE0101960E94730E9093DC
:1002300075068093740626C01092AF041092AE0427
:1002400081E08093AD041EC08091AD048823C1F08D
:100250008091AE04E82FF0E0E65CFA4F10838F5FE8
:100260008093AE04209174063091750690E0821759
:10027000930741F481E08093B3041092AD0402C06F
:100280001092AF04812F0E94240D03C01092B0047D
:10029000ABCF0F900F900F90DF91CF91FF91EF9127
:1002A000BF91AF919F918F917F916F915F914F918E
:1002B0003F912F911F910F900BBE0F900FBE0F908B
:1002C0001F90189589EB94E042ED54E025E0E4E6B8
:1002D000F3E0DC0101900D922A95E1F70596841771
:1002E0009507A1F74CE151E060E082E00E947909B6
:1002F0002FEF89E698E1215080409040E1F700C05F
:1003000000000895CF92DF92EF92FF920F931F9318
:10031000CF93C62F8130910569F18230910509F4A0
:1003200055C0892B09F07EC081E391E00E94280D21
:1003300002E516E00F2EF4E6EF2EF6E0FF2EF02D8C
:100340000F2EF6E5CF2EF6E0DF2EF02DC11105C001
:10035000F80180810E94240D04C0F70180810E9471
:10036000240D0F5F1F4FFFEFEF1AFF0A0C151D053D
:1003700069F758C08BE391E00E94280D02E516E072
:100380000F2EF4E6EF2EF6E0FF2EF02D0F2EF6E501
:10039000CF2EF6E0DF2EF02DC11108C0F8018081CC
:1003A00090E00E944C0D0E94280D07C0F70180814B
:1003B00090E00E944C0D0E94280D0F5F1F4FFFEF31
:1003C000EF1AFF0A0C151D0539F72CC083E491E0E4
:1003D0000E94280D02E516E00F2EF4E6EF2EF6E05F
:1003E000FF2EF02D0F2EF6E5CF2EF6E0DF2EF02DAE
:1003F000C11107C0F80180810E947B0D0E94280D69
:1004000006C0F70180810E947B0D0E94280D80E2CA
:100410000E94240D0F5F1F4FFFEFEF1AFF0A0C150C
:100420001D0531F7CF911F910F91FF90EF90DF9055
:10043000CF900895CF938091AB04811109C040E023
:1004400062E576E082E50E941E0C8093AA041DC03E
:100450008091A904882339F040E062E576E082E5E6
:100460000E941E0C0CC040E062E576E082E50E942E
:100470001E0C8093AA04833011F41092AB04909167
:10048000A90481E089278093A904C091AA04C130FE
:1004900029F088E580930501C0E02CC0809105011A
:1004A000883529F58FE48093050181E08093AB04C2
:1004B0008093A90460E082E596E00E94530C80934B
:1004C000AA048130B1F48BE491E00E94280D60E031
:1004D00080E090E017DF60E081E090E013DF60E013
:1004E00082E090E00FDF8AE00E94240D03C0C0E0AC
:1004F00001C0CFEF8C2FCF910895CF938091A804A6
:10050000811109C041E064E676E082E50E941E0C9C
:100510008093A7041DC08091A604882339F041E090
:1005200064E676E082E50E941E0C0CC041E064E6C1
:1005300076E082E50E941E0C8093A704833011F4BC
:100540001092A8049091A60481E089278093A604C4
:10055000C091A704C13029F088E580930401C0E070
:100560002CC080910401883529F58FE48093040123
:1005700081E08093A8048093A60461E084E696E07D
:100580000E94530C8093A7048130B1F48EE591E072
:100590000E94280D61E080E090E0B4DE61E081E03F
:1005A00090E0B0DE61E082E090E0ACDE8AE00E94A4
:1005B000240D03C0C0E001C0CFEF8C2FCF91089570
:1005C000CF93DF93EC01609176067091770680916E
:1005D00078069091790624E630E040E050E00E94F1
:1005E000510E672B682B692B89F4988181E089274C
:1005F0008883811106C01EDF809362061092560622
:1006000005C07BDF8093620610926806DF91CF9170
:10061000089510927A0610927B0610927C06109232
:100620007D06823099F028F4882349F0813051F01A
:100630001CC0843099F070F08530A1F016C0109283
:10064000D20413C081E08093D2040FC082E0809373
:10065000D2040BC083E08093D20407C084E080936F
:10066000D20403C085E08093D20410927A061092DF
:100670007B0610927C0610927D060895EBE8F0E070
:1006800080818F7B80831092D2040895009741F07F
:10069000EBE8F0E02081206420830C94F20C0895B4
:1006A000EBE8F0E080818F7B808308958091D20415
:1006B000823009F476C028F4882361F0813061F03B
:1006C0000895843009F437C108F4D0C0853009F4A6
:1006D00075C10895D3CF089580917A0690917B06D5
:1006E000A0917C06B0917D06883C9105A105B105DD
:1006F00020F48BE996E0CACF089580917A06909114
:100700007B06A0917C06B0917D06883C9105A105F1
:10071000B10521F487EE95E0B9CF089580917A066E
:1007200090917B06A0917C06B0917D068039914026
:10073000A105B10521F485E694E0A8CF0895809144
:100740007A0690917B06A0917C06B0917D06883553
:100750009240A105B10521F48DEF93E097CF089564
:1007600080917A0690917B06A0917C06B0917D06DF
:1007700080329340A105B10521F488EF92E086CF45
:10078000089580917A0690917B06A0917C06B091A5
:100790007D06803B9440A105B10509F050C16ECFA4
:1007A000089580917A0690917B06A0917C06B09185
:1007B0007D06883C9105A105B10520F48BE996E002
:1007C00065CF089580917A0690917B06A0917C0672
:1007D000B0917D06823D9105A105B10521F480E02F
:1007E00090E054CF089580917A0690917B06A09175
:1007F0007C06B0917D068C3D9105A105B10521F4E3
:1008000087EE95E043CF089580917A0690917B061C
:10081000A0917C06B0917D0680399140A105B1057B
:1008200021F480E090E032CF089580917A06909193
:100830007B06A0917C06B0917D068E3A9140A10581
:10084000B10521F485E694E021CF089580917A06E0
:1008500090917B06A0917C06B0917D0688359240F0
:10086000A105B10509F0EBC009CF089580917A0682
:1008700090917B06A0917C06B0917D068B3491050A
:10088000A105B10520F482E194E000CF08958091A4
:100890007A0690917B06A0917C06B0917D06863900
:1008A0009105A105B10520F480E090E0EFCE089518
:1008B00080917A0690917B06A0917C06B0917D068E
:1008C000813E9105A105B10520F482E194E0DECEE0
:1008D000089580917A0690917B06A0917C06B09154
:1008E0007D068C329140A105B10520F480E090E0B6
:1008F000CDCE089580917A0690917B06A0917C06DA
:10090000B0917D0687379140A105B10520F482E1C1
:1009100094E0BCCE089580917A0690917B06A091D8
:100920007C06B0917D06823C9140A105B10509F09D
:1009300086C0A4CE089580917A0690917B06A091FE
:100940007C06B0917D0684369105A105B10520F4A1
:1009500082E194E09BCE089580917A0690917B0687
:10096000A0917C06B0917D06883C9105A105B1055A
:1009700020F480E090E08ACE089580917A069091EC
:100980007B06A0917C06B0917D068C329140A1053A
:10099000B10520F482E194E079CE089580917A0641
:1009A00090917B06A0917C06B0917D06823C91409F
:1009B000A105B10509F043C061CE089580917A0682
:1009C00090917B06A0917C06B0917D0684369105BE
:1009D000A105B10520F487E490E158CE08958091F7
:1009E0007A0690917B06A0917C06B0917D06883CAA
:1009F0009105A105B10520F480E090E047CE08956F
:100A000080917A0690917B06A0917C06B0917D063C
:100A10008C329140A105B10520F484E298E036CEF5
:100A2000089580917A0690917B06A0917C06B09102
:100A30007D06823C9140A105B10509F41FCE0895C1
:100A40001F920F920FB60F9211240BB60F922F9395
:100A50003F934F935F936F937F938F939F93AF9346
:100A6000BF93EF93FF93E6E7F6E084819581A6813B
:100A7000B7810196A11DB11D84839583A683B78399
:100A800080819181A281B3810196A11DB11D8083D6
:100A90009183A283B38380859185A285B3850196D6
:100AA000A11DB11D80879187A287B387FFDDFF91CC
:100AB000EF91BF91AF919F918F917F916F915F91D6
:100AC0004F913F912F910F900BBE0F900FBE0F9043
:100AD0001F9018951092760610927706109278065D
:100AE0001092790681E090E09093030180930201D7
:100AF000089510927E0610927F0610928006109242
:100B0000810610920101109200010895CF93DF93A6
:100B1000CDB7DEB765970FB6F894DEBF0FBECDBF79
:100B2000BC019AE0E7E0F1E0DE01119601900D9240
:100B30009A95E1F7FE013B968BE0DF011D928A95C5
:100B4000E9F7CE0101960E94900EE2D341E751E011
:100B500060E081E0CED34EE751E060E082E0C9D3AF
:100B6000AE014F5F5F4F60E083E0C3D365960FB681
:100B7000F894DEBF0FBECDBFDF91CF9108954091B5
:100B80007E0650917F06609180067091810641310A
:100B900057426105710538F021E030E030930101E2
:100BA00020930001B3DF8091000190910101009733
:100BB000F1F70895CF92DF92EF92FF920F931F9378
:100BC000CF93DF937C016B01EA01890192DF81E918
:100BD00091E054D72FEF81E19AE721508040904077
:100BE000E1F700C000008AE991E0C9DF41EA51E085
:100BF00060E082E07ED37DDF86EB91E03FD780919D
:100C0000B204811107C08FEB91E0B9DF8091B2048B
:100C10008823C9F31092B2046CDF86EC91E02ED7E2
:100C20002FEF87EA91E6215080409040E1F700C025
:100C300000001092B20484ED91E0A1DF4EED51E08E
:100C400060E082E056D355DF83EF91E017D78091C3
:100C5000B204811107C080E092E091DF8091B2047C
:100C60008823C9F31092B20444DF8BE092E006D7E8
:100C70008091B204811107C086E192E080DF80910B
:100C8000B2048823C9F31092B2044FE152E060E04D
:100C900082E02FD32EDFA601B70184E392E05AD77A
:100CA000EDD68091B204811107C08FE392E067DF37
:100CB0008091B2048823C9F31092B20448E452E050
:100CC00060E082E016D315DF8DE592E0D7D6809103
:100CD000B204811107C088E692E051DF8091B2042E
:100CE0008823C9F31092B20441E752E060E082E049
:100CF00000D3FFDEB801CE0183D7C0D68091B20405
:100D0000811107C086E892E03ADF8091B20488231F
:100D1000C9F31092B20442E952E060E082E0E9D205
:100D20002FEF81EE94E0215080409040E1F700C029
:100D3000000047EA52E060E082E0DBD2DF91CF9131
:100D40001F910F91FF90EF90DF90CF900895AC9A94
:100D50000895CF92DF92EF92FF920F931F93CF935C
:100D6000DF939C0190916206913009F01DC1F90159
:100D700080818111D6C08CEB92E080D68091B40442
:100D80008823E1F31092B40482E3EAE3F5E0DF01A3
:100D90001D928A95E9F7C2E5D6E006E516E089914D
:100DA000AAD66CD680E262D6C017D107C1F787EB0E
:100DB00093E064D68091B3048823E1F31092B304E6
:100DC00080913A058F3409F06CC084DEC0DF109248
:100DD000B6041092B504C9EBD4E000E010E0EE24B4
:100DE000E394F12C64E673E0CE01A5D7892B49F496
:100DF0001093B8040093B704F092B604E092B504DF
:100E00000BC062E576E0CE0196D7892B29F41092CB
:100E1000B6041092B50434C00F5F1F4F25960530FD
:100E2000110501F78091B5049091B604892B41F129
:100E30008091B7049091B8049C01220F331F220FB8
:100E4000331F820F931F62E576E087549B4F7CD758
:100E50005FD24CEC52E060E080E04BD24AE355E0D8
:100E600062E081E046D245ED52E060E082E041D2AE
:100E70004AEE52E06DE082E03CD282E0CADB13C071
:100E800047D24CEC52E060E080E033D24AE355E0D8
:100E900062E081E02ED24DEE52E060E082E029D2A5
:100EA00002C084E0B6DBBFEFE9EFF0E0B150E04014
:100EB000F040E1F700C000008AE0C6D580E093E092
:100EC000C7D58AE395E0C4D58AE0BED50F2EF9EBED
:100ED000EF2EF4E0FF2EF02D0F2EF2EDCF2EF4E0EA
:100EE000DF2EF02D8BE5B0D5D7018D918D0103D686
:100EF000AFD5C0E0D0E080E2A7D52196F80181917E
:100F00008F01F9D5A5D5C330D105A9F78DE59CD5BD
:100F10008AE09AD5F5E0EF0EF11CCE14DF0411F74C
:100F200043C0813009F040C00F2EF9EBEF2EF4E002
:100F3000FF2EF02D0F2EF2EDCF2EF4E0DF2EF02D50
:100F4000E70164E676E0CE01F6D6892B59F485E018
:100F5000E4E6F3E0DE0101900D928A95E1F7BADD57
:100F600082E057DB2596CC15DD0559F78BE56CD56E
:100F7000D7018D918D01BFD56BD5C0E0D0E080E267
:100F800063D52196F80181918F01B5D561D5C33024
:100F9000D105A9F78DE558D58AE056D5F5E0EF0ED5
:100FA000F11CEC14FD0411F710926206DF91CF9151
:100FB0001F910F91FF90EF90DF90CF900895AC9824
:100FC000089578948FE08ABBA49AF894F2D4FAD466
:100FD0007894109276061092770610927806109206
:100FE0007906EDDF80E078D381E076D360E875E2C2
:100FF00080E090E0FCD460E875E281E090E0F7D416
:10100000EDD04FE053E060E080E073D144E253E084
:1010100060E081E06ED148E353E060E082E069D1B6
:101020004FE053E060E083E064D181E0F2DA2FEF3B
:1010300081E19AE7215080409040E1F700C0000034
:1010400080E092D380E0E6D381E08ED381E0E2D3EA
:101050002DE433E040E553E06CE573E089E693E08E
:10106000A9DD30D94FE053E060E080E042D140E7B5
:1010700053E060E081E03DD145E853E060E082E08C
:1010800038D14FE053E060E083E033D185E0C1DA4E
:101090002FEF87EA91E6215080409040E1F700C0B1
:1010A000000036D136C008958CDFC6E7D6E08CEA62
:1010B00094E086DA8CEA94E04CDE80910201909113
:1010C00003010197A1F788819981AA81BB818835A5
:1010D0009B41A105B10519F484E09BDAE8CF888132
:1010E0009981AA81BB8180319742A105B10511F494
:1010F00010D0DDCF88819981AA81BB81813E9E423B
:10110000A105B105A0F25BDF10920301109202016C
:10111000CECFCF93DF9300D000D0CDB7DEB784E041
:1011200089831A8284E18B8380E18C8344E050E0E0
:10113000BE016F5F7F4F809106014AD18111F6CFCA
:101140008FE39CE90197F1F700C000000F900F902A
:101150000F900F90DF91CF910895CF93DF9300D040
:10116000CDB7DEB7807F982F9C60998388608A8393
:1011700042E050E0BE016F5F7F4F8091060128D1B1
:101180008111F6CF0F900F90DF91CF910895CF93FB
:10119000DF9300D000D0CDB7DEB7982F907F292FF6
:1011A0002C60298398609A8320E1829FC0011124DA
:1011B000982F9C609B8388608C8344E050E0BE0144
:1011C0006F5F7F4F8091060103D18111F6CF0F90A1
:1011D0000F900F900F90DF91CF910895BED02FEF19
:1011E00089E698E1215080409040E1F700C000007E
:1011F0008AE993E02DD480E3B0DF8FE19EE401978C
:10120000F1F700C0000080E3A8DF8FE891E00197CC
:10121000F1F700C0000080E3A0DF8FE891E00197C4
:10122000F1F700C0000080E298DF8FE891E00197BD
:10123000F1F700C0000088E2AADF87EC90E0019798
:10124000F1F700C0000088E0A2DF87EC90E0019792
:10125000F1F700C0000081E09ADF8FED9EE2019778
:10126000F1F700C0000086E092DF87EC90E0019784
:10127000F1F700C000008CE08ADF87EC90E0019776
:10128000F1F700C000008AEB93E0E2C30895CF932A
:10129000DF9300D000D0CDB7DEB7982F907F292FF5
:1012A0002D60298399609A8320E1829FC0011124D7
:1012B000982F9D609B8389608C8344E050E0BE0141
:1012C0006F5F7F4F8091060183D08111F6CF0F9021
:1012D0000F900F900F90DF91CF910895E82FF0E0DD
:1012E000EE0FFF1FE053FC4F8081860F80684FCFC9
:1012F0000895CF93DF93EA01F1DF8881882329F0F5
:101300002196C5DF89918111FCCFDF91CF9108959E
:10131000CF93DF9300D000D0CDB7DEB78CE08983C8
:1013200088E08A838CE18B8388E18C8344E050E001
:10133000BE016F5F7F4F809106014AD08111F6CFC9
:101340008FE39CE90197F1F700C000000F900F9028
:101350000F900F90DF91CF91089588E480937000F3
:101360000895E4E7F0E0108294EA90839081992355
:10137000ECF790917100987F9830A1F480937300FE
:1013800084E880937400E4E7F0E080818823ECF740
:1013900090917100987F983139F081E0903429F470
:1013A00080E0089581E0089580E0089580937300BF
:1013B00084E880937400E4E7F0E080818823ECF710
:1013C00090917100987F81E0983209F480E008954F
:1013D000CF92DF92FF920F931F93CF93DF936B0116
:1013E0008A01BFDFF82E811117C00115110581F0A8
:1013F000E6010C0D1D1D8991D9DF811110C08FE907
:101400009FE00197F1F700C000000C171D0799F746
:1014100084E98093740005C0FF24F39402C0FF2484
:10142000F3948F2DDF91CF911F910F91FF90DF905B
:10143000CF9008951F93CF93DF93162F95B3C1E0FC
:10144000D0E002C0CC0FDD1F4A95E2F72C2F20958B
:10145000922395BB880F8E77A3D2812FA1D285B31B
:10146000C82BC5BBDF91CF911F910895CF93DF9318
:1014700095B3C1E0D0E002C0CC0FDD1F6A95E2F762
:101480002C2F2095922395BB880F8E77806888D269
:101490008BD295B3C92BC5BBDF91CF9108952F9205
:1014A0003F924F925F926F927F928F929F92AF92F4
:1014B000BF92CF92DF92EF92FF920F931F93CF9341
:1014C000DF93F82EA62EB72E442E222ED32E8CE09C
:1014D000F81659F0EEE0FE1211C06894CC24C4F85E
:1014E0000F2EF2E13F2EF02D0BC00F2EF0E3CF2E8A
:1014F000F02D0F2EF7E73F2EF02D02C0C12C312C1E
:101500004E2D632D606882E095DF6E2D84E0AEDFA6
:10151000682F6F774E2D84E08DDF6E2D8AE0A6DF79
:10152000682F60684E2D8AE085DF4E2D60E081E0F7
:1015300081DF512C612C712C411451046104710420
:1015400099F0CA2DDB2D812C912C540169914E2DDF
:1015500089E070DFFFEF8F1A9F0AAF0ABF0A841479
:101560009504A604B70490F34E2D6F2D81E062DF41
:101570008CE0F81208C06E2D8DE078DF682F60686F
:101580004E2D8DE057DF6E2D84E070DFB82EC0E069
:10159000D0E0EC2DE160CE2E0AC06E2D84E066DF37
:1015A000B82E2196CF3CF7E0DF0709F468C08C2DF8
:1015B0008B2199F36EC0832D8170B82211F0C2E0A7
:1015C00001C0C1E08CE0F81273C06E2D8AE04EDFDE
:1015D000882E6E2D8CE04ADF282F2770A9F0882DE9
:1015E00090E00197880F991F880F991F880F991F06
:1015F000820F911D092E000CAA0BBB0BF8018083F2
:101600009183A283B38311C0882D90E0880F991F26
:10161000880F991F880F991F092E000CAA0BBB0B6E
:10162000F80180839183A283B383882071F0882D91
:10163000813108F080E1882E912CA12CB12C8114ED
:101640009104A104B10429F433C0812C912C5401DC
:101650008394022D1D2D412C512C32016E2D89E0D9
:1016600005DFF80181938F01FFEF4F1A5F0A6F0AC0
:101670007F0A481459046A047B0480F319C06E2D54
:101680008DE0F4DE682F6F774E2D8DE0D3DEC3E062
:101690000FC06E2D8DE0EADE682F6F774E2D8DE046
:1016A000C9DE6E2D86E0E2DE8B7109F484CFC3E0E3
:1016B0008C2FDF91CF911F910F91FF90EF90DF90D2
:1016C000CF90BF90AF909F908F907F906F905F90E2
:1016D0004F903F902F900895CF93C82F1F921F9245
:1016E0001F9281E08F9383E08F9317D184B383603F
:1016F00084BB15BA2FEF89EF90E0215080409040D5
:10170000E1F700C0000085B3836085BB4C2F6FE01C
:1017100081E090DE4C2F6DE88AE28CDE4C2F6EE388
:101720008BE288DE4C2F6EE18CE284DE4C2F60E091
:101730008DE280DE4C2F60E485E17CDE4C2F6DE392
:1017400081E178DE6C2F84E191DE982F93700F9009
:101750000F900F900F900F9029F4682F63604C2F1B
:1017600084E168DECF910895CF93DF93D82F682F5F
:1017700087E37CDEC82F2FEF89EF90E02150804077
:101780009040E1F700C00000D11106C088ED93E061
:101790005FD1C23959F50FC084EE93E059D1C239F7
:1017A00091F512C080EF93E053D143E054E060E044
:1017B00082E09FDDFFCF87E194E04AD14BE354E024
:1017C00060E082E096DD23C087E194E041D140E50E
:1017D00054E060E082E08DDD1AC085E694E038D107
:1017E0004BE354E060E082E084DD11C0C059C230B8
:1017F000C8F6F3CF85E694E02BD140E554E060E0F5
:1018000082E077DD04C0C059C23060F6F3CFDF91CB
:10181000CF910895CF93C82F682F82E027DE682FDD
:1018200060624C2F82E006DE6C2F83E01FDE682FA3
:1018300060684C2F83E0FEDDCF910895CF92DF9258
:10184000EF920F931F93CF93DF9300D000D0CDB7CB
:10185000DEB7182F6B01E42E67E08DE0EBDDF601BB
:1018600010838E010F5F1F4F960141E0B6018CE09F
:1018700016DE813059F449815A816B817C81403177
:1018800051056105710519F083E001C083E00F90F7
:101890000F900F900F90DF91CF911F910F91EF90CC
:1018A000DF90CF900895CF92DF92EF920F931F9326
:1018B000CF93DF9300D000D0CDB7DEB76C01E62E1A
:1018C000462F60E08DE0B6DD83E9F601808380E29B
:1018D00081838E010F5F1F4F960142E0B6018CE0BD
:1018E000DEDD813071F4F601A6014C5F5F4F90E0C0
:1018F000219192274E175F07D9F7F60124819213A1
:1019000083E00F900F900F900F90DF91CF911F9178
:101910000F91EF90DF90CF900895CF93DF9300D099
:101920001F92CDB7DEB78885833021F1811132C097
:1019300029C09C9112969193E217F307D1F79B81EE
:10194000923020F11B821DB8833071F4C09A87B3A6
:10195000876087BB99818A81892B80652EB19B81A5
:10196000922B9EB98DB916C0811114C0BB9A80E428
:101970008DB910C0DE011996FE0131969E012C5FD3
:101980003F4FD7CF9B819230E8F602C01DB8DECF23
:101990001DB8ECCF0F900F900F90DF91CF9108956D
:1019A0008FB9779BFECF08951FB8779BFECF8FB17D
:1019B0000895BC9A8CE083BF8AEF81BF87B78260AD
:1019C00087BF0895139A80E480938B008AE1809307
:1019D0008A00109289001092880010928100109263
:1019E0008000089590938100809380000895CF93A4
:1019F000DF93EC019B0140E050E060E472E48FE093
:101A000090E04FD121503109209759F4109830932C
:101A1000900029B988E18AB9579A86E080939500A9
:101A200010C0219771F43093980020939900EAE94F
:101A3000F0E088E1808380818068808386E0809305
:101A40009D00DF91CF9108955D9BFECF8CB90895E5
:101A5000CF93DF93EC018881882329F02196F4DF6E
:101A600089918111FCCFDF91CF910895EBE9F0E0EE
:101A7000908195FFFDCF80939C000895CF93DF93D5
:101A8000EC018881882329F02196F0DF899181116A
:101A9000FCCFDF91CF9108950F931F93CF93DF93E6
:101AA000CDB7DEB764970FB6F894DEBF0FBECDBFDB
:101AB0009F938F9389E894E09F938F938E010F5F9C
:101AC0001F4F1F930F934FD1B80182ED95E03CD18A
:101AD0000F900F900F900F900F900F9082ED95E068
:101AE00064960FB6F894DEBF0FBECDBFDF91CF91E5
:101AF0001F910F9108950F931F93CF93DF93CDB74D
:101B0000DEB764970FB6F894DEBF0FBECDBF1F924D
:101B10008F938DE894E09F938F938E010F5F1F4FFB
:101B20001F930F9320D1B80182ED95E00DD10F9056
:101B30000F900F900F900F900F9082ED95E06496AC
:101B40000FB6F894DEBF0FBECDBFDF91CF911F91CE
:101B50000F910895CF92DF92EF92FF920F931F9310
:101B6000CF93DF93CDB7DEB7C054D1090FB6F89449
:101B7000DEBF0FBECDBF6B017A0120E4E2E1F6E0EB
:101B8000DF011D922A95E9F7BC018E010F5F1F4FFF
:101B9000C801DAD0B601C801C3D0F8010190002015
:101BA000E9F7319782E29CE29183808382E290E0C0
:101BB00093838283B701C801B3D0F801019000205C
:101BC000E9F7319782E29DE0918380838AE090E09B
:101BD00093838283B80182E196E0B6D082E196E0F9
:101BE000C05CDF4F0FB6F894DEBF0FBECDBFDF91F4
:101BF000CF911F910F91FF90EF90DF90CF900895BC
:101C0000EF92FF920F931F93CF93DF93CDB7DEB781
:101C1000C054D1090FB6F894DEBF0FBECDBF9C01F2
:101C20007B0180E4E2E1F6E0DF011D928A95E9F7AD
:101C300094E1E2E9F4E08E010F5F1F4FD8010190BB
:101C40000D929A95E1F7B901C8016AD0F8010190A7
:101C50000020E9F7319782E29CE29183808312822F
:101C6000B701C8015DD0F80101900020E9F7319774
:101C70008DE09AE0918380831282B80182E196E040
:101C800063D082E196E0C05CDF4F0FB6F894DEBF10
:101C90000FBECDBFDF91CF911F910F91FF90EF90BD
:101CA0000895A1E21A2EAA1BBB1BFD010DC0AA1F9D
:101CB000BB1FEE1FFF1FA217B307E407F50720F0B5
:101CC000A21BB30BE40BF50B661F771F881F991F30
:101CD0001A9469F760957095809590959B01AC0179
:101CE000BD01CF010895FC0188279927E89421912F
:101CF0002032E9F3293010F02E30C8F32B3239F0BE
:101D00002D3231F4689403C026D0820F911D2191A9
:101D100020532A30C8F31EF4909581959F4F089563
:101D2000FB01DC010D900020E9F7119701900D9265
:101D30000020E1F70895FB01DC018D9101908019ED
:101D40000110D9F3990B0895FB01DC0101900D926C
:101D50000020E1F708957AE0979F902D879F802DCE
:101D6000910D112408950F931F93CF93DF93CDB757
:101D7000DEB72E970FB6F894DEBF0FBECDBF0D892C
:101D80001E8986E08C831A8309838FEF9FE79E83E9
:101D90008D83AE01475E5F4F6F89788DCE010196CE
:101DA00010D0EF81F885E00FF11F10822E960FB64C
:101DB000F894DEBF0FBECDBFDF91CF911F910F9181
:101DC00008952F923F924F925F926F927F928F92DF
:101DD0009F92AF92BF92CF92DF92EF92FF920F93BA
:101DE0001F93CF93DF93CDB7DEB72B970FB6F89441
:101DF000DEBF0FBECDBF6C017B018A01FC011782E3
:101E00001682838181FFBFC1CE0101963C01F6019C
:101E10009381F70193FD859193FF81917F01882341
:101E200009F4ADC1853239F493FD859193FF819119
:101E30007F01853221F4B60190E0D6D1E8CF912C14
:101E4000212C312CFFE1F315D8F08B3279F038F4E6
:101E5000803279F08332A1F4232D20611DC08D32B0
:101E600061F0803369F4232D216016C0832D8260D8
:101E7000382EE32DE4603E2E2AC0F32DF8601DC0FD
:101E800037FC2DC020ED280F2A3040F08E32B9F4F7
:101E900036FC75C1232D2064322E19C036FE06C0D3
:101EA0008AE0989E200D1124922E11C0EAE02E9E09
:101EB000200D1124222EF32DF0623F2E08C08C3607
:101EC00021F4832D8068382E02C0883641F4F70152
:101ED00093FD859193FF81917F018111B3CF982F5D
:101EE0009F7D9554933028F40C5F1F4F9FE3998397
:101EF0000DC0833631F0833771F0833509F055C05A
:101F000020C0F801808189830E5F1F4F882483944D
:101F1000912C530112C02801F2E04F0E511CF80120
:101F2000A080B18036FE03C0692D70E002C06FEF63
:101F30007FEFC5014ED14C018201F32DFF773F2E7B
:101F400015C0280122E0420E511CF801A080B1808A
:101F500036FE03C0692D70E002C06FEF7FEFC50150
:101F60002DD14C01F32DF0683F2E820133FC19C0B6
:101F7000822D90E088169906A0F4B60180E290E0E8
:101F800033D12A94F5CFF50137FC859137FE819145
:101F90005F01B60190E028D121102A9421E0821A35
:101FA00091088114910479F7E1C0843611F08936E3
:101FB00039F5F80137FE07C0608171818281938114
:101FC0000C5F1F4F08C060817181072E000C880BC9
:101FD000990B0E5F1F4FF32DFF763F2E97FF09C021
:101FE00090958095709561957F4F8F4F9F4FF068CA
:101FF0003F2E2AE030E0A30133D1882E861844C05A
:10200000853731F4232D2F7EB22E2AE030E025C013
:10201000932D997FB92E8F36C1F018F4883579F059
:10202000AEC0803719F0883721F0A9C0E92FE061F0
:10203000BE2EB4FE0DC0FB2DF460BF2E09C034FED1
:102040000AC0292F2660B22E06C028E030E005C065
:1020500020E130E002C020E132E0F801B7FE07C025
:1020600060817181828193810C5F1F4F06C0608106
:10207000718180E090E00E5F1F4FA301F1D0882EA8
:102080008618FB2DFF773F2E36FE0DC0232D2E7FA9
:10209000A22E891458F434FE0BC032FC09C0832DE3
:1020A0008E7EA82E05C0B82CA32C03C0B82C01C06E
:1020B000B92CA4FE0FC0FE01E80DF11D8081803314
:1020C00021F49A2D997EA92E09C0A2FE06C0B394D0
:1020D000B39404C08A2D867809F0B394A3FC10C091
:1020E000A0FE06C0B21480F4280C922C9B180DC0E0
:1020F000B21458F4B60180E290E076D0B394F8CFF1
:10210000B21418F42B1802C0982C212CA4FE0FC076
:10211000B60180E390E068D0A2FE16C0A1FC03C027
:1021200088E790E002C088E590E0B6010CC08A2DF7
:10213000867851F0A1FE02C08BE201C080E2A7FCCC
:102140008DE2B60190E050D0891430F4B60180E3FE
:1021500090E04AD09A94F8CF8A94F301E80DF11DEB
:102160008081B60190E040D08110F6CF222009F4A2
:102170004ECEB60180E290E037D02A94F7CFF60138
:102180008681978102C08FEF9FEF2B960FB6F89450
:10219000DEBF0FBECDBFDF91CF911F910F91FF909A
:1021A000EF90DF90CF90BF90AF909F908F907F90F7
:1021B0006F905F904F903F902F900895FC01059095
:1021C000615070400110D8F7809590958E0F9F1F39
:1021D0000895FC016150704001900110D8F780957E
:1021E00090958E0F9F1F08950F931F93CF93DF93AA
:1021F000FB01238121FD03C08FEF9FEF2CC022FF45
:1022000016C046815781248135814217530744F413
:10221000A081B1819D012F5F3F4F318320838C933B
:10222000268137812F5F3F4F3783268314C08B0170
:10223000EC01FB010084F185E02D0995892BE1F685
:10224000D80116968D919C911797019617969C939D
:102250008E931697CE01DF91CF911F910F91089524
:10226000FA01AA27283051F1203181F1E8946F93C7
:102270006E7F6E5F7F4F8F4F9F4FAF4FB1E03ED06D
:10228000B4E03CD0670F781F891F9A1FA11D680F0B
:10229000791F8A1F911DA11D6A0F711D811D911D3E
:1022A000A11D20D009F468943F912AE0269F1124B3
:1022B0003019305D3193DEF6CF010895462F477017
:1022C000405D4193B3E00FD0C9F7F6CF462F4F7072
:1022D000405D4A3318F0495D31FD4052419302D0D0
:1022E000A9F7EACFB4E0A695979587957795679576
:1022F000BA95C9F700976105710508959B01AC0176
:102300000A2E06945795479537952795BA95C9F79C
:10231000620F731F841F951FA01D0895F894FFCFAF
:102320000100010058584E45525220436F64653AEF
:10233000000000000000000000000000202020201D
:10234000204F4F4F4F4F4F4F4F4F4F2020202020B7
:10235000000A0961736369693A20000A09646563C8
:102360003A20000A096865783A20005B43484543F3
:102370004B2055494428434830295D3A20005B43AF
:102380004845434B2055494428434831295D3A206C
:1023900000496E697469616C206572722E00506C20
:1023A0007A2C20547279696E672072657365742E79
:1023B0000041542B5253540D0A0041542B52535494
:1023C0000020202020204F4F4F5F5F5F5F5F5F5FE7
:1023D00020202020200041542B474D520D0A00415F
:1023E000542B474D520041542B43574D4F44453DCC
:1023F000310D0A0041542B43574D4F4445002020D6
:102400002020204F4F4F4F5F5F5F5F5F5F20202096
:1024100020200041542B43574D4F44453F0D0A00A7
:1024200041542B43574D4F44453F0041542B435794
:102430004C41500D0A0041542B43574C4150002051
:10244000202020204F4F4F4F4F5F5F5F5F5F202066
:102450002020200041542B43574A41503D22004147
:10246000542B43574A41500020202020204F4F4FEB
:102470004F4F4F5F5F5F5F20202020200041542B93
:1024800043494653520D0A0041542B434946535287
:102490000020202020204F4F4F4F4F4F4F5F5F5F56
:1024A00020202020200041542B43495053544152B6
:1024B000540020202020204F4F4F4F4F4F4F4F5F51
:1024C0005F20202020200020202020204F4F4F4F31
:1024D0004F4F4F4F4F5F20202020200041542B436F
:1024E000495053454E443D31310D0A0057656C63E8
:1024F0006F6D652C00456D70747920537061636554
:102500003D5B3030202F34325D00343000416C723E
:1025100065616479205265636F676E697A656400EE
:1025200046726F6D20736572766572203A20003DA9
:102530003D3D3D3D3D3D3D3D3D3D3D3D3D3D3D3DCB
:102540003D3D3D00202053595354454D20424F4FAF
:1025500054494E472E2E2E0020202020205F5F5F02
:102560005F5F5F5F5F5F5F202020202000323300CD
:102570003137322E32302E31302E33006877687783
:1025800068776877303030300043686F69485700AB
:1025900020205061726B696E672053797374656D8A
:1025A0002020202000204669726D776172652056D8
:1025B000657220312E39302020004265666F7265C9
:1025C00020693263206C636420496E697469616CB0
:1025D000697A652E2E2E200D0A0069326320434C45
:1025E000434420436F6E6E656374204F6B0D0A0089
:1025F00000004000140054000A5B6368616E6E6561
:102600006C2030000A5B6368616E6E656C2031007F
:10261000204E6F2072656164657220666F756E640E
:102620005D0A004572726F722C20506C7A2043480C
:102630004B205246494400204465746563746564C8
:102640002056657273696F6E5D3A204D494641525E
:102650004520524335323276320A00202020202095
:102660004F5F5F5F5F5F5F5F5F5F20202020200024
:1026700020202020204F4F5F5F5F5F5F5F5F5F2004
:102680002020202000204465746563746564205612
:10269000657273696F6E5D3A204D4946415245201F
:1026A000524335323276310A00256420002530321B
:1026B000580041542B43495053544152543D2254E5
:0626C0004350222C220011
:00000001FF
