:1000000045C0000061C000005FC000005DC000008E
:100010005BC0000059C0000057C0000055C0000080
:1000200053C0000051C000004FC000004DC0000090
:100030004BC0000049C0000047C000009FC5000041
:1000400043C0000041C0000040C000003DC00000AF
:100050003BC0000039C0000037C0000035C00000C0
:1000600033C0000031C000002FC000002DC00000D0
:100070002BC0000029C0000053C0000025C00000B4
:1000800023C0000021C000001FC0000011241FBEBB
:10009000CFEFD0E1DEBFCDBF14E0A0E0B1E0EAEEEB
:1000A000F1E200E00BBF02C007900D92A632B1074B
:1000B000D9F725E0A6E2B4E001C01D92AE3FB20739
:1000C000E1F7DDD60C94F3109BCF1F920F920FB681
:1000D0000F9211240BB60F922F933F934F935F9380
:1000E0006F937F938F939F93AF93BF93EF93FF9300
:1000F0008CB18093B9040E949B0CFF91EF91BF914A
:10010000AF919F918F917F916F915F914F913F91AF
:100110002F910F900BBE0F900FBE0F901F90189550
:100120001F920F920FB60F9211240BB60F921F93CE
:100130002F933F934F935F936F937F938F939F93EF
:10014000AF93BF93EF93FF93CF93DF9300D01F92B2
:10015000CDB7DEB710919C001E3321F481E080936F
:10016000340442C01F3421F481E0809330043CC049
:100170001B3451F480913004813009F087C08093A2
:1001800032041092300430C0109230041B3221F43B
:1001900081E080932F0476C0193441F480912F04BC
:1001A000813011F582E080932F046CC0103541F44A
:1001B00080912F048230C1F483E080932F0462C0C9
:1001C000143441F480912F04833071F484E08093DF
:1001D0002F0458C01C3241F480912F04843021F444
:1001E00085E080932F044EC080912F04853091F4D8
:1001F0001093310486E080932F0480913104898329
:100200001A82CE0101960E94D80D9093F505809335
:10021000F40538C08630C1F41A3371F0809131048E
:1002200089831A831B82CE0101960E94D80D909378
:10023000F5058093F40526C010922F0410922E0429
:1002400081E080932D041EC080912D048823C1F08D
:1002500080912E04E82FF0E0E654FB4F10838F5F6F
:1002600080932E042091F4053091F50590E08217DB
:10027000930741F481E08093330410922D0402C06F
:1002800010922F04812F0E94890C03C01092300419
:10029000ABCF0F900F900F90DF91CF91FF91EF9127
:1002A000BF91AF919F918F917F916F915F914F918E
:1002B0003F912F911F910F900BBE0F900FBE0F908B
:1002C0001F90189589E394E042E554E025E0E3EEC1
:1002D000F2E0DC0101900D922A95E1F70596841772
:1002E0009507A1F745E051E060E082E067D72FEF86
:1002F00089E698E1215080409040E1F700C000007D
:100300000895CF92DF92EF92FF920F931F93CF93B6
:10031000C62F8130910569F18230910509F455C0ED
:10032000892B09F07EC08AE191E00E948D0C02EDDC
:1003300015E00F2EF4EEEF2EF5E0FF2EF02D0F2E30
:10034000F6EDCF2EF5E0DF2EF02DC11105C0F8013E
:1003500080810E94890C04C0F70180810E94890C71
:100360000F5F1F4FFFEFEF1AFF0A0C151D0569F70E
:1003700058C084E291E00E948D0C02ED15E00F2E32
:10038000F4EEEF2EF5E0FF2EF02D0F2EF6EDCF2E32
:10039000F5E0DF2EF02DC11108C0F801808190E05A
:1003A0000E94B10C0E948D0C07C0F701808190E083
:1003B0000E94B10C0E948D0C0F5F1F4FFFEFEF1AD0
:1003C000FF0A0C151D0539F72CC08CE291E00E9444
:1003D0008D0C02ED15E00F2EF4EEEF2EF5E0FF2E62
:1003E000F02D0F2EF6EDCF2EF5E0DF2EF02DC11102
:1003F00007C0F80180810E94E00C0E948D0C06C0AD
:10040000F70180810E94E00C0E948D0C80E20E9426
:10041000890C0F5F1F4FFFEFEF1AFF0A0C151D0528
:1004200031F7CF911F910F91FF90EF90DF90CF9018
:100430000895CF9380912B04811109C040E062EDB3
:1004400075E082E50E94830B80932A041DC0809191
:100450002904882339F040E062ED75E082E50E94CE
:10046000830B0CC040E062ED75E082E50E94830BD7
:1004700080932A04833011F410922B049091290464
:1004800081E0892780932904C0912A04C13029F092
:1004900088E580930301C0E02CC08091030188357A
:1004A00029F58FE48093030181E080932B048093EE
:1004B000290460E082ED95E00E94B80B80932A0445
:1004C0008130B1F484E391E00E948D0C60E080E023
:1004D00090E017DF60E081E090E013DF60E082E011
:1004E00090E00FDF8AE00E94890C03C0C0E001C0E9
:1004F000CFEF8C2FCF910895CF9380912804811155
:1005000009C041E064EE75E082E50E94830B8093B0
:1005100027041DC080912604882339F041E064EE51
:1005200075E082E50E94830B0CC041E064EE75E04B
:1005300082E50E94830B80932704833011F410928C
:1005400028049091260481E0892780932604C09195
:100550002704C13029F088E580930201C0E02CC057
:1005600080910201883529F58FE48093020181E0B2
:10057000809328048093260461E084EE95E00E9435
:10058000B80B809327048130B1F487E491E00E9496
:100590008D0C61E080E090E0B4DE61E081E090E00D
:1005A000B0DE61E082E090E0ACDE8AE00E94890C7F
:1005B00003C0C0E001C0CFEF8C2FCF910895CF933F
:1005C000DF93EC016091F6057091F7058091F805D5
:1005D0009091F90524E630E040E050E00E94B60D2D
:1005E000672B682B692B89F4988181E089278883A0
:1005F000811106C01EDF8093E2051092D60505C06A
:100600007BDF8093E2051092E805DF91CF9108959A
:10061000CF92DF92EF92FF920F931F93CF93DF93CE
:100620007C016B01EA0189018AE591E00E94A30C3B
:100630002FEF81E19AE7215080409040E1F700C020
:10064000000043E651E060E082E0B8D588E791E041
:100650000E94A30C809132048823E1F310923204AB
:1006600081E891E00E94A30C2FEF87EA91E62150E8
:1006700080409040E1F700C00000109232044FE843
:1006800051E060E082E09AD584EA91E00E94A30CF8
:10069000809132048823E1F31092320481EB91E0DF
:1006A0000E94A30C809132048823E1F3109232045B
:1006B0004CEB51E060E082E081D5A601B70181ED0D
:1006C00091E00E940F0D0E94A30C809132048823B8
:1006D000E1F3109232044CED51E060E082E06ED51F
:1006E00081EF91E00E94A30C809132048823E1F312
:1006F000109232044CEF51E060E082E05FD5B80127
:10070000CE010E94650D0E94A30C809132048823C3
:10071000E1F31092320441E152E060E082E04ED514
:100720002FEF81EE94E0215080409040E1F700C02F
:10073000000046E252E060E082E040D5DF91CF91D8
:100740001F910F91FF90EF90DF90CF90089510923E
:10075000FA051092FB051092FC051092FD058230FF
:1007600099F028F4882349F0813051F01CC084307E
:1007700099F070F08530A1F016C01092520413C0A9
:1007800081E0809352040FC082E0809352040BC03A
:1007900083E08093520407C084E08093520403C036
:1007A00085E0809352041092FA051092FB05109296
:1007B000FC051092FD050895EBE8F0E080818F7B49
:1007C0008083109252040895009741F0EBE8F0E026
:1007D0002081206420830C94570C0895EBE8F0E00E
:1007E00080818F7B8083089580915204823009F448
:1007F00076C028F4882361F0813061F00895843058
:1008000009F437C108F4D0C0853009F475C10895E2
:10081000D3CF08958091FA059091FB05A091FC0536
:10082000B091FD05883C9105A105B10520F48BE947
:1008300096E0CACF08958091FA059091FB05A091AA
:10084000FC05B091FD05883C9105A105B10521F499
:1008500087EE95E0B9CF08958091FA059091FB0558
:10086000A091FC05B091FD0580399140A105B1052D
:1008700021F485E694E0A8CF08958091FA0590913F
:10088000FB05A091FC05B091FD0588359240A105BE
:10089000B10521F48DEF93E097CF08958091FA058B
:1008A0009091FB05A091FC05B091FD05803293402D
:1008B000A105B10521F488EF92E086CF08958091DB
:1008C000FA059091FB05A091FC05B091FD05803BD8
:1008D0009440A105B10509F050C16ECF08958091F3
:1008E000FA059091FB05A091FC05B091FD05883CAF
:1008F0009105A105B10520F48BE996E065CF089537
:100900008091FA059091FB05A091FC05B091FD0541
:10091000823D9105A105B10521F480E090E054CF1E
:1009200008958091FA059091FB05A091FC05B09186
:10093000FD058C3D9105A105B10521F487EE95E0FB
:1009400043CF08958091FA059091FB05A091FC0595
:10095000B091FD0580399140A105B10521F480E0F9
:1009600090E032CF08958091FA059091FB05A09117
:10097000FC05B091FD058E3A9140A105B10521F429
:1009800085E694E021CF08958091FA059091FB05CA
:10099000A091FC05B091FD0588359240A105B105F7
:1009A00009F0EBC009CF08958091FA059091FB05FD
:1009B000A091FC05B091FD058B349105A105B10511
:1009C00020F482E194E000CF08958091FA0590919F
:1009D000FB05A091FC05B091FD0586399105A105A7
:1009E000B10520F480E090E0EFCE08958091FA0503
:1009F0009091FB05A091FC05B091FD05813E91050C
:100A0000A105B10520F482E194E0DECE0895809145
:100A1000FA059091FB05A091FC05B091FD058C3283
:100A20009140A105B10520F480E090E0CDCE08957D
:100A30008091FA059091FB05A091FC05B091FD0510
:100A400087379140A105B10520F482E194E0BCCE46
:100A500008958091FA059091FB05A091FC05B09155
:100A6000FD05823C9140A105B10509F086C0A4CEE8
:100A700008958091FA059091FB05A091FC05B09135
:100A8000FD0584369105A105B10520F482E194E0CD
:100A90009BCE08958091FA059091FB05A091FC05ED
:100AA000B091FD05883C9105A105B10520F480E0D9
:100AB00090E08ACE08958091FA059091FB05A0916F
:100AC000FC05B091FD058C329140A105B10520F4E3
:100AD00082E194E079CE08958091FA059091FB052A
:100AE000A091FC05B091FD05823C9140A105B105A6
:100AF00009F043C061CE08958091FA059091FB05FD
:100B0000A091FC05B091FD0584369105A105B105C4
:100B100020F487E490E158CE08958091FA059091F1
:100B2000FB05A091FC05B091FD05883C9105A10550
:100B3000B10520F480E090E047CE08958091FA0559
:100B40009091FB05A091FC05B091FD058C32914080
:100B5000A105B10520F484E298E036CE0895809195
:100B6000FA059091FB05A091FC05B091FD05823C32
:100B70009140A105B10509F41FCE08951F920F926F
:100B80000FB60F9211240BB60F922F933F934F93F2
:100B90005F936F937F938F939F93AF93BF93EF93E5
:100BA000FF93E6EFF5E084819581A681B7810196F8
:100BB000A11DB11D84839583A683B7838081918114
:100BC000A281B3810196A11DB11D80839183A2836F
:100BD000B3830ADEFF91EF91BF91AF919F918F9107
:100BE0007F916F915F914F913F912F910F900BBE2D
:100BF0000F900FBE0F901F9018951092F60510924F
:100C0000F7051092F8051092F90581E090E09093B5
:100C10000101809300010895DF9A0895CF92DF9239
:100C2000EF92FF920F931F93CF93DF939C019091CC
:100C3000E205913009F016C1F90180818111CFC020
:100C40008BE392E080D6809134048823E1F3109204
:100C50003404C2EDD5E006ED15E08991B1D673D626
:100C600080E269D6C017D107C1F786E393E06BD65F
:100C7000809133048823E1F3109233048091BA0405
:100C80008F3409F06CC0C8DFB8DF109236041092C0
:100C90003504C9E3D4E000E010E0EE24E394F12C45
:100CA00063EE72E0CE01ACD7892B49F4109338047F
:100CB00000933704F0923604E09235040BC062EDE5
:100CC00075E0CE019DD7892B29F41092360410923D
:100CD000350434C00F5F1F4F25960530110501F70D
:100CE0008091350490913604892B41F1809137042D
:100CF000909138049C01220F331F220F331F820F63
:100D0000931F62ED75E0875C9B4F83D766D24BE4FF
:100D100052E060E080E052D24AEB54E062E081E0D1
:100D20004DD244E552E060E082E048D249E652E02C
:100D30006DE082E043D282E00ADD13C04ED24BE484
:100D400052E060E080E03AD24AEB54E062E081E0B9
:100D500035D24CE652E060E082E030D202C084E05E
:100D6000F6DC2FEF89EF90E0215080409040E1F7D2
:100D700000C000008AE0CDD58FE792E0CED58AEBA7
:100D800094E0CBD58AE0C5D50F2EF9E3EF2EF4E041
:100D9000FF2EF02D0F2EF2E5CF2EF4E0DF2EF02DFA
:100DA0008BE5B7D5F70181918F010AD6B6D5C0E0A2
:100DB000D0E080E2AED52196F80181918F0100D676
:100DC000ACD5C330D105A9F78DE5A3D58AE0A1D56F
:100DD000F5E0EF0EF11CCE14DF0411F743C08130B3
:100DE00009F040C00F2EF9E3EF2EF4E0FF2EF02DB6
:100DF0000F2EF2E5CF2EF4E0DF2EF02DE70164EEAA
:100E000075E0CE01FDD6892B59F485E0E3EEF2E0E2
:100E1000DE0101900D928A95E1F7EFDE82E097DC2A
:100E20002596CC15DD0559F78BE573D5F701819132
:100E30008F01C6D572D5C0E0D0E080E26AD5219698
:100E4000F80181918F01BCD568D5C330D105A9F7D0
:100E50008DE55FD58AE05DD5F5E0EF0EF11CEC1471
:100E6000FD0411F71092E205DF91CF911F910F91D0
:100E7000FF90EF90DF90CF900895DF9808957894D9
:100E80008AB38F688ABBF9DF80E08BD381E089D396
:100E900060E875E280E090E00FD560E875E281E0FF
:100EA00090E00AD500D1F894E9D4F1D47894109266
:100EB000F6051092F7051092F8051092F9054EE824
:100EC00052E060E080E07AD143EA52E060E081E005
:100ED00075D147EB52E060E082E070D14EE852E01D
:100EE00060E083E06BD181E032DC2FEF81E19AE7B3
:100EF000215080409040E1F700C0000080E099D38D
:100F000080E0EDD381E095D381E0E9D32CEC32E0B1
:100F10004FEC52E06BED72E088EE92E079DBD2D9D3
:100F20002FEF89EF90E0215080409040E1F700C022
:100F300000004EE852E060E080E040D14FEE52E029
:100F400060E081E03BD144E053E060E082E036D1F4
:100F50004EE852E060E083E031D185E0F8DB2FEF2E
:100F600087EA91E6215080409040E1F700C0000000
:100F700034D134D0C6EFD5E08CE294E020DB8CE2B3
:100F800094E04CDE80910001909101010197A1F75E
:100F900088819981AA81BB8188389341A105B105D7
:100FA00019F484E0D4DBE8CF88819981AA81BB81E0
:100FB00080319742A105B10511F410D0DDCF8881B1
:100FC0009981AA81BB81803E9E42A105B105A1F60F
:100FD00054DF1092010110920001CECFCF93DF9326
:100FE00000D000D0CDB7DEB784E089831A8284E1D7
:100FF0008B8380E18C8344E050E0BE016F5F7F4FC4
:10100000809104014AD18111F6CF8FE39CE90197C9
:10101000F1F700C000000F900F900F900F90DF913C
:10102000CF910895CF93DF9300D0CDB7DEB7807F07
:10103000982F9C60998388608A8342E050E0BE01CB
:101040006F5F7F4F8091040128D18111F6CF0F90FF
:101050000F90DF91CF910895CF93DF9300D000D010
:10106000CDB7DEB7982F907F292F2C602983986009
:101070009A8320E1829FC0011124982F9C609B835A
:1010800088608C8344E050E0BE016F5F7F4F8091A9
:10109000040103D18111F6CF0F900F900F900F90A4
:1010A000DF91CF910895BED02FEF89E698E12150CE
:1010B00080409040E1F700C0000089E193E02DD42A
:1010C00080E3B0DF8FE19EE40197F1F700C00000FC
:1010D00080E3A8DF8FE891E00197F1F700C00000FE
:1010E00080E3A0DF8FE891E00197F1F700C00000F6
:1010F00080E298DF8FE891E00197F1F700C00000EF
:1011000088E2AADF87EC90E00197F1F700C00000C9
:1011100088E0A2DF87EC90E00197F1F700C00000C3
:1011200081E09ADF8FED9EE20197F1F700C00000A9
:1011300086E092DF87EC90E00197F1F700C00000B5
:101140008CE08ADF87EC90E00197F1F700C00000A7
:1011500089E393E0E2C30895CF93DF9300D000D0FA
:10116000CDB7DEB7982F907F292F2D602983996006
:101170009A8320E1829FC0011124982F9D609B8358
:1011800089608C8344E050E0BE016F5F7F4F8091A7
:10119000040183D08111F6CF0F900F900F900F9024
:1011A000DF91CF910895E82FF0E0EE0FFF1FE15B94
:1011B000FC4F8081860F80684FCF0895CF93DF93D7
:1011C000EA01F1DF8881882329F02196C5DF899122
:1011D0008111FCCFDF91CF910895CF93DF9300D0A1
:1011E00000D0CDB7DEB78CE0898388E08A838CE1BC
:1011F0008B8388E18C8344E050E0BE016F5F7F4FBA
:10120000809104014AD08111F6CF8FE39CE90197C8
:10121000F1F700C000000F900F900F900F90DF913A
:10122000CF91089588E4809370000895E4E7F0E09A
:10123000108294EA908390819923ECF79091710049
:10124000987F9830A1F48093730084E880937400B1
:10125000E4E7F0E080818823ECF790917100987FBB
:10126000983139F081E0903429F480E0089581E0EC
:10127000089580E008958093730084E8809374005B
:10128000E4E7F0E080818823ECF790917100987F8B
:1012900081E0983209F480E00895CF92DF92FF92C6
:1012A0000F931F93CF93DF936B018A01BFDFF82E5B
:1012B000811117C00115110581F0E6010C0D1D1DEE
:1012C0008991D9DF811110C08FE99FE00197F1F773
:1012D00000C000000C171D0799F784E98093740083
:1012E00005C0FF24F39402C0FF24F3948F2DDF91F7
:1012F000CF911F910F91FF90DF90CF9008951F9392
:10130000CF93DF93162F95B3C1E0D0E002C0CC0F8E
:10131000DD1F4A95E2F72C2F2095922395BB880F6D
:101320008E77A3D2812FA1D285B3C82BC5BBDF9105
:10133000CF911F910895CF93DF9395B3C1E0D0E093
:1013400002C0CC0FDD1F6A95E2F72C2F2095922367
:1013500095BB880F8E77806888D28BD295B3C92BC6
:10136000C5BBDF91CF9108952F923F924F925F922C
:101370006F927F928F929F92AF92BF92CF92DF92A5
:10138000EF92FF920F931F93CF93DF93F82EA62E29
:10139000B72E442E222ED32E8CE0F81659F0EEE014
:1013A000FE1211C06894CC24C4F80F2EF2E13F2E37
:1013B000F02D0BC00F2EF0E3CF2EF02D0F2EF7E700
:1013C0003F2EF02D02C0C12C312C4E2D632D6068B4
:1013D00082E095DF6E2D84E0AEDF682F6F774E2DB3
:1013E00084E08DDF6E2D8AE0A6DF682F60684E2DC9
:1013F0008AE085DF4E2D60E081E081DF512C612C99
:10140000712C411451046104710499F0CA2DDB2D33
:10141000812C912C540169914E2D89E070DFFFEFF2
:101420008F1A9F0AAF0ABF0A84149504A604B70452
:1014300090F34E2D6F2D81E062DF8CE0F81208C032
:101440006E2D8DE078DF682F60684E2D8DE057DFC0
:101450006E2D84E070DFB82EC0E0D0E0EC2DE160AE
:10146000CE2E0AC06E2D84E066DFB82E2196CF3CCA
:10147000F7E0DF0709F468C08C2D8B2199F36EC06B
:10148000832D8170B82211F0C2E001C0C1E08CE070
:10149000F81273C06E2D8AE04EDF882E6E2D8CE020
:1014A0004ADF282F2770A9F0882D90E00197880F38
:1014B000991F880F991F880F991F820F911D092E60
:1014C000000CAA0BBB0BF80180839183A283B3832A
:1014D00011C0882D90E0880F991F880F991F880FE1
:1014E000991F092E000CAA0BBB0BF8018083918376
:1014F000A283B383882071F0882D813108F080E1C8
:10150000882E912CA12CB12C81149104A104B1043A
:1015100029F433C0812C912C54018394022D1D2D6C
:10152000412C512C32016E2D89E005DFF8018193A9
:101530008F01FFEF4F1A5F0A6F0A7F0A48145904A0
:101540006A047B0480F319C06E2D8DE0F4DE682FF1
:101550006F774E2D8DE0D3DEC3E00FC06E2D8DE092
:10156000EADE682F6F774E2D8DE0C9DE6E2D86E0A6
:10157000E2DE8B7109F484CFC3E08C2FDF91CF9131
:101580001F910F91FF90EF90DF90CF90BF90AF90A1
:101590009F908F907F906F905F904F903F902F9093
:1015A0000895CF93C82F1F921F921F9281E08F93AF
:1015B00083E08F9317D184B3836084BB15BA2FEF78
:1015C00089EF90E0215080409040E1F700C000009A
:1015D00085B3836085BB4C2F6FE081E090DE4C2F9C
:1015E0006DE88AE28CDE4C2F6EE38BE288DE4C2FB6
:1015F0006EE18CE284DE4C2F60E08DE280DE4C2FC9
:1016000060E485E17CDE4C2F6DE381E178DE6C2FB8
:1016100084E191DE982F93700F900F900F900F90B0
:101620000F9029F4682F63604C2F84E168DECF911E
:101630000895CF93DF93D82F682F87E37CDEC82FE0
:101640002FEF89EF90E0215080409040E1F700C0FB
:101650000000D11106C087E593E05FD1C23959F58A
:101660000FC083E693E059D1C23991F512C08FE6DD
:1016700093E053D142E853E060E082E09FDDFFCF8A
:1016800086E993E04AD14AEB53E060E082E096DDE0
:1016900023C086E993E041D14FEC53E060E082E063
:1016A0008DDD1AC084EE93E038D14AEB53E060E060
:1016B00082E084DD11C0C059C230C8F6F3CF84EE99
:1016C00093E02BD14FEC53E060E082E077DD04C083
:1016D000C059C23060F6F3CFDF91CF910895CF9318
:1016E000C82F682F82E027DE682F60624C2F82E0CF
:1016F00006DE6C2F83E01FDE682F60684C2F83E0CE
:10170000FEDDCF910895CF92DF92EF920F931F935A
:10171000CF93DF9300D000D0CDB7DEB7182F6B0189
:10172000E42E67E08DE0EBDDF60110838E010F5FA4
:101730001F4F960141E0B6018CE016DE813059F46E
:1017400049815A816B817C81403151056105710568
:1017500019F083E001C083E00F900F900F900F907D
:10176000DF91CF911F910F91EF90DF90CF9008956F
:10177000CF92DF92EF920F931F93CF93DF9300D01E
:1017800000D0CDB7DEB76C01E62E462F60E08DE0CD
:10179000B6DD83E9F601808380E281838E010F5FED
:1017A0001F4F960142E0B6018CE0DEDD813071F41E
:1017B000F601A6014C5F5F4F90E0219192274E17F2
:1017C0005F07D9F7F6012481921383E00F900F9001
:1017D0000F900F90DF91CF911F910F91EF90DF90BD
:1017E000CF900895CF93DF9300D01F92CDB7DEB78F
:1017F0008885833021F1811132C029C09C911296D5
:101800009193E217F307D1F79B81923020F11B826D
:101810001DB8833071F4C09A87B3876087BB998104
:101820008A81892B80652EB19B81922B9EB98DB9BF
:1018300016C0811114C0BB9A80E48DB910C0DE01BE
:101840001996FE0131969E012C5F3F4FD7CF9B81A9
:101850009230E8F602C01DB8DECF1DB8ECCF0F9075
:101860000F900F90DF91CF9108958FB9779BFECFA6
:1018700008951FB8779BFECF8FB10895BC9A8CE076
:1018800083BF8AEF81BF87B7826087BF0895139AAD
:1018900080E480938B008AE180938A001092890013
:1018A0001092880010928100109280000895909309
:1018B0008100809380000895CF93DF93EC019B011A
:1018C00040E050E060E472E48FE090E04FD12150BE
:1018D0003109209759F410983093900029B988E184
:1018E0008AB9579A86E08093950010C0219771F4C9
:1018F0003093980020939900EAE9F0E088E1808332
:1019000080818068808386E080939D00DF91CF9105
:1019100008955D9BFECF8CB90895CF93DF93EC01C2
:101920008881882329F02196F4DF89918111FCCFE9
:10193000DF91CF910895EBE9F0E0908195FFFDCF25
:1019400080939C000895CF93DF93EC0188818823D6
:1019500029F02196F0DF89918111FCCFDF91CF91A1
:1019600008950F931F93CF93DF93CDB7DEB764979E
:101970000FB6F894DEBF0FBECDBF9F938F9388E064
:1019800094E09F938F938E010F5F1F4F1F930F93D0
:101990004FD1B80182E595E03CD10F900F900F90A8
:1019A0000F900F900F9082E595E064960FB6F89433
:1019B000DEBF0FBECDBFDF91CF911F910F91089574
:1019C0000F931F93CF93DF93CDB7DEB764970FB616
:1019D000F894DEBF0FBECDBF1F928F938CE094E0D2
:1019E0009F938F938E010F5F1F4F1F930F9320D1F3
:1019F000B80182E595E00DD10F900F900F900F90F8
:101A00000F900F9082E595E064960FB6F894DEBFD4
:101A10000FBECDBFDF91CF911F910F910895CF924F
:101A2000DF92EF92FF920F931F93CF93DF93CDB787
:101A3000DEB7C054D1090FB6F894DEBF0FBECDBFDC
:101A40006B017A0120E4E2E9F5E0DF011D922A95BD
:101A5000E9F7BC018E010F5F1F4FC801DAD0B60154
:101A6000C801C3D0F80101900020E9F7319782E264
:101A70009CE29183808382E290E093838283B7012A
:101A8000C801B3D0F80101900020E9F7319782E254
:101A90009DE0918380838AE090E093838283B80104
:101AA00082E995E0B6D082E995E0C05CDF4F0FB6E1
:101AB000F894DEBF0FBECDBFDF91CF911F910F9184
:101AC000FF90EF90DF90CF900895EF92FF920F93E9
:101AD0001F93CF93DF93CDB7DEB7C054D1090FB6B4
:101AE000F894DEBF0FBECDBF9C017B0180E4E2E92C
:101AF000F5E0DF011D928A95E9F794E1E1E1F4E078
:101B00008E010F5F1F4FD80101900D929A95E1F75A
:101B1000B901C8016AD0F80101900020E9F73197B6
:101B200082E29CE2918380831282B701C8015DD07A
:101B3000F80101900020E9F731978DE09AE0918358
:101B400080831282B80182E995E063D082E995E052
:101B5000C05CDF4F0FB6F894DEBF0FBECDBFDF9184
:101B6000CF911F910F91FF90EF900895A1E21A2E4F
:101B7000AA1BBB1BFD010DC0AA1FBB1FEE1FFF1F31
:101B8000A217B307E407F50720F0A21BB30BE40B81
:101B9000F50B661F771F881F991F1A9469F76095C8
:101BA0007095809590959B01AC01BD01CF01089582
:101BB000FC0188279927E89421912032E9F3293004
:101BC00010F02E30C8F32B3239F02D3231F46894F6
:101BD00003C026D0820F911D219120532A30C8F3D3
:101BE0001EF4909581959F4F0895FB01DC010D90A7
:101BF0000020E9F7119701900D920020E1F7089578
:101C0000FB01DC018D91019080190110D9F3990B32
:101C10000895FB01DC0101900D920020E1F7089589
:101C20007AE0979F902D879F802D910D1124089524
:101C30000F931F93CF93DF93CDB7DEB72E970FB6D9
:101C4000F894DEBF0FBECDBF0D891E8986E08C8360
:101C50001A8309838FEF9FE79E838D83AE01475ED2
:101C60005F4F6F89788DCE01019610D0EF81F88596
:101C7000E00FF11F10822E960FB6F894DEBF0FBE54
:101C8000CDBFDF91CF911F910F9108952F923F9279
:101C90004F925F926F927F928F929F92AF92BF927C
:101CA000CF92DF92EF92FF920F931F93CF93DF9328
:101CB000CDB7DEB72B970FB6F894DEBF0FBECDBF02
:101CC0006C017B018A01FC0117821682838181FFEE
:101CD000BFC1CE0101963C01F6019381F70193FD4E
:101CE000859193FF81917F01882309F4ADC18532ED
:101CF00039F493FD859193FF81917F01853221F421
:101D0000B60190E0D6D1E8CF912C212C312CFFE107
:101D1000F315D8F08B3279F038F4803279F08332D1
:101D2000A1F4232D20611DC08D3261F0803369F450
:101D3000232D216016C0832D8260382EE32DE460B0
:101D40003E2E2AC0F32DF8601DC037FC2DC020EDBB
:101D5000280F2A3040F08E32B9F436FC75C1232D9D
:101D60002064322E19C036FE06C08AE0989E200DEF
:101D70001124922E11C0EAE02E9E200D1124222E55
:101D8000F32DF0623F2E08C08C3621F4832D80683D
:101D9000382E02C0883641F4F70193FD859193FFF8
:101DA00081917F018111B3CF982F9F7D95549330FE
:101DB00028F40C5F1F4F9FE399830DC0833631F0E9
:101DC000833771F0833509F055C020C0F801808158
:101DD00089830E5F1F4F88248394912C530112C076
:101DE0002801F2E04F0E511CF801A080B18036FEB0
:101DF00003C0692D70E002C06FEF7FEFC5014ED1C7
:101E00004C018201F32DFF773F2E15C0280122E0FF
:101E1000420E511CF801A080B18036FE03C0692D2E
:101E200070E002C06FEF7FEFC5012DD14C01F32DA3
:101E3000F0683F2E820133FC19C0822D90E0881695
:101E40009906A0F4B60180E290E033D12A94F5CF50
:101E5000F50137FC859137FE81915F01B60190E075
:101E600028D121102A9421E0821A9108811491042A
:101E700079F7E1C0843611F0893639F5F80137FE7B
:101E800007C060817181828193810C5F1F4F08C000
:101E900060817181072E000C880B990B0E5F1F4F1C
:101EA000F32DFF763F2E97FF09C090958095709592
:101EB00061957F4F8F4F9F4FF0683F2E2AE030E0B3
:101EC000A30133D1882E861844C0853731F4232DE1
:101ED0002F7EB22E2AE030E025C0932D997FB92EB7
:101EE0008F36C1F018F4883579F0AEC0803719F01C
:101EF000883721F0A9C0E92FE061BE2EB4FE0DC0E5
:101F0000FB2DF460BF2E09C034FE0AC0292F2660C5
:101F1000B22E06C028E030E005C020E130E002C06B
:101F200020E132E0F801B7FE07C060817181828153
:101F300093810C5F1F4F06C06081718180E090E04B
:101F40000E5F1F4FA301F1D0882E8618FB2DFF775F
:101F50003F2E36FE0DC0232D2E7FA22E891458F45D
:101F600034FE0BC032FC09C0832D8E7EA82E05C026
:101F7000B82CA32C03C0B82C01C0B92CA4FE0FC0F0
:101F8000FE01E80DF11D8081803321F49A2D997EA8
:101F9000A92E09C0A2FE06C0B394B39404C08A2D32
:101FA000867809F0B394A3FC10C0A0FE06C0B2145A
:101FB00080F4280C922C9B180DC0B21458F4B60172
:101FC00080E290E076D0B394F8CFB21418F42B18D6
:101FD00002C0982C212CA4FE0FC0B60180E390E033
:101FE00068D0A2FE16C0A1FC03C088E790E002C042
:101FF00088E590E0B6010CC08A2D867851F0A1FEEC
:1020000002C08BE201C080E2A7FC8DE2B60190E045
:1020100050D0891430F4B60180E390E04AD09A940D
:10202000F8CF8A94F301E80DF11D8081B60190E0AC
:1020300040D08110F6CF222009F44ECEB60180E2C6
:1020400090E037D02A94F7CFF6018681978102C0BD
:102050008FEF9FEF2B960FB6F894DEBF0FBECDBF6C
:10206000DF91CF911F910F91FF90EF90DF90CF9074
:10207000BF90AF909F908F907F906F905F904F90A8
:102080003F902F900895FC01059061507040011021
:10209000D8F7809590958E0F9F1F0895FC01615091
:1020A000704001900110D8F7809590958E0F9F1F7A
:1020B00008950F931F93CF93DF93FB01238121FD9D
:1020C00003C08FEF9FEF2CC022FF16C046815781BF
:1020D000248135814217530744F4A081B1819D01C9
:1020E0002F5F3F4F318320838C93268137812F5F71
:1020F0003F4F3783268314C08B01EC01FB01008422
:10210000F185E02D0995892BE1F6D80116968D9180
:102110009C911797019617969C938E931697CE01D4
:10212000DF91CF911F910F910895FA01AA272830CE
:1021300051F1203181F1E8946F936E7F6E5F7F4F94
:102140008F4F9F4FAF4FB1E03ED0B4E03CD0670F10
:10215000781F891F9A1FA11D680F791F8A1F911D63
:10216000A11D6A0F711D811D911DA11D20D009F4B3
:1021700068943F912AE0269F11243019305D3193F5
:10218000DEF6CF010895462F4770405D4193B3E0DE
:102190000FD0C9F7F6CF462F4F70405D4A3318F085
:1021A000495D31FD4052419302D0A9F7EACFB4E036
:1021B000A6959795879577956795BA95C9F70097EE
:1021C0006105710508959B01AC010A2E069457958F
:1021D000479537952795BA95C9F7620F731F841FE6
:0A21E000951FA01D0895F894FFCF8D
:1021EA00010058584E20202020204F4F4F4F4F4F6C
:1021FA004F4F4F4F2020202020000A096173636946
:10220A00693A20000A096465633A20000A09686588
:10221A00783A20005B434845434B205549442843BC
:10222A004830295D3A20005B434845434B205549D5
:10223A004428434831295D3A200041542B525354D3
:10224A000D0A0020202020204F4F4F5F5F5F5F5F05
:10225A005F5F20202020200041542B474D520D0A59
:10226A000041542B43574D4F44453D310D0A002040
:10227A00202020204F4F4F4F5F5F5F5F5F5F20201E
:10228A002020200041542B43574D4F44453F0D0A0F
:10229A000041542B43574C41500D0A002020202066
:1022AA00204F4F4F4F4F5F5F5F5F5F2020202020FE
:1022BA000041542B43574A41503D22002020202000
:1022CA00204F4F4F4F4F4F5F5F5F5F2020202020EE
:1022DA000041542B43494653520D0A002020202026
:1022EA00204F4F4F4F4F4F4F5F5F5F2020202020DE
:1022FA000020202020204F4F4F4F4F4F4F4F5F5FFE
:10230A0020202020200020202020204F4F4F4F4FF8
:10231A004F4F4F4F5F20202020200041542B43492C
:10232A005053454E443D31310D0A0057656C636F79
:10233A006D652C00456D7074792053706163653D3D
:10234A005B3030202F34325D00343000416C7265CE
:10235A00616479205265636F676E697A65640046C5
:10236A00726F6D20736572766572203A20003D3D6A
:10237A003D3D3D3D3D3D3D3D3D3D3D3D3D3D3D3D83
:10238A003D3D00202053595354454D20424F4F5450
:10239A00494E472E2E2E0020202020205F5F5F5FAF
:1023AA005F5F5F5F5F5F20202020200032330031B3
:1023BA0037322E32302E31302E3400687768776803
:1023CA00776877303030300043686F6948570020AB
:1023DA004669726D776172652056657220312E38B2
:1023EA0035202000202020202057656C636F6D6502
:1023FA002020202020202020004265666F72652060
:10240A00693263206C636420496E697469616C691E
:10241A007A652E2E2E200D0A0069326320434C4322
:10242A004420436F6E6E656374204F6B0D0A000083
:10243A00004000140054000A5B6368616E6E656CAC
:10244A002030000A5B6368616E6E656C2031002083
:10245A004E6F2072656164657220666F756E645D89
:10246A000A004572726F722C20506C7A2043484BD6
:10247A0020524649440020446574656374656420AB
:10248A0056657273696F6E5D3A204D4946415245F1
:10249A0020524335323276320A0020202020204F43
:1024AA005F5F5F5F5F5F5F5F5F202020202000200B
:1024BA00202020204F4F5F5F5F5F5F5F5F5F2020BC
:1024CA002020200020446574656374656420566585
:1024DA007273696F6E5D3A204D49464152452052EA
:1024EA004335323276310A002564200025303258CD
:1024FA000041542B43495053544152543D225443B2
:06250A0050222C2200000B
:00000001FF
