:1000000045C0000061C000005FC000005DC000008E
:100010005BC0000059C0000057C0000055C0000080
:1000200053C0000051C000004FC000004DC0000090
:100030004BC0000049C0000047C00000F0C40000F1
:1000400043C0000041C0000040C000003DC00000AF
:100050003BC0000039C0000037C0000035C00000C0
:1000600033C0000031C000002FC000002DC00000D0
:100070002BC0000029C0000053C0000025C00000B4
:1000800023C0000021C000001FC0000011241FBEBB
:10009000CFEFD0E1DEBFCDBF14E0A0E0B1E0E4EAF5
:1000A000F0E200E00BBF02C007900D92A632B1074C
:1000B000D9F726E0A6E2B4E001C01D92A531B2074F
:1000C000E1F7FFD40C9450109BCF1F920F920FB604
:1000D0000F9211240BB60F922F933F934F935F9380
:1000E0006F937F938F939F93AF93BF93EF93FF9300
:1000F0008CB18093D2040E94F80BFF91EF91BF91D5
:10010000AF919F918F917F916F915F914F913F91AF
:100110002F910F900BBE0F900FBE0F901F90189550
:100120001F920F920FB60F9211240BB60F921F93CE
:100130002F933F934F935F936F937F938F939F93EF
:10014000AF93BF93EF93FF93CF93DF9300D01F92B2
:10015000CDB7DEB710919C001E3321F481E080936F
:10016000340442C01F3421F481E0809330043CC049
:100170001B3451F480913004813009F075C08093B4
:1001800032041092300430C0109230041B3221F43B
:1001900081E080932F0464C0193441F480912F04CE
:1001A000813011F582E080932F045AC0103541F45C
:1001B00080912F048230C1F483E080932F0450C0DB
:1001C000143441F480912F04833071F484E08093DF
:1001D0002F0446C01C3241F480912F04843021F456
:1001E00085E080932F043CC080912F04853031F44A
:1001F0001093310486E080932F0432C08630B1F42E
:100200001A3361F08091310489831A831B82CE01F5
:1002100001960E94350D8093310422C010922F0464
:1002200010922E0481E080932D041AC080912D0439
:100230008823A1F080912E04E82FF0E0ED52FB4FCF
:1002400010838F5F80932E0490913104891308C02E
:1002500081E08093330410922D0402C010922F0489
:10026000812F0E94E60B03C010923004BDCF0F9087
:100270000F900F90DF91CF91FF91EF91BF91AF91D0
:100280009F918F917F916F915F914F913F912F91AE
:100290001F910F900BBE0F900FBE0F901F901895DF
:1002A00089E394E04BE654E025E0E0E9F2E0DC018C
:1002B00001900D922A95E1F7059684179507A1F70D
:1002C00045E051E060E082E0D9D62FEF89E698E181
:1002D000215080409040E1F700C000000895CF9287
:1002E000DF92EF92FF920F931F93CF93C62F81302F
:1002F000910569F18230910509F455C0892B09F007
:100300007EC08AE191E00E94EA0B0BEE15E00F2E11
:10031000FDEFEF2EF5E0FF2EF02D0F2EFFEECF2E8E
:10032000F5E0DF2EF02DC11105C0F80180810E949B
:10033000E60B04C0F70180810E94E60B0F5F1F4FA0
:10034000FFEFEF1AFF0A0C151D0569F758C084E28C
:1003500091E00E94EA0B0BEE15E00F2EFDEFEF2E61
:10036000F5E0FF2EF02D0F2EFFEECF2EF5E0DF2E65
:10037000F02DC11108C0F801808190E00E940E0CA0
:100380000E94EA0B07C0F701808190E00E940E0CEA
:100390000E94EA0B0F5F1F4FFFEFEF1AFF0A0C15C9
:1003A0001D0539F72CC08CE291E00E94EA0B0BEEA0
:1003B00015E00F2EFDEFEF2EF5E0FF2EF02D0F2EA6
:1003C000FFEECF2EF5E0DF2EF02DC11107C0F801B2
:1003D00080810E943D0C0E94EA0B06C0F7018081DB
:1003E0000E943D0C0E94EA0B80E20E94E60B0F5F28
:1003F0001F4FFFEFEF1AFF0A0C151D0531F7CF91C4
:100400001F910F91FF90EF90DF90CF900895CF93C1
:1004100080912B04811109C040E06BEE75E082E50C
:100420000E94E00A80932A041DC080912904882339
:1004300039F040E06BEE75E082E50E94E00A0CC006
:1004400040E06BEE75E082E50E94E00A80932A04AA
:10045000833011F410922B049091290481E08927B4
:1004600080932904C0912A04C13029F088E5809343
:100470000301C0E02CC080910301883529F58FE489
:100480008093030181E080932B048093290460E032
:100490008BEE95E00E94150B80932A048130B1F415
:1004A00084E391E00E94EA0B60E080E090E017DFD7
:1004B00060E081E090E013DF60E082E090E00FDF39
:1004C0008AE00E94E60B03C0C0E001C0CFEF8C2F92
:1004D000CF910895CF9380912804811109C041E004
:1004E0006DEF75E082E50E94E00A809327041DC04D
:1004F00080912604882339F041E06DEF75E082E5B4
:100500000E94E00A0CC041E06DEF75E082E50E94B8
:10051000E00A80932704833011F41092280490910C
:10052000260481E0892780932604C0912704C130E6
:1005300029F088E580930201C0E02CC0809102017F
:10054000883529F58FE48093020181E080932804A7
:100550008093260461E08DEF95E00E94150B809357
:1005600027048130B1F487E491E00E94EA0B61E056
:1005700080E090E0B4DE61E081E090E0B0DE61E038
:1005800082E090E0ACDE8AE00E94E60B03C0C0E0AF
:1005900001C0CFEF8C2FCF910895CF92DF92EF92D1
:1005A000FF920F931F93CF93DF937C016B01EA01BE
:1005B00089018AE591E00E94000C2FEF81E19AE722
:1005C000215080409040E1F700C0000043E651E038
:1005D00060E082E053D588E791E00E94000C8091B2
:1005E00032048823E1F31092320481E891E00E9402
:1005F000000C2FEF87EA91E6215080409040E1F710
:1006000000C00000109232044FE851E060E082E048
:1006100035D584EA91E00E94000C80913204882351
:10062000E1F31092320481EB91E00E94000C809182
:1006300032048823E1F3109232044CEB51E060E085
:1006400082E01CD5A601B70181ED91E00E946C0CFF
:100650000E94000C809132048823E1F3109232044E
:100660004CED51E060E082E009D581EF91E00E941D
:10067000000C809132048823E1F3109232044CEF95
:1006800051E060E082E0FAD4B801CE010E94C20CD1
:100690000E94000C809132048823E1F3109232040E
:1006A00041E152E060E082E0E9D42FEF81EE94E096
:1006B000215080409040E1F700C0000046E252E047
:1006C00060E082E0DBD4DF91CF911F910F91FF902A
:1006D000EF90DF90CF900895823091F028F4882336
:1006E00041F0813049F017C0833071F0843081F0DF
:1006F00012C010926B040FC081E080936B040BC09A
:1007000082E080936B0407C083E080936B0403C096
:1007100084E080936B0410921106109212061092DE
:100720001306109214060895EBE8F0E080818F7BA9
:10073000808310926B040895009741F0EBE8F0E09D
:100740002081206420830C94B40B0895EBE8F0E042
:1007500080818F7B8083089580916B04823009F4BF
:1007600074C028F4882351F0813051F0089583300B
:1007700009F4D0C0843009F410C10895D5CF08958C
:100780008091110690911206A0911306B091140663
:10079000883C9105A105B10520F48BE996E0CCCF0A
:1007A00008958091110690911206A0911306B091C0
:1007B0001406883C9105A105B10521F487EE95E06A
:1007C000BBCF08958091110690911206A091130657
:1007D000B091140680399140A105B10521F485E658
:1007E00094E0AACF08958091110690911206A091ED
:1007F0001306B091140688359240A105B10521F485
:100800008DEF93E099CF0895809111069091120693
:10081000A0911306B091140680329340A105B10552
:1008200021F488EF92E088CF08958091110690918D
:100830001206A0911306B0911406803B9440A105C6
:10084000B10509F0EBC070CF089580911106909129
:100850001206A0911306B0911406883C9105A105DB
:10086000B10520F48BE996E067CF089580911106D9
:1008700090911206A0911306B0911406823D910545
:10088000A105B10521F480E090E056CF0895809154
:10089000110690911206A0911306B09114068C3D9A
:1008A0009105A105B10521F487EE95E045CF0895A6
:1008B0008091110690911206A0911306B091140632
:1008C00080399140A105B10521F480E090E034CF5A
:1008D00008958091110690911206A0911306B0918F
:1008E00014068E3A9140A105B10521F485E694E005
:1008F00023CF08958091110690911206A0911306BE
:10090000B091140688359240A105B10509F086C062
:100910000BCF08958091110690911206A0911306B5
:10092000B091140684369105A105B10520F482E149
:1009300094E002CF08958091110690911206A09143
:100940001306B0911406883C9105A105B10520F469
:1009500080E090E0F1CE089580911106909112060A
:10096000A0911306B09114068C329140A105B105F7
:1009700020F482E194E0E0CE0895809111069091F8
:100980001206A0911306B0911406823C9140A10575
:10099000B10509F043C0C8CE089580911106909129
:1009A0001206A0911306B091140684369105A10594
:1009B000B10520F487E490E1BFCE0895809111063F
:1009C00090911206A0911306B0911406883C9105EF
:1009D000A105B10520F480E090E0AECE08958091AD
:1009E000110690911206A0911306B09114068C3254
:1009F0009140A105B10520F484E298E09DCE0895D0
:100A00008091110690911206A0911306B0911406E0
:100A1000823C9140A105B10509F486CE08951F924C
:100A20000F920FB60F9211240BB60F922F933F9394
:100A30004F935F936F937F938F939F93AF93BF93E6
:100A4000EF93FF93EDE0F6E084819581A681B78175
:100A50000196A11DB11D84839583A683B7838081F0
:100A60009181A281B3810196A11DB11D80839183E3
:100A7000A283B38371DEFF91EF91BF91AF919F91FC
:100A80008F917F916F915F914F913F912F910F9037
:100A90000BBE0F900FBE0F901F90189510920D0671
:100AA00010920E0610920F061092100681E090E050
:100AB00090930101809300010895DF9A0895DF98D3
:100AC000089578948AB38F688ABBF9DF80E0ABD34E
:100AD00081E0A9D360E875E280E090E04AD660E862
:100AE00075E281E090E045D63ED2F89424D62CD62B
:100AF000789410920D0610920E0610920F06109226
:100B000010062FEF81EE94E0215080409040E1F7F5
:100B100000C000004BE352E060E080E0AFD240E56F
:100B200052E060E081E0AAD244E652E060E082E078
:100B3000A5D24BE352E060E083E0A0D281E0CCDDBF
:100B4000EFEFF7EA21E6E150F0402040E1F700C086
:100B5000000080E0AED380E002D481E0AAD381E03F
:100B6000FED329E732E04CE752E068E872E085E91D
:100B700092E013DD95DB8FEF99EFE0E0815090403C
:100B8000E040E1F700C000004BE352E060E080E0AD
:100B900075D24CE952E060E081E070D241EB52E066
:100BA00060E082E06BD24BE352E060E083E066D22B
:100BB00084E092DDFFEF27EA81E6F150204080409B
:100BC000E1F700C0000069D29FEFE3EDF0E3915040
:100BD000E040F040E1F700C0000066D1CDE0D6E093
:100BE000772473940F2EFDEFAF2EF5E0BF2EF02D7E
:100BF0000F2EFBEE8F2EF5E09F2EF02D0F2EFBE635
:100C0000CF2EF4E0DF2EF02D0F2EFFEE4F2EF5E06D
:100C10005F2EF02D0F2EF3ED2F2EF4E03F2EF02D52
:100C2000688179818A819B8124E630E040E050E050
:100C3000FAD6672B682B692B91F480912C048725B9
:100C400080932C04811106C0E2DB8093FB05F40144
:100C5000148205C03FDC8093FB05F501148280916E
:100C6000FB05813009F0F0C080912C048111C0C0D7
:100C700086EC92E0C5D5809134048823E1F310928C
:100C800034040BEE15E0F80181918F01F6D5B8D54B
:100C900080E2AED504151505B1F786E393E0B0D533
:100CA000809133048823E1F310923304F1018081B1
:100CB0008F3409F079C001DF1092360410923504A8
:100CC0000F2EF9E3EF2EF4E0FF2EF02D00E010E000
:100CD00060E972E0C701F1D6892B59F4109338040A
:100CE0000093370481E090E09093360480933504BC
:100CF0000AC0B401C701E1D6892B29F41092360449
:100D0000109235043BC00F5F1F4F95E0E90EF11CB8
:100D10000A301105E9F68091350490913604892B4B
:100D200069F180913704909138049C01220F331FA0
:100D3000220F331F820F931FB401875C9B4FC6D6CF
:100D4000ADDEABD1EFE3FCE93197F1F700C0000075
:100D500046ED52E060E080E091D1A10162E0872D94
:100D60008DD14FED52E060E082E088D144EF52E057
:100D70006DE082E083D182E0AFDC18C08ED18FE3DA
:100D80009CE90197F1F700C0000046ED52E060E0F9
:100D900080E074D1A10162E0872D70D147EF52E06D
:100DA00060E082E06BD102C083E096DC9FEFE9EF68
:100DB000F0E09150E040F040E1F700C000008AE030
:100DC00005D58AE093E006D5C10104D58AE0FED4BA
:100DD00009E314E08BE5FAD4C801FCD48DE5F6D420
:100DE0008AE0F4D40B5F1F4FC016D10699F72CC0D0
:100DF000813051F50F2EF9E3EF2EF4E0FF2EF02DA8
:100E00008701B501C80159D6892B59F485E0E0E97D
:100E1000F2E0D80101900D928A95E1F73FDE82E081
:100E20005BDC0B5F1F4FC016D10659F78BE5CED4A4
:100E3000C701D0D48DE5CAD48AE0C8D425E0E20E3B
:100E4000F11CCE14DF0491F71092FB058091000194
:100E500090910101019709F0E3CE88819981AA81DF
:100E6000BB8188389341A105B10519F483E034DCD6
:100E7000D7CE88819981AA81BB8180349F41A10509
:100E8000B10511F411D0CCCE88819981AA81BB81A2
:100E900080319742A105B10509F0C2CE10DE109253
:100EA000010110920001BCCECF93DF9300D000D09F
:100EB000CDB7DEB784E089831A8284E18B8380E139
:100EC0008C8344E050E0BE016F5F7F4F809104014E
:100ED0003ED18111F6CF0F900F900F900F90DF91C0
:100EE000CF910895CF93DF9300D0CDB7DEB7807F49
:100EF000982F9C60998388608A8342E050E0BE010D
:100F00006F5F7F4F8091040122D18111F6CF0F9046
:100F10000F90DF91CF910895CF93DF9300D000D051
:100F2000CDB7DEB7982F907F292F2C60298398604A
:100F30009A8320E1829FC0011124982F9C609B839B
:100F400088608C8344E050E0BE016F5F7F4F8091EA
:100F50000401FDD08111F6CF0F900F900F900F90EC
:100F6000DF91CF910895B8D02FEF89E698E1215015
:100F700080409040E1F700C0000089E193E02AD46E
:100F800080E3B0DF8FE19EE40197F1F700C000003D
:100F900080E3A8DF8FE891E00197F1F700C000003F
:100FA00080E3A0DF8FE891E00197F1F700C0000037
:100FB00080E298DF8FE891E00197F1F700C0000030
:100FC00088E2AADF87EC90E00197F1F700C000000B
:100FD00088E0A2DF87EC90E00197F1F700C0000005
:100FE00081E09ADF8FED9EE20197F1F700C00000EB
:100FF00086E092DF87EC90E00197F1F700C00000F7
:101000008CE08ADF87EC90E00197F1F700C00000E8
:1010100089E393E0DFC30895CF93DF9300D000D03E
:10102000CDB7DEB7982F907F292F2D602983996047
:101030009A8320E1829FC0011124982F9D609B8399
:1010400089608C8344E050E0BE016F5F7F4F8091E8
:1010500004017DD08111F6CF0F900F900F900F906B
:10106000DF91CF910895E82FF0E0EE0FFF1FE15BD5
:10107000FC4F8081860F80684FCF0895CF93DF9318
:10108000EA01F1DF8881882329F02196C5DF899163
:101090008111FCCFDF91CF910895CF93DF9300D0E2
:1010A00000D0CDB7DEB78CE0898388E08A838CE1FD
:1010B0008B8388E18C8344E050E0BE016F5F7F4FFB
:1010C0008091040144D08111F6CF0F900F900F90C2
:1010D0000F90DF91CF91089588E480937000089578
:1010E000E4E7F0E0108294EA908390819923ECF792
:1010F00090917100987F9830A1F48093730084E8F8
:1011000080937400E4E7F0E080818823ECF790910D
:101110007100987F983139F081E0903429F480E0B3
:10112000089581E0089580E008958093730084E835
:1011300080937400E4E7F0E080818823ECF79091DD
:101140007100987F81E0983209F480E00895CF9291
:10115000DF92FF920F931F93CF93DF936B018A016E
:10116000BFDFF82E811117C00115110581F0E601CE
:101170000C0D1D1D8991D9DF811110C08FE99FE0F1
:101180000197F1F700C000000C171D0799F784E9DB
:101190008093740005C0FF24F39402C0FF24F394ED
:1011A0008F2DDF91CF911F910F91FF90DF90CF9006
:1011B00008951F93CF93DF93162F95B3C1E0D0E02E
:1011C00002C0CC0FDD1F4A95E2F72C2F2095922309
:1011D00095BB880F8E77A6D2812FA4D285B3C82B5A
:1011E000C5BBDF91CF911F910895482F6FE081E03B
:1011F000E0CF0895CF93DF9395B3C1E0D0E002C074
:10120000CC0FDD1F6A95E2F72C2F2095922395BB1A
:10121000880F8E77806886D289D295B3C92BC5BBDB
:10122000DF91CF910895CF93C82F1F921F921F92E5
:1012300081E08F9383E08F9332D284B3836084BB49
:1012400015BA2FEF89EF90E0215080409040E1F7F0
:1012500000C0000085B3836085BB8C2FC6DF4C2F98
:101260006DE88AE2A6DF4C2F6EE38BE2A2DF4C2F03
:101270006EE18CE29EDF4C2F60E08DE29ADF4C2F16
:1012800060E485E196DF4C2F6DE381E192DF6C2F06
:1012900084E1B0DF982F93700F900F900F900F9014
:1012A0000F9029F4682F63604C2F84E182DFCF9187
:1012B0000895CF93DF93D82F682F87E39BDFC82F44
:1012C0002FEF89EF90E0215080409040E1F700C07F
:1012D0000000D11106C087E593E07CD2C23959F5F0
:1012E0000FC083E693E076D2C23991F512C08FE643
:1012F00093E070D242E853E060E082E0BFDEFFCFCF
:1013000086E993E067D24AEB53E060E082E0B6DE24
:1013100023C086E993E05ED24FEC53E060E082E0C8
:10132000ADDE1AC084EE93E055D24AEB53E060E0A4
:1013300082E0A4DE11C0C059C230C8F6F3CF84EEFB
:1013400093E048D24FEC53E060E082E097DE04C0C7
:10135000C059C23060F6F3CFDF91CF910895CF939B
:10136000C82F682F82E046DF682F60624C2F82E032
:1013700020DF6C2F83E03EDF682F60684C2F83E016
:1013800018DFCF9108952F923F924F925F926F9204
:101390007F928F929F92AF92BF92CF92DF92EF9205
:1013A000FF920F931F93CF93DF93F82EA62EB72EA5
:1013B000442E222ED32E8CE0F81659F0EEE0FE12C9
:1013C00011C06894CC24C4F80F2EF2E13F2EF02D0A
:1013D0000BC00F2EF0E3CF2EF02D0F2EF7E73F2E90
:1013E000F02D02C0C12C312C4E2D632D606882E09F
:1013F000E0DE6E2D84E0FEDE682F6F774E2D84E0F8
:10140000D8DE6E2D8AE0F6DE682F60684E2D8AE009
:10141000D0DE4E2D60E081E0CCDE512C612C712CB1
:10142000411451046104710499F0CA2DDB2D812C03
:10143000912C540169914E2D89E0BBDEFFEF8F1A8C
:101440009F0AAF0ABF0A84149504A604B70490F358
:101450004E2D6F2D81E0ADDE8CE0F81208C06E2DB0
:101460008DE0C8DE682F60684E2D8DE0A2DE6E2D07
:1014700084E0C0DEB82EC0E0D0E0EC2DE160CE2EDE
:101480000AC06E2D84E0B6DEB82E2196CF3CF7E080
:10149000DF0709F468C08C2D8B2199F36EC0832D72
:1014A0008170B82211F0C2E001C0C1E08CE0F812F6
:1014B00073C06E2D8AE09EDE882E6E2D8CE09ADE43
:1014C000282F2770A9F0882D90E00197880F991F89
:1014D000880F991F880F991F820F911D092E000CEC
:1014E000AA0BBB0BF80180839183A283B38311C045
:1014F000882D90E0880F991F880F991F880F991FDA
:10150000092E000CAA0BBB0BF80180839183A283E8
:10151000B383882071F0882D813108F080E1882E16
:10152000912CA12CB12C81149104A104B10429F4B3
:1015300033C0812C912C54018394022D1D2D412CFC
:10154000512C32016E2D89E055DEF80181938F0117
:10155000FFEF4F1A5F0A6F0A7F0A481459046A04A2
:101560007B0480F319C06E2D8DE044DE682F6F7709
:101570004E2D8DE01EDEC3E00FC06E2D8DE03ADEF5
:10158000682F6F774E2D8DE014DE6E2D86E032DEF3
:101590008B7109F484CFC3E08C2FDF91CF911F9121
:1015A0000F91FF90EF90DF90CF90BF90AF909F9002
:1015B0008F907F906F905F904F903F902F90089505
:1015C000CF92DF92EF920F931F93CF93DF9300D0D0
:1015D00000D0CDB7DEB7182F6B01E42E67E08DE0A9
:1015E000E8DDF60110838E010F5F1F4F960141E089
:1015F000B6018CE0C8DE813059F449815A816B8193
:101600007C81403151056105710519F083E001C00D
:1016100083E00F900F900F900F90DF91CF911F916B
:101620000F91EF90DF90CF900895CF92DF92EF92DD
:101630000F931F93CF93DF9300D000D0CDB7DEB7C9
:101640006C01E62E462F60E08DE0B3DD83E9F60104
:10165000808380E281838E010F5F1F4F960142E0FD
:10166000B6018CE090DE813071F4F601A6014C5F8A
:101670005F4F90E0219192274E175F07D9F7F6014F
:101680002481921383E00F900F900F900F90DF91C1
:10169000CF911F910F91EF90DF90CF900895CF934E
:1016A000DF9300D01F92CDB7DEB78885833021F15C
:1016B000811132C029C09C9112969193E217F307D1
:1016C000D1F79B81923020F11B821DB8833071F4D9
:1016D000C09A87B3876087BB99818A81892B80658F
:1016E0002EB19B81922B9EB98DB916C0811114C069
:1016F000BB9A80E48DB910C0DE011996FE013196C7
:101700009E012C5F3F4FD7CF9B819230E8F602C0FD
:101710001DB8DECF1DB8ECCF0F900F900F90DF916A
:10172000CF9108958FB9779BFECF08951FB8779B0F
:10173000FECF8FB10895BC9A8CE083BF8AEF81BF42
:1017400087B7826087BF0895139A80E480938B00E7
:101750008AE180938A00109289001092880010928A
:101760008100109280000895909381008093800002
:101770000895CF93DF93EC019B0140E050E060E4DB
:1017800072E48FE090E04FD121503109209759F455
:1017900010983093900029B988E18AB9579A86E069
:1017A0008093950010C0219771F430939800209396
:1017B0009900EAE9F0E088E1808380818068808395
:1017C00086E080939D00DF91CF9108955D9BFECFD1
:1017D0008CB90895CF93DF93EC018881882329F099
:1017E0002196F4DF89918111FCCFDF91CF9108958B
:1017F000EBE9F0E0908195FFFDCF80939C00089588
:10180000CF93DF93EC018881882329F02196F0DFC4
:1018100089918111FCCFDF91CF9108950F931F9390
:10182000CF93DF93CDB7DEB764970FB6F894DEBFE2
:101830000FBECDBF9F938F9388E094E09F938F93CB
:101840008E010F5F1F4F1F930F934FD1B8018BE68F
:1018500095E03CD10F900F900F900F900F900F904C
:101860008BE695E064960FB6F894DEBF0FBECDBF51
:10187000DF91CF911F910F9108950F931F93CF93F5
:10188000DF93CDB7DEB764970FB6F894DEBF0FBE17
:10189000CDBF1F928F938CE094E09F938F938E0126
:1018A0000F5F1F4F1F930F9320D1B8018BE695E078
:1018B0000DD10F900F900F900F900F900F908BE61F
:1018C00095E064960FB6F894DEBF0FBECDBFDF91F2
:1018D000CF911F910F910895CF92DF92EF92FF92D7
:1018E0000F931F93CF93DF93CDB7DEB7C054D109C9
:1018F0000FB6F894DEBF0FBECDBF6B017A0120E4B6
:10190000EBEAF5E0DF011D922A95E9F7BC018E01B3
:101910000F5F1F4FC801DAD0B601C801C3D0F8016C
:1019200001900020E9F7319782E29CE29183808365
:1019300082E290E093838283B701C801B3D0F801BB
:1019400001900020E9F7319782E29DE09183808346
:101950008AE090E093838283B8018BEA95E0B6D069
:101960008BEA95E0C05CDF4F0FB6F894DEBF0FBE88
:10197000CDBFDF91CF911F910F91FF90EF90DF903E
:10198000CF900895EF92FF920F931F93CF93DF9321
:10199000CDB7DEB7C054D1090FB6F894DEBF0FBE85
:1019A000CDBF9C017B0180E4EBEAF5E0DF011D92F5
:1019B0008A95E9F794E1E1E1F4E08E010F5F1F4FB2
:1019C000D80101900D929A95E1F7B901C8016AD04A
:1019D000F80101900020E9F7319782E29CE29183BF
:1019E00080831282B701C8015DD0F8010190002008
:1019F000E9F731978DE09AE0918380831282B801F4
:101A00008BEA95E063D08BEA95E0C05CDF4F0FB6C0
:101A1000F894DEBF0FBECDBFDF91CF911F910F9124
:101A2000FF90EF900895A1E21A2EAA1BBB1BFD01A7
:101A30000DC0AA1FBB1FEE1FFF1FA217B307E407AD
:101A4000F50720F0A21BB30BE40BF50B661F771F05
:101A5000881F991F1A9469F76095709580959095E5
:101A60009B01AC01BD01CF010895FC018827992796
:101A7000E89421912032E9F3293010F02E30C8F398
:101A80002B3239F02D3231F4689403C026D0820F06
:101A9000911D219120532A30C8F31EF49095819511
:101AA0009F4F0895FB01DC010D900020E9F711978D
:101AB00001900D920020E1F70895FB01DC018D916A
:101AC000019080190110D9F3990B0895FB01DC01F5
:101AD00001900D920020E1F708957AE0979F902DF4
:101AE000879F802D910D112408950F931F93CF93FD
:101AF000DF93CDB7DEB72E970FB6F894DEBF0FBEDB
:101B0000CDBF0D891E8986E08C831A8309838FEFF0
:101B10009FE79E838D83AE01475E5F4F6F89788D0F
:101B2000CE01019610D0EF81F885E00FF11F1082F1
:101B30002E960FB6F894DEBF0FBECDBFDF91CF91CA
:101B40001F910F9108952F923F924F925F926F9243
:101B50007F928F929F92AF92BF92CF92DF92EF923D
:101B6000FF920F931F93CF93DF93CDB7DEB72B97E1
:101B70000FB6F894DEBF0FBECDBF6C017B018A01AA
:101B8000FC0117821682838181FFBFC1CE010196BD
:101B90003C01F6019381F70193FD859193FF8191BB
:101BA0007F01882309F4ADC1853239F493FD859115
:101BB00093FF81917F01853221F4B60190E0D6D167
:101BC000E8CF912C212C312CFFE1F315D8F08B328A
:101BD00079F038F4803279F08332A1F4232D20613A
:101BE0001DC08D3261F0803369F4232D216016C051
:101BF000832D8260382EE32DE4603E2E2AC0F32D23
:101C0000F8601DC037FC2DC020ED280F2A3040F0B1
:101C10008E32B9F436FC75C1232D2064322E19C0E2
:101C200036FE06C08AE0989E200D1124922E11C027
:101C3000EAE02E9E200D1124222EF32DF0623F2E7D
:101C400008C08C3621F4832D8068382E02C0883677
:101C500041F4F70193FD859193FF81917F018111FB
:101C6000B3CF982F9F7D9554933028F40C5F1F4F6E
:101C70009FE399830DC0833631F0833771F083354C
:101C800009F055C020C0F801808189830E5F1F4F85
:101C900088248394912C530112C02801F2E04F0E46
:101CA000511CF801A080B18036FE03C0692D70E0A0
:101CB00002C06FEF7FEFC5014ED14C018201F32DC1
:101CC000FF773F2E15C0280122E0420E511CF8017B
:101CD000A080B18036FE03C0692D70E002C06FEFB6
:101CE0007FEFC5012DD14C01F32DF0683F2E82010D
:101CF00033FC19C0822D90E088169906A0F4B60135
:101D000080E290E033D12A94F5CFF50137FC85913C
:101D100037FE81915F01B60190E028D121102A940D
:101D200021E0821A91088114910479F7E1C0843688
:101D300011F0893639F5F80137FE07C060817181ED
:101D4000828193810C5F1F4F08C060817181072ED3
:101D5000000C880B990B0E5F1F4FF32DFF763F2E63
:101D600097FF09C090958095709561957F4F8F4F33
:101D70009F4FF0683F2E2AE030E0A30133D1882E38
:101D8000861844C0853731F4232D2F7EB22E2AE0E9
:101D900030E025C0932D997FB92E8F36C1F018F40D
:101DA000883579F0AEC0803719F0883721F0A9C0A6
:101DB000E92FE061BE2EB4FE0DC0FB2DF460BF2EF6
:101DC00009C034FE0AC0292F2660B22E06C028E0C2
:101DD00030E005C020E130E002C020E132E0F8014F
:101DE000B7FE07C060817181828193810C5F1F4FB4
:101DF00006C06081718180E090E00E5F1F4FA301FB
:101E0000F1D0882E8618FB2DFF773F2E36FE0DC0B1
:101E1000232D2E7FA22E891458F434FE0BC032FCE1
:101E200009C0832D8E7EA82E05C0B82CA32C03C01C
:101E3000B82C01C0B92CA4FE0FC0FE01E80DF11DA5
:101E40008081803321F49A2D997EA92E09C0A2FEAB
:101E500006C0B394B39404C08A2D867809F0B39475
:101E6000A3FC10C0A0FE06C0B21480F4280C922C73
:101E70009B180DC0B21458F4B60180E290E076D001
:101E8000B394F8CFB21418F42B1802C0982C212C5C
:101E9000A4FE0FC0B60180E390E068D0A2FE16C099
:101EA000A1FC03C088E790E002C088E590E0B6019D
:101EB0000CC08A2D867851F0A1FE02C08BE201C0D1
:101EC00080E2A7FC8DE2B60190E050D0891430F496
:101ED000B60180E390E04AD09A94F8CF8A94F30157
:101EE000E80DF11D8081B60190E040D08110F6CF61
:101EF000222009F44ECEB60180E290E037D02A9439
:101F0000F7CFF6018681978102C08FEF9FEF2B9666
:101F10000FB6F894DEBF0FBECDBFDF91CF911F91FA
:101F20000F91FF90EF90DF90CF90BF90AF909F9078
:101F30008F907F906F905F904F903F902F9008957B
:101F4000FC010590615070400110D8F78095909584
:101F50008E0F9F1F0895FC01615070400190011089
:101F6000D8F7809590958E0F9F1F08950F931F931C
:101F7000CF93DF93FB01238121FD03C08FEF9FEF00
:101F80002CC022FF16C0468157812481358142171B
:101F9000530744F4A081B1819D012F5F3F4F3183EE
:101FA00020838C93268137812F5F3F4F3783268391
:101FB00014C08B01EC01FB010084F185E02D099533
:101FC000892BE1F6D80116968D919C911797019671
:101FD00017969C938E931697CE01DF91CF911F9108
:101FE0000F910895FA01AA27283051F1203181F18B
:101FF000E8946F936E7F6E5F7F4F8F4F9F4FAF4F11
:10200000B1E03ED0B4E03CD0670F781F891F9A1F23
:10201000A11D680F791F8A1F911DA11D6A0F711DD7
:10202000811D911DA11D20D009F468943F912AE0E3
:10203000269F11243019305D3193DEF6CF010895CB
:10204000462F4770405D4193B3E00FD0C9F7F6CFFC
:10205000462F4F70405D4A3318F0495D31FD4052C4
:10206000419302D0A9F7EACFB4E0A695979587955A
:1020700077956795BA95C9F7009761057105089539
:102080009B01AC010A2E06945795479537952795E5
:10209000BA95C9F7620F731F841F951FA01D08957D
:0420A000F894FFCFE2
:1020A400010058584E20202020204F4F4F4F4F4FB3
:1020B4004F4F4F4F2020202020000A09617363698D
:1020C400693A20000A096465633A20000A096865D0
:1020D400783A20005B434845434B20554944284304
:1020E4004830295D3A20005B434845434B2055491D
:1020F4004428434831295D3A200041542B5253541B
:102104000D0A0020202020204F4F4F5F5F5F5F5F4C
:102114005F5F20202020200041542B474D520D0AA0
:102124000041542B43574D4F44453D310D0A002087
:10213400202020204F4F4F4F5F5F5F5F5F5F202065
:102144002020200041542B43574D4F44453F0D0A56
:102154000041542B43574C41500D0A0020202020AD
:10216400204F4F4F4F4F5F5F5F5F5F202020202045
:102174000041542B43574A41503D22002020202047
:10218400204F4F4F4F4F4F5F5F5F5F202020202035
:102194000041542B43494653520D0A00202020206D
:1021A400204F4F4F4F4F4F4F5F5F5F202020202025
:1021B4000020202020204F4F4F4F4F4F4F4F5F5F45
:1021C40020202020200020202020204F4F4F4F4F40
:1021D4004F4F4F4F5F2020202020003D3D3D3D3D8F
:1021E4003D3D3D3D3D3D3D3D3D3D3D3D3D3D3D0058
:1021F400202053595354454D20424F4F54494E4784
:102204002E2E2E0020202020205F5F5F5F5F5F5F07
:102214005F5F5F2020202020003233003137322ED0
:1022240032302E31302E33006877687768776877DC
:10223400303030300043686F694857002046697277
:102244006D776172652056657220312E38352020F5
:102254000020202020202057656C636F6D652020AE
:1022640020202020200041542B43495053454E4404
:102274003D31310D0A0057656C636F6D652C004567
:102284006D7074792053706163653D5B3030202F2D
:1022940034325D00343000416C72656164792052DF
:1022A40065636F676E697A65640046726F6D20734B
:1022B4006572766572203A20004265666F72652009
:1022C400693263206C636420496E697469616C6966
:1022D4007A652E2E2E200D0A0069326320434C436A
:1022E4004420436F6E6E656374204F6B0D0A0000CB
:1022F400004000140054000A5B6368616E6E656CF4
:102304002030000A5B6368616E6E656C20310020CA
:102314004E6F2072656164657220666F756E645DD0
:102324000A004572726F722C20506C7A2043484B1D
:1023340020524649440020446574656374656420F2
:1023440056657273696F6E5D3A204D494641524538
:1023540020524335323276320A0020202020204F8A
:102364005F5F5F5F5F5F5F5F5F2020202020002052
:10237400202020204F4F5F5F5F5F5F5F5F5F202003
:1023840020202000204465746563746564205665CC
:102394007273696F6E5D3A204D4946415245205231
:1023A4004335323276310A00256420002530325814
:1023B4000041542B43495053544152543D225443F9
:0623C40050222C22000053
:00000001FF
