:1000000045C0000062C0000060C000005EC000008B
:100010005CC000005AC0000058C0000056C000007C
:1000200054C0000052C0000050C000004EC000008C
:100030004CC000004AC0000048C000000AC70000D1
:1000400044C0000042C0000041C000003EC00000AB
:100050003CC000003AC0000038C0000036C00000BC
:1000600034C0000032C0000030C000002EC00000CC
:100070002CC000002AC0000038C0000026C00000CC
:1000800024C0000022C0000020C0000011241FBEB8
:10009000CFEFD0E1DEBFCDBF14E0A0E0B1E0E8E3F8
:1000A000F6E200E00BBF02C007900D92AA39B1073B
:1000B000D9F726E0AAE9B4E001C01D92A53EB20737
:1000C000E1F70E949F090C941A139ACF1F920F9286
:1000D0000FB60F9211248F938CB1809392058F915C
:1000E0000F900FBE0F901F9018951F920F920FB692
:1000F0000F9211240BB60F921F932F933F934F93A0
:100100005F936F937F938F939F93AF93BF93EF937F
:10011000FF93CF93DF9300D01F92CDB7DEB710913E
:100120009C001E3321F481E08093C20442C01F343E
:1001300021F481E08093AC043CC01B3451F48091E5
:10014000AC04813009F087C08093C0041092AC04E5
:1001500030C01092AC041B3221F481E08093AB04D8
:1001600076C0193441F48091AB04813011F582E0FE
:100170008093AB046CC0103541F48091AB048230A5
:10018000C1F483E08093AB0462C0143441F48091E5
:10019000AB04833071F484E08093AB0458C01C320C
:1001A00041F48091AB04843021F485E08093AB046A
:1001B0004EC08091AB04853091F41093BF0486E06B
:1001C0008093AB048091BF0489831A82CE0101968B
:1001D0000E94FF0F9093D0068093CF0638C08630E0
:1001E000C1F41A3371F08091BF0489831A831B8292
:1001F000CE0101960E94FF0F9093D0068093CF0608
:1002000026C01092AB041092AA0481E08093A90446
:100210001EC08091A9048823C1F08091AA04E82F10
:10022000F0E0ED56FA4F10838F5F8093AA0420917F
:10023000CF063091D00690E08217930741F481E019
:100240008093C1041092A90402C01092AB04812FC4
:100250000E94B00E03C01092AC04ABCF0F900F9071
:100260000F90DF91CF91FF91EF91BF91AF919F914F
:100270008F917F916F915F914F913F912F911F913E
:100280000F900BBE0F900FBE0F901F901895CF933D
:100290008091A704811109C040E06DEA76E082E513
:1002A0000E94AA0D8093A6041DC08091A5048823F6
:1002B00039F040E06DEA76E082E50E94AA0D0CC0BC
:1002C00040E06DEA76E082E50E94AA0D8093A604E4
:1002D000833011F41092A7049091A50481E089273E
:1002E0008093A504C091A604C13029F088E58093CD
:1002F0000801C0E018C080910801883599F48FE4A6
:100300008093080181E08093A7048093A50460E0B6
:100310008DEA96E00E94DF0D8093A604813019F0EB
:10032000CFEF01C0C0E08C2FCF910895CF93809183
:10033000A404811109C041E06FEB76E082E50E94E0
:10034000AA0D8093A3041DC08091A204882339F0D4
:1003500041E06FEB76E082E50E94AA0D0CC041E01F
:100360006FEB76E082E50E94AA0D8093A3048330B0
:1003700011F41092A4049091A20481E08927809343
:10038000A204C091A304C13029F088E5809307013D
:10039000C0E018C080910701883599F48FE48093FC
:1003A000070181E08093A4048093A20461E08FEBB5
:1003B00096E00E94DF0D8093A304813019F0CFEF07
:1003C00001C0C0E08C2FCF910895CF93DF93EC0153
:1003D0006091D1067091D2068091D3069091D40697
:1003E00024E630E040E050E00E94DD0F672B682BF0
:1003F000692B89F4988181E089278883811106C05F
:1004000046DF8093BD061092B10605C08FDF809352
:10041000BD061092C306DF91CF91089587EC94E05A
:100420004BE255E025E0E6E1F3E0DC0101900D92BE
:100430002A95E1F7059684179507A1F747E451E05F
:1004400060E082E00E94050B2FEF89E698E12150E1
:1004500080409040E1F700C0000008951092D5065A
:100460001092D6061092D7061092D806823099F0D4
:1004700028F4882349F0813051F01CC0843099F071
:1004800070F08530A1F016C010922B0513C081E0EA
:1004900080932B050FC082E080932B050BC083E077
:1004A00080932B0507C084E080932B0503C085E073
:1004B00080932B051092D5061092D6061092D7067F
:1004C0001092D8060895EBE8F0E080818F7B80835E
:1004D00010922B050895009741F0EBE8F0E02081A1
:1004E000206420830C947E0E0895EBE8F0E0808178
:1004F0008F7B8083089580912B05823009F476C02C
:1005000028F4882361F0813061F00895843009F483
:1005100037C108F4D0C0853009F475C10895D3CF30
:1005200008958091D5069091D606A091D706B091F6
:10053000D806883C9105A105B10520F48BE996E029
:10054000CACF08958091D5069091D606A091D7067E
:10055000B091D806883C9105A105B10521F487EE3C
:1005600095E0B9CF08958091D5069091D606A091D7
:10057000D706B091D80680399140A105B10521F484
:1005800085E694E0A8CF08958091D5069091D6068F
:10059000A091D706B091D80688359240A105B10543
:1005A00021F48DEF93E097CF08958091D506909137
:1005B000D606A091D706B091D80680329340A10507
:1005C000B10521F488EF92E086CF08958091D50699
:1005D0009091D606A091D706B091D806803B944062
:1005E000A105B10509F050C16ECF08958091D506DF
:1005F0009091D606A091D706B091D806883C910577
:10060000A105B10520F48BE996E065CF08958091AE
:10061000D5069091D606A091D706B091D806823D16
:100620009105A105B10521F480E090E054CF089533
:100630008091D5069091D606A091D706B091D806A4
:100640008C3D9105A105B10521F487EE95E043CFDE
:1006500008958091D5069091D606A091D706B091C5
:10066000D80680399140A105B10521F480E090E0E1
:1006700032CF08958091D5069091D606A091D706E5
:10068000B091D8068E3A9140A105B10521F485E6D6
:1006900094E021CF08958091D5069091D606A0913F
:1006A000D706B091D80688359240A105B10509F06A
:1006B000EBC009CF08958091D5069091D606A09100
:1006C000D706B091D8068B349105A105B10520F469
:1006D00082E194E000CF08958091D5069091D606EE
:1006E000A091D706B091D80686399105A105B1052C
:1006F00020F480E090E0EFCE08958091D5069091AF
:10070000D606A091D706B091D806813E9105A105E5
:10071000B10520F482E194E0DECE08958091D50603
:100720009091D606A091D706B091D8068C32914010
:10073000A105B10520F480E090E0CDCE0895809130
:10074000D5069091D606A091D706B091D8068737E6
:100750009140A105B10520F482E194E0BCCE08955A
:100760008091D5069091D606A091D706B091D80673
:10077000823C9140A105B10509F086C0A4CE089540
:100780008091D5069091D606A091D706B091D80653
:1007900084369105A105B10520F482E194E09BCE59
:1007A00008958091D5069091D606A091D706B09174
:1007B000D806883C9105A105B10520F480E090E0C1
:1007C0008ACE08958091D5069091D606A091D7063D
:1007D000B091D8068C329140A105B10520F482E198
:1007E00094E079CE08958091D5069091D606A09197
:1007F000D706B091D806823C9140A105B10509F019
:1008000043C061CE08958091D5069091D606A091FF
:10081000D706B091D80684369105A105B10520F41C
:1008200087E490E158CE08958091D5069091D60640
:10083000A091D706B091D806883C9105A105B105D5
:1008400020F480E090E047CE08958091D506909105
:10085000D606A091D706B091D8068C329140A1055A
:10086000B10520F484E298E036CE08958091D50653
:100870009091D606A091D706B091D806823C9140BF
:10088000A105B10509F41FCE08951092E10610925A
:10089000E2061092E3061092E40610920201109212
:1008A00001010895CF93DF93CDB7DEB765970FB6FB
:1008B000F894DEBF0FBECDBFBC019AE0EAE0F1E0E4
:1008C000DE01119601900D929A95E1F7FE013B969B
:1008D0008BE0DF011D928A95E9F7CE0101960E9417
:1008E0001C10A2D646E751E060E081E08ED643E8D6
:1008F00051E060E082E089D6AE014F5F5F4F60E07B
:1009000083E083D665960FB6F894DEBF0FBECDBFE9
:10091000DF91CF9108954091E1065091E2066091F8
:10092000E3067091E406413157426105710538F0E4
:1009300021E030E03093020120930101B3DF809188
:100940000101909102010097F1F70895CF92DF9293
:10095000EF92FF920F931F93CF93DF937C016B0174
:10096000EA01890192DF86E991E00E94CA0E2FEF29
:1009700081E19AE7215080409040E1F700C00000FB
:100980008FE991E0C8DF46EA51E060E082E03DD6C1
:100990007CDF8BEB91E00E94CA0E8091C004811134
:1009A00007C084EC91E0B7DF8091C0048823C9F3CD
:1009B0001092C0046ADF8BEC91E00E94CA0E2FEF08
:1009C00087EA91E6215080409040E1F700C00000A6
:1009D0001092C00489ED91E09EDF43EE51E060E0AB
:1009E00082E013D652DF88EF91E00E94CA0E809118
:1009F000C004811107C085E092E08DDF8091C004C2
:100A00008823C9F31092C00440DF80E192E00E9485
:100A1000CA0E8091C004811107C08BE192E07BDF98
:100A20008091C0048823C9F31092C00444E252E0CC
:100A300060E082E0EAD529DFA601B70189E392E010
:100A40000E94360F0E94CA0E8091C004811107C017
:100A500084E492E060DF8091C0048823C9F310929F
:100A6000C0044DE452E060E082E0CFD50EDF82E6C4
:100A700092E00E94CA0E8091C004811107C08DE6E9
:100A800092E049DF8091C0048823C9F31092C0042A
:100A900046E752E060E082E0B8D5F7DEB801CE016B
:100AA0000E948C0F0E94CA0E8091C004811107C061
:100AB0008BE892E030DF8091C0048823C9F3109264
:100AC000C00447E952E060E082E09FD52FEF81EE5D
:100AD00094E0215080409040E1F700C000004CEAD3
:100AE00052E060E082E091D5DF91CF911F910F91AC
:100AF000FF90EF90DF90CF900895AC9A0895AC9856
:100B000008950F931F93CF93DF93CDB7DEB764970C
:100B10000FB6F894DEBF0FBECDBF78948FE08ABBCE
:100B2000A49AF8940E94650E0E946E0E789410921A
:100B3000D1061092D2061092D3061092D406DFDFAF
:100B400060E875E280E090E00E94830E60E875E264
:100B500081E090E00E94830E80E04AD781E048D790
:100B6000C9D441EC52E060E080E04FD546ED52E060
:100B700060E081E04AD54AEE52E060E082E045D58F
:100B800041EC52E060E083E040D581E067DC2FEF8C
:100B900081E19AE7215080409040E1F700C00000D9
:100BA00080E06ED780E0C2D781E06AD781E0BED70F
:100BB0002FEF32E042E053E06EE073E08BE193E030
:100BC000C5DE2CDC8FE0EFE1F1E08E010F5F1F4FFF
:100BD000D80101900D928A95E1F7FE01709685E0AB
:100BE000DF011D928A95E9F7D8010D900020E9F701
:100BF000119786E0E2E2F3E001900D928A95E1F729
:100C000041EC52E060E080E000D548E253E060E073
:100C100081E0FBD4A80160E082E0F7D441EC52E02F
:100C200060E083E0F2D485E019DCBFEF27EA81E6DB
:100C3000B15020408040E1F700C00000F5D4F5D36A
:100C400064960FB6F894DEBF0FBECDBFDF91CF9193
:100C50001F910F9108958130910531F082309105F7
:100C600069F10196C9F517C01092B6041092B50447
:100C70001092B8041092B70481E090E09093BA0407
:100C80008093B9049093BC048093BB049093B40404
:100C90008093B30408951092B6041092B50481E0D5
:100CA00090E09093B8048093B7041092BA04109225
:100CB000B9049093B4048093B304089581E090E064
:100CC0009093B6048093B5041092B8041092B704C0
:100CD0001092BA041092B90408951092D10610929D
:100CE000D2061092D3061092D4068230910599F064
:100CF0001092DD061092DE061092DF061092E006DA
:100D00008130910541F41092D9061092DA061092C2
:100D1000DB061092DC069FCF089581309105A1F487
:100D200080919C0490919D04A0919E04B0919F0499
:100D30000196A11DB11D80939C0490939D04A093E6
:100D40009E04B0939F041AC08F3F2FEF9207A1F427
:100D500080919C0490919D04A0919E04B0919F0469
:100D60000197A109B10980939C0490939D04A093DD
:100D70009E04B0939F0402C0892B91F080919C0443
:100D800090919D04A0919E04B0919F048370992737
:100D9000AA27BB27FC01ED5FFE4F80818BBB089526
:100DA0001BBA08958091BD049091BE04892B09F46B
:100DB0004FC06091D1067091D2068091D306909178
:100DC000D406409100012BE030E0241B3109032EB2
:100DD000000C440B550B0E94DD0F672B682B692B11
:100DE000B9F52091AF043091B0048091AD04909199
:100DF000AE04281739070CF58091B1049091B20424
:100E0000019721F481E090E088DF0DC08091B1046A
:100E10009091B204019621F48FEF9FEF7EDF03C023
:100E200080E090E07ADF8091AF049091B004019669
:100E30009093B0048093AF0408951092BE04109272
:100E4000BD041092B0041092AF0480E090E065CF32
:100E500008951F920F920FB60F9211240BB60F92A6
:100E60002F933F934F935F936F937F938F939F93B2
:100E7000AF93BF93EF93FF93E1EDF6E0848195810B
:100E8000A681B7810196A11DB11D84839583A68398
:100E9000B78380819181A281B3810196A11DB11D8B
:100EA00080839183A283B38380859185A285B38556
:100EB0000196A11DB11D80879187A287B387848584
:100EC0009585A685B7850196A11DB11D8487958757
:100ED000A687B78780899189A289B3890196A11DC8
:100EE000B11D808B918BA28BB38B05DB5BDFFF91F8
:100EF000EF91BF91AF919F918F917F916F915F9192
:100F00004F913F912F910F900BBE0F900FBE0F90FE
:100F10001F90189581309105B1F580919A049091B8
:100F20009B048130910509F49EC08F3F2FEF9207FB
:100F300099F0892B09F581E090E09093B2048093B9
:100F4000B10428EC30E03093AE042093AD049093CC
:100F5000BE048093BD0410C081E090E09093B20481
:100F60008093B10420E931E03093AE042093AD04C6
:100F70009093BE048093BD0481E090E090939B0425
:100F800080939A0408950097A9F580919A0490910E
:100F90009B04009709F467C08F3F2FEF9207A9F0D9
:100FA000019719F58FEF9FEF9093B2048093B104EE
:100FB00088EC90E09093AE048093AD0481E090E0E3
:100FC0009093BE048093BD0410C081E090E09093A4
:100FD000B2048093B10428EC30E03093AE04209347
:100FE000AD049093BE048093BD0410929B041092B4
:100FF0009A0408950196B9F580919A0490919B0402
:101000008F3F2FEF920779F10097A9F0019729F50B
:101010008FEF9FEF9093B2048093B10480E991E049
:101020009093AE048093AD0481E090E09093BE0471
:101030008093BD0412C08FEF9FEF9093B204809312
:10104000B10488EC90E09093AE048093AD0481E00D
:1010500090E09093BE048093BD048FEF9FEF909338
:101060009B0480939A040895CF92DF92EF92FF92AF
:101070000F931F93CF93DF93CDB7DEB76C970FB667
:10108000F894DEBF0FBECDBF9C019091BD0691309C
:1010900009F044C1F9018081811112C18DE393E00F
:1010A00079D68091C2048823E1F31092C20482E3CE
:1010B000E3E9F5E0DF011D928A95E9F70DEA16E014
:1010C0000F2EF1EBEF2EF6E0FF2EF02DF8018191BF
:1010D0008F019DD65FD680E255D60E151F05B1F75C
:1010E0008AEA93E057D68091C1048823E1F31092F5
:1010F000C104809193058F3409F0CCC080E290E266
:1011000090939405809393051092C4041092C304A5
:1011100007EC14E0E12CF12CCC24C394D12C66E133
:1011200073E0C80194D7892B49F4F092C604E09289
:10113000C504D092C404C092C3040BC06DEA76E02B
:10114000C80185D7892B29F41092C4041092C304D6
:1011500087C0FFEFEF1AFF0A0B5F1F4F84E1E8160D
:10116000F104E9F68091C3049091C404892B09F439
:1011700077C08091C5049091C6049C01220F331F53
:10118000220F331F820F931F6DEA76E089539B4F26
:1011900067D78091A0049091A104843191052CF42B
:1011A00001969093A1048093A00484E190E000D67E
:1011B000BC01CE01499654D72091A0043091A104DE
:1011C00084E190E0821B930BF3D5BC01CE014596E0
:1011D00047D78EE0E3E3F1E08E010F5F1F4FD801A8
:1011E00001900D928A95E1F7FE013F9686E0DF01BE
:1011F0001D928A95E9F7BE016B5E7F4FC8011CD72F
:10120000F80101900020E9F731978FE290E0918397
:101210008083BE01675E7F4FC8010ED7F801019041
:101220000020E9F731978DE590E091838083FCD130
:101230004DE453E060E080E0E8D143E955E060E050
:1012400081E0E3D1A80160E082E0DFD182E006D94D
:1012500081E090E042DD81E090E05CDE4EDC5EC04B
:10126000E3D14DE453E060E080E0CFD143E955E0C5
:1012700062E081E0CAD146E553E060E082E0C5D19A
:1012800082E0ECD881E090E028DD81E090E042DE71
:1012900034DC44C0C9D149E653E060E080E0B5D118
:1012A00040E753E062E081E0B0D14DE753E062E017
:1012B00082E0ABD18FEF9FEF10DD83E0CFD82EC05F
:1012C000813061F507EC14E00F2EFBE2EF2EF5E024
:1012D000FF2EF02D6FEB76E0C801B9D6892BC9F44B
:1012E00085E0E6E1F3E0D80101900D928A95E1F7FF
:1012F0008091A0049091A10401979093A104809300
:10130000A00482E090E0E9DC8FEF9FEF03DE82E053
:10131000A5D80B5F1F4FE016F106E1F61092BD064F
:101320006C960FB6F894DEBF0FBECDBFDF91CF91A4
:101330001F910F91FF90EF90DF90CF900895E1DB28
:10134000C1EDD6E088EA94E040D888EA94E08CDEEB
:101350008091BB049091BC04892B71F0888599859C
:10136000AA85BB8581339547A105B10528F0C7DB68
:101370001092BC041092BB048091B3049091B40409
:10138000892B71F08C859D85AE85BF85803E9E4200
:10139000A105B10529F449D01092B4041092B30408
:1013A0008091B9049091BA04892BE1F088819981E8
:1013B000AA81BB8180319742A105B10521F480E06B
:1013C00090E0A8DDBFCF88819981AA81BB81803E52
:1013D0009E42A105B10509F0B5CF1092BA04109252
:1013E000B904B0CF8091B5049091B604892B09F46B
:1013F000A9CF88819981AA81BB8180319742A105BB
:10140000B10521F480E090E085DD9CCF8881998151
:10141000AA81BB81803E9E42A105B10509F092CF11
:101420001092B6041092B5048DCFCF93DF9300D005
:1014300000D0CDB7DEB784E089831A8284E18B8344
:1014400080E18C8344E050E0BE016F5F7F4F80916C
:1014500009014AD18111F6CF8FE39CE90197F1F799
:1014600000C000000F900F900F900F90DF91CF9170
:101470000895CF93DF9300D0CDB7DEB7807F982F4C
:101480009C60998388608A8342E050E0BE016F5F70
:101490007F4F8091090128D18111F6CF0F900F90D5
:1014A000DF91CF910895CF93DF9300D000D0CDB7D7
:1014B000DEB7982F907F292F2C60298398609A831C
:1014C00020E1829FC0011124982F9C609B8388603B
:1014D0008C8344E050E0BE016F5F7F4F8091090133
:1014E00003D18111F6CF0F900F900F900F90DF91E5
:1014F000CF910895BED02FEF89E698E1215080402A
:101500009040E1F700C000008DE893E02DD480E327
:10151000B0DF8FE19EE40197F1F700C0000080E3A7
:10152000A8DF8FE891E00197F1F700C0000080E3A9
:10153000A0DF8FE891E00197F1F700C0000080E2A2
:1015400098DF8FE891E00197F1F700C0000088E292
:10155000AADF87EC90E00197F1F700C0000088E077
:10156000A2DF87EC90E00197F1F700C0000081E076
:101570009ADF8FED9EE20197F1F700C0000086E050
:1015800092DF87EC90E00197F1F700C000008CE05B
:101590008ADF87EC90E00197F1F700C000008DEA48
:1015A00093E0E2C30895CF93DF9300D000D0CDB78E
:1015B000DEB7982F907F292F2D60298399609A8319
:1015C00020E1829FC0011124982F9D609B83896038
:1015D0008C8344E050E0BE016F5F7F4F8091090132
:1015E00083D08111F6CF0F900F900F900F90DF9165
:1015F000CF910895E82FF0E0EE0FFF1FED53FC4F61
:101600008081860F80684FCF0895CF93DF93EA01E2
:10161000F1DF8881882329F02196C5DF8991811126
:10162000FCCFDF91CF910895CF93DF9300D000D00E
:10163000CDB7DEB78CE0898388E08A838CE18B8329
:1016400088E18C8344E050E0BE016F5F7F4F809162
:1016500009014AD08111F6CF8FE39CE90197F1F798
:1016600000C000000F900F900F900F90DF91CF916E
:10167000089588E4809370000895E4E7F0E0108214
:1016800094EA908390819923ECF790917100987F70
:101690009830A1F48093730084E880937400E4E7A9
:1016A000F0E080818823ECF790917100987F983169
:1016B00039F081E0903429F480E0089581E00895C4
:1016C00080E008958093730084E880937400E4E7D9
:1016D000F0E080818823ECF790917100987F81E0A1
:1016E000983209F480E00895CF92DF92FF920F9331
:1016F0001F93CF93DF936B018A01BFDFF82E811117
:1017000017C00115110581F0E6010C0D1D1D899111
:10171000D9DF811110C08FE99FE00197F1F700C078
:1017200000000C171D0799F784E98093740005C029
:10173000FF24F39402C0FF24F3948F2DDF91CF9107
:101740001F910F91FF90DF90CF9008951F93CF933B
:10175000DF93162F95B3C1E0D0E002C0CC0FDD1FA0
:101760004A95E2F72C2F2095922395BB880F8E7710
:10177000A3D2812FA1D285B3C82BC5BBDF91CF9156
:101780001F910895CF93DF9395B3C1E0D0E002C0DD
:10179000CC0FDD1F6A95E2F72C2F2095922395BB85
:1017A000880F8E77806888D28BD295B3C92BC5BB42
:1017B000DF91CF9108952F923F924F925F926F9257
:1017C0007F928F929F92AF92BF92CF92DF92EF92D1
:1017D000FF920F931F93CF93DF93F82EA62EB72E71
:1017E000442E222ED32E8CE0F81659F0EEE0FE1295
:1017F00011C06894CC24C4F80F2EF2E13F2EF02DD6
:101800000BC00F2EF0E3CF2EF02D0F2EF7E73F2E5B
:10181000F02D02C0C12C312C4E2D632D606882E06A
:1018200095DF6E2D84E0AEDF682F6F774E2D84E05C
:101830008DDF6E2D8AE0A6DF682F60684E2D8AE06E
:1018400085DF4E2D60E081E081DF512C612C712C11
:10185000411451046104710499F0CA2DDB2D812CCF
:10186000912C540169914E2D89E070DFFFEF8F1AA2
:101870009F0AAF0ABF0A84149504A604B70490F324
:101880004E2D6F2D81E062DF8CE0F81208C06E2DC6
:101890008DE078DF682F60684E2D8DE057DF6E2D6C
:1018A00084E070DFB82EC0E0D0E0EC2DE160CE2EF9
:1018B0000AC06E2D84E066DFB82E2196CF3CF7E09B
:1018C000DF0709F468C08C2D8B2199F36EC0832D3E
:1018D0008170B82211F0C2E001C0C1E08CE0F812C2
:1018E00073C06E2D8AE04EDF882E6E2D8CE04ADFAD
:1018F000282F2770A9F0882D90E00197880F991F55
:10190000880F991F880F991F820F911D092E000CB7
:10191000AA0BBB0BF80180839183A283B38311C010
:10192000882D90E0880F991F880F991F880F991FA5
:10193000092E000CAA0BBB0BF80180839183A283B4
:10194000B383882071F0882D813108F080E1882EE2
:10195000912CA12CB12C81149104A104B10429F47F
:1019600033C0812C912C54018394022D1D2D412CC8
:10197000512C32016E2D89E005DFF80181938F0132
:10198000FFEF4F1A5F0A6F0A7F0A481459046A046E
:101990007B0480F319C06E2D8DE0F4DE682F6F7725
:1019A0004E2D8DE0D3DEC3E00FC06E2D8DE0EADE5C
:1019B000682F6F774E2D8DE0C9DE6E2D86E0E2DE5A
:1019C0008B7109F484CFC3E08C2FDF91CF911F91ED
:1019D0000F91FF90EF90DF90CF90BF90AF909F90CE
:1019E0008F907F906F905F904F903F902F900895D1
:1019F000CF93C82F1F921F921F9281E08F9383E095
:101A00008F9317D184B3836084BB15BA2FEF89EF0E
:101A100090E0215080409040E1F700C0000085B385
:101A2000836085BB4C2F6FE081E090DE4C2F6DE82A
:101A30008AE28CDE4C2F6EE38BE288DE4C2F6EE167
:101A40008CE284DE4C2F60E08DE280DE4C2F60E47F
:101A500085E17CDE4C2F6DE381E178DE6C2F84E143
:101A600091DE982F93700F900F900F900F900F9022
:101A700029F4682F63604C2F84E168DECF910895CC
:101A8000CF93DF93D82F682F87E37CDEC82F2FEF0B
:101A900089EF90E0215080409040E1F700C00000C5
:101AA000D11106C08BEC93E05FD1C23959F50FC05C
:101AB00087ED93E059D1C23991F512C083EE93E0DE
:101AC00053D146EF53E060E082E09FDDFFCF8AE034
:101AD00094E04AD14EE254E060E082E096DD23C01B
:101AE0008AE094E041D143E454E060E082E08DDD9F
:101AF0001AC088E594E038D14EE254E060E082E01C
:101B000084DD11C0C059C230C8F6F3CF88E594E037
:101B10002BD143E454E060E082E077DD04C0C0599B
:101B2000C23060F6F3CFDF91CF910895CF93C82FE5
:101B3000682F82E027DE682F60624C2F82E006DE8D
:101B40006C2F83E01FDE682F60684C2F83E0FEDD82
:101B5000CF910895CF92DF92EF920F931F93CF937F
:101B6000DF9300D000D0CDB7DEB7182F6B01E42E85
:101B700067E08DE0EBDDF60110838E010F5F1F4FF4
:101B8000960141E0B6018CE016DE813059F44981BE
:101B90005A816B817C81403151056105710519F0D5
:101BA00083E001C083E00F900F900F900F90DF91C2
:101BB000CF911F910F91EF90DF90CF900895CF922A
:101BC000DF92EF920F931F93CF93DF9300D000D05B
:101BD000CDB7DEB76C01E62E462F60E08DE0B6DDB6
:101BE00083E9F601808380E281838E010F5F1F4FBE
:101BF000960142E0B6018CE0DEDD813071F4F60141
:101C0000A6014C5F5F4F90E0219192274E175F072E
:101C1000D9F7F6012481921383E00F900F900F9073
:101C20000F90DF91CF911F910F91EF90DF90CF90A8
:101C30000895CF93DF9300D01F92CDB7DEB788858C
:101C4000833021F1811132C029C09C911296919369
:101C5000E217F307D1F79B81923020F11B821DB868
:101C6000833071F4C09A87B3876087BB99818A817A
:101C7000892B80652EB19B81922B9EB98DB916C0A0
:101C8000811114C0BB9A80E48DB910C0DE01199691
:101C9000FE0131969E012C5F3F4FD7CF9B81923042
:101CA000E8F602C01DB8DECF1DB8ECCF0F900F9044
:101CB0000F90DF91CF9108958FB9779BFECF089554
:101CC0001FB8779BFECF8FB10895BC9A8CE083BF7D
:101CD0008AEF81BF87B7826087BF0895139A80E437
:101CE00080938B008AE180938A0010928900109281
:101CF00088001092810010928000089590938100D6
:101D0000809380000895CF93DF93EC019B0140E026
:101D100050E060E472E48FE090E04FD1215031094F
:101D2000209759F410983093900029B988E18AB926
:101D3000579A86E08093950010C0219771F43093F4
:101D4000980020939900EAE9F0E088E1808380819F
:101D50008068808386E080939D00DF91CF91089515
:101D60005D9BFECF8CB90895CF93DF93EC01888102
:101D7000882329F02196F4DF89918111FCCFDF912E
:101D8000CF910895EBE9F0E0908195FFFDCF80932E
:101D90009C000895CF93DF93EC018881882329F07C
:101DA0002196F0DF89918111FCCFDF91CF910895C9
:101DB0000F931F93CF93DF93CDB7DEB764970FB622
:101DC000F894DEBF0FBECDBF9F938F938CE794E056
:101DD0009F938F938E010F5F1F4F1F930F934FD1D0
:101DE000B8018DE296E03CD10F900F900F900F90CC
:101DF0000F900F908DE296E064960FB6F894DEBFD8
:101E00000FBECDBFDF91CF911F910F9108950F931A
:101E10001F93CF93DF93CDB7DEB764970FB6F894D7
:101E2000DEBF0FBECDBF1F928F9381E894E09F93DA
:101E30008F938E010F5F1F4F1F930F9320D1B80117
:101E40008DE296E00DD10F900F900F900F900F90B4
:101E50000F908DE296E064960FB6F894DEBF0FBE49
:101E6000CDBFDF91CF911F910F910895CF92DF9257
:101E7000EF92FF920F931F93CF93DF93CDB7DEB70F
:101E8000C054D1090FB6F894DEBF0FBECDBF6B01B1
:101E90007A0120E4EDE6F6E0DF011D922A95E9F7EC
:101EA000BC018E010F5F1F4FC801DAD0B601C80117
:101EB000C3D0F80101900020E9F7319782E29CE25B
:101EC0009183808382E290E093838283B701C8018B
:101ED000B3D0F80101900020E9F7319782E29DE04C
:101EE000918380838AE090E093838283B8018DE6BA
:101EF00096E0B6D08DE696E0C05CDF4F0FB6F89462
:101F0000DEBF0FBECDBFDF91CF911F910F91FF902C
:101F1000EF90DF90CF900895EF92FF920F931F9371
:101F2000CF93DF93CDB7DEB7C054D1090FB6F89485
:101F3000DEBF0FBECDBF9C017B0180E4EDE6F6E085
:101F4000DF011D928A95E9F794E1E6E8F4E08E015D
:101F50000F5F1F4FD80101900D929A95E1F7B901DB
:101F6000C8016AD0F80101900020E9F7319782E2B8
:101F70009CE2918380831282B701C8015DD0F80191
:101F800001900020E9F731978DE09AE091838083FA
:101F90001282B8018DE696E063D08DE696E0C05CD3
:101FA000DF4F0FB6F894DEBF0FBECDBFDF91CF91EC
:101FB0001F910F91FF90EF900895A1E21A2EAA1B96
:101FC000BB1BFD010DC0AA1FBB1FEE1FFF1FA217E9
:101FD000B307E407F50720F0A21BB30BE40BF50BE6
:101FE000661F771F881F991F1A9469F7609570956F
:101FF000809590959B01AC01BD01CF010895FC0136
:1020000088279927E89421912032E9F3293010F0AC
:102010002E30C8F32B3239F02D3231F4689403C0DE
:1020200026D0820F911D219120532A30C8F31EF42F
:10203000909581959F4F0895FB01DC010D90002044
:10204000E9F7119701900D920020E1F70895FB0147
:10205000DC018D91019080190110D9F3990B08953D
:10206000FB01DC0101900D920020E1F708957AE078
:10207000979F902D879F802D910D112408950F9388
:102080001F93CF93DF93CDB7DEB72E970FB6F8949B
:10209000DEBF0FBECDBF0D891E8986E08C831A83FB
:1020A00009838FEF9FE79E838D83AE01475E5F4F6D
:1020B0006F89788DCE01019610D0EF81F885E00F01
:1020C000F11F10822E960FB6F894DEBF0FBECDBF63
:1020D000DF91CF911F910F9108952F923F924F92D0
:1020E0005F926F927F928F929F92AF92BF92CF92A8
:1020F000DF92EF92FF920F931F93CF93DF93CDB7B1
:10210000DEB72B970FB6F894DEBF0FBECDBF6C01C4
:102110007B018A01FC0117821682838181FFBFC186
:10212000CE0101963C01F6019381F70193FD859163
:1021300093FF81917F01882309F4ADC1853239F481
:1021400093FD859193FF81917F01853221F4B60142
:1021500090E0D6D1E8CF912C212C312CFFE1F31562
:10216000D8F08B3279F038F4803279F08332A1F4F0
:10217000232D20611DC08D3261F0803369F4232D41
:10218000216016C0832D8260382EE32DE4603E2E40
:102190002AC0F32DF8601DC037FC2DC020ED280F9C
:1021A0002A3040F08E32B9F436FC75C1232D2064FC
:1021B000322E19C036FE06C08AE0989E200D1124EA
:1021C000922E11C0EAE02E9E200D1124222EF32D16
:1021D000F0623F2E08C08C3621F4832D8068382EA3
:1021E00002C0883641F4F70193FD859193FF8191F8
:1021F0007F018111B3CF982F9F7D9554933028F4A0
:102200000C5F1F4F9FE399830DC0833631F08337F6
:1022100071F0833509F055C020C0F80180818983B1
:102220000E5F1F4F88248394912C530112C0280104
:10223000F2E04F0E511CF801A080B18036FE03C0C1
:10224000692D70E002C06FEF7FEFC5014ED14C01E8
:102250008201F32DFF773F2E15C0280122E0420EA8
:10226000511CF801A080B18036FE03C0692D70E0DA
:1022700002C06FEF7FEFC5012DD14C01F32DF06847
:102280003F2E820133FC19C0822D90E088169906FA
:10229000A0F4B60180E290E033D12A94F5CFF501A5
:1022A00037FC859137FE81915F01B60190E028D11E
:1022B00021102A9421E0821A91088114910479F75F
:1022C000E1C0843611F0893639F5F80137FE07C0D0
:1022D00060817181828193810C5F1F4F08C0608192
:1022E0007181072E000C880B990B0E5F1F4FF32D89
:1022F000FF763F2E97FF09C0909580957095619568
:102300007F4F8F4F9F4FF0683F2E2AE030E0A301B0
:1023100033D1882E861844C0853731F4232D2F7E83
:10232000B22E2AE030E025C0932D997FB92E8F364A
:10233000C1F018F4883579F0AEC0803719F08837CD
:1023400021F0A9C0E92FE061BE2EB4FE0DC0FB2D27
:10235000F460BF2E09C034FE0AC0292F2660B22EB9
:1023600006C028E030E005C020E130E002C020E1F6
:1023700032E0F801B7FE07C06081718182819381EC
:102380000C5F1F4F06C06081718180E090E00E5F9E
:102390001F4FA301F1D0882E8618FB2DFF773F2E0B
:1023A00036FE0DC0232D2E7FA22E891458F434FE44
:1023B0000BC032FC09C0832D8E7EA82E05C0B82C20
:1023C000A32C03C0B82C01C0B92CA4FE0FC0FE0181
:1023D000E80DF11D8081803321F49A2D997EA92E7C
:1023E00009C0A2FE06C0B394B39404C08A2D8678B7
:1023F00009F0B394A3FC10C0A0FE06C0B21480F490
:10240000280C922C9B180DC0B21458F4B60180E22F
:1024100090E076D0B394F8CFB21418F42B1802C021
:10242000982C212CA4FE0FC0B60180E390E068D068
:10243000A2FE16C0A1FC03C088E790E002C088E5B8
:1024400090E0B6010CC08A2D867851F0A1FE02C042
:102450008BE201C080E2A7FC8DE2B60190E050D093
:10246000891430F4B60180E390E04AD09A94F8CF12
:102470008A94F301E80DF11D8081B60190E040D00F
:102480008110F6CF222009F44ECEB60180E290E012
:1024900037D02A94F7CFF6018681978102C08FEF5B
:1024A0009FEF2B960FB6F894DEBF0FBECDBFDF9126
:1024B000CF911F910F91FF90EF90DF90CF90BF9041
:1024C000AF909F908F907F906F905F904F903F90D4
:1024D0002F900895FC010590615070400110D8F7CD
:1024E000809590958E0F9F1F0895FC01615070405C
:1024F00001900110D8F7809590958E0F9F1F089539
:102500000F931F93CF93DF93FB01238121FD03C022
:102510008FEF9FEF2CC022FF16C046815781248188
:1025200035814217530744F4A081B1819D012F5F8B
:102530003F4F318320838C93268137812F5F3F4F1C
:102540003783268314C08B01EC01FB010084F185E5
:10255000E02D0995892BE1F6D80116968D919C9175
:102560001797019617969C938E931697CE01DF913D
:10257000CF911F910F910895FA01AA27283051F1A8
:10258000203181F1E8946F936E7F6E5F7F4F8F4FA4
:102590009F4FAF4FB1E03ED0B4E03CD0670F781F03
:1025A000891F9A1FA11D680F791F8A1F911DA11DE8
:1025B0006A0F711D811D911DA11D20D009F4689421
:1025C0003F912AE0269F11243019305D3193DEF6C9
:1025D000CF010895462F4770405D4193B3E00FD07F
:1025E000C9F7F6CF462F4F70405D4A3318F0495D6A
:1025F00031FD4052419302D0A9F7EACFB4E0A6954D
:102600009795879577956795BA95C9F7009761056E
:10261000710508959B01AC010A2E069457954795C4
:1026200037952795BA95C9F7620F731F841F951FB9
:08263000A01D0895F894FFCFEE
:1026380009010005060A0958584E45525220436FB1
:1026480064653A000000000000000000000000205F
:102658004669726D776172652056657220000000C8
:10266800000000456D7074792053706163653D5BAF
:102678000000000000000020202020204F4F4F4F76
:102688004F4F4F4F4F4F2020202020000A096173E1
:102698006369693A20000A096465633A20000A09F7
:1026A8006865783A2000496E697469616C206572C2
:1026B800722E00506C7A2C20547279696E672072E1
:1026C800657365742E0041542B5253540D0A004112
:1026D800542B5253540020202020204F4F4F5F5F2F
:1026E8005F5F5F5F5F20202020200041542B474D13
:1026F800520D0A0041542B474D520041542B435769
:102708004D4F44453D310D0A0041542B43574D4F21
:1027180044450020202020204F4F4F4F5F5F5F5FD0
:102728005F5F20202020200041542B43574D4F4409
:10273800453F0D0A0041542B43574D4F44453F0038
:1027480041542B43574C41500D0A0041542B4357D9
:102758004C41500020202020204F4F4F4F4F5F5FAB
:102768005F5F5F20202020200041542B43574A41BF
:10277800503D220041542B43574A4150002020200D
:1027880020204F4F4F4F4F4F5F5F5F5F202020202B
:10279800200041542B43494653520D0A0041542B03
:1027A80043494653520020202020204F4F4F4F4F7F
:1027B8004F4F5F5F5F20202020200041542B43496A
:1027C8005053544152540020202020204F4F4F4F47
:1027D8004F4F4F4F5F5F20202020200020202020D7
:1027E800204F4F4F4F4F4F4F4F4F5F2020202020FB
:1027F800003D3D3D3D3D3D3D3D3D3D3D3D3D3D3D3E
:102808003D3D3D3D3D00202053595354454D204208
:102818004F4F54494E472E2E2E0020202020205F57
:102828005F5F5F5F5F5F5F5F5F2020202020003277
:1028380033003137322E32302E31302E3300687764
:10284800687768776877303030300043686F694858
:102858005700312E3930760020205061726B696E36
:10286800672053797374656D202020200041542B14
:1028780043495053454E443D31310D0A0057656C6C
:10288800636F6D652C00416C7265616479205265D7
:10289800636F676E697A656400536F7272792C0092
:1028A800546869732063617264206973006E6F7481
:1028B80020726567697374657265642E0042656687
:1028C8006F726520693263206C636420496E697495
:1028D80069616C697A652E2E2E200D0A00693263B3
:1028E80020434C434420436F6E6E656374204F6BE6
:1028F8000D0A0000004000140054000A5B63686180
:102908006E6E656C2030000A5B6368616E6E656C84
:10291800203100204E6F2072656164657220666FF9
:10292800756E645D0A004572726F722C20506C7A65
:102938002043484B2052464944002044657465634F
:102948007465642056657273696F6E5D3A204D49EF
:102958004641524520524335323276320A00202011
:102968002020204F5F5F5F5F5F5F5F5F5F202020F9
:1029780020200020202020204F4F5F5F5F5F5F5F97
:102988005F5F202020202000204465746563746503
:10299800642056657273696F6E5D3A204D494641F1
:1029A800524520524335323276310A00253032649E
:1029B80000253032580041542B434950535441525A
:0A29C800543D22544350222C2200FB
:00000001FF
