:1000000045C0000061C000005FC000005DC000008E
:100010005BC0000059C0000057C0000055C0000080
:1000200053C0000051C000004FC000004DC0000090
:100030004BC0000049C0000047C000003CC20000A7
:1000400043C0000041C000003FC000003DC00000B0
:10005000C7C4000039C0000037C0000035C0000030
:1000600033C0000031C000002FC000002DC00000D0
:100070002BC0000029C0000028C0000025C00000DF
:1000800023C0000021C000001FC0000011241FBEBB
:10009000CFEFD0E1DEBFCDBF11E0A0E0B1E0E8EEF0
:1000A000F2E100E00BBF02C007900D92AA3DB1073C
:1000B000D9F723E0AAEDB1E001C01D92AA30B20742
:1000C000E1F7C9D00C9472099BCF1F920F920FB623
:1000D0000F9211240BB60F922F933F934F935F9380
:1000E0006F937F938F939F93AF93BF93EF93FF9300
:1000F00080919C00C8D4FF91EF91BF91AF919F91E7
:100100008F917F916F915F914F913F912F910F90C0
:100110000BBE0F900FBE0F901F9018950F931F935B
:10012000CF93DF938130910591F082309105F1F00A
:10013000892B49F582E391E0AAD4C2EFD2E006EF21
:1001400012E08991A0D40C171D07D9F71CC08CE3CD
:1001500091E09DD4C2EFD2E006EF12E0899190E0E9
:10016000D9D495D4C017D107C9F70DC084E491E064
:100170008ED4C2EFD2E006EF12E08991FAD487D490
:10018000C017D107D1F7DF91CF911F910F9108953B
:10019000813069F018F08230B9F022C01092DB0192
:1001A0001092DC011092DD011092DE0119C081E095
:1001B00090E0A0E0B0E08093DB019093DC01A0939D
:1001C000DD01B093DE010CC082E090E0A0E0B0E081
:1001D0008093DB019093DC01A093DD01B093DE01FD
:1001E000109206031092070310920803109209035D
:1001F000089562EF72E082E504D38093F1028130CA
:1002000031F58091DA01811122C081E08093DA0119
:1002100082EF92E028D38093F102813089F4B8DF35
:100220008CE491E034D480E090E078DF81E090E0ED
:1002300075DF82E090E072DF8AE025D481E00895E6
:1002400082E0A6DF8AE591E022D48FEF0895109234
:10025000DA0180E0089578948AB383608ABB1F92A4
:100260001F921F9281E08F9383E08F9332D372D1DC
:1002700060E875E280E090E0DAD360E875E281E062
:1002800090E0D5D386D182E05DD18093F102682FD2
:10029000606282E048D183E055D18093F102682FFB
:1002A000606883E040D1F89481E072DF5ED366D36A
:1002B00078942FEF87EA91E6215080409040E1F753
:1002C00000C000000F900F900F900F900F90C1E0B2
:1002D00082E05EDF2FEF83ED90E32150804090407D
:1002E000E1F700C000008BB38C278BBB62E671E0A6
:1002F0008DE691E06DD4E1D38BB38C278BBB79DF96
:10030000E7CFEBE8F0E080818F7B80831092DB0108
:100310001092DC011092DD011092DE010895009729
:1003200039F0EBE8F0E020812064208337C30895A2
:10033000EBE8F0E080818F7B808308958091DB0182
:100340009091DC01A091DD01B091DE018130910539
:10035000A105B10549F030F00297A105B10509F4F6
:1003600068C00895CECF0895809106039091070349
:10037000A0910803B0910903883C9105A105B1053E
:1003800020F48BE996E0CBCF0895809106039091FD
:100390000703A0910803B0910903823D9105A105CF
:1003A000B10521F480E090E0BACF08958091060372
:1003B00090910703A0910803B09109038C3D91052A
:1003C000A105B10521F487EE95E0A9CF08958091AC
:1003D000060390910703A0910803B09109038039A7
:1003E0009140A105B10521F480E090E098CF0895F7
:1003F0008091060390910703A0910803B09109032F
:100400008E3A9140A105B10521F485E694E087CFAD
:1004100008958091060390910703A0910803B0917D
:10042000090388359240A105B10509F043C069CFA1
:1004300008958091060390910703A0910803B0915D
:10044000090384369105A105B10520F482E194E009
:1004500066CF08958091060390910703A091080349
:10046000B0910903883C9105A105B10520F480E015
:1004700090E055CF08958091060390910703A091D5
:100480000803B09109038C329140A105B10520F415
:1004900082E194E044CF0895809106039091070390
:1004A000A0910803B0910903823C9140A105B105D8
:1004B00009F427CF08951F920F920FB60F921124BF
:1004C0000BB60F922F933F934F935F936F937F934E
:1004D0008F939F93AF93BF93EF93FF939BB382E070
:1004E00089278BBBE2E0F3E084819581A681B78107
:1004F0000196A11DB11D84839583A683B7831EDF5A
:10050000FF91EF91BF91AF919F918F917F916F91EB
:100510005F914F913F912F910F900BBE0F900FBEA7
:100520000F901F901895CF93C62FA898880F8E779D
:1005300013D28C2F11D2A89ACF9108956FE081E049
:10054000F2CF0895A898880F8E77806805D208D2D8
:10055000A89A0895A09AA89AF1DF6DE88AE2E3DFED
:100560006EE38BE2E0DF6EE18CE2DDDF60E08DE2E6
:10057000DADF60E485E1D7DF6DE381E1D4DF84E198
:10058000E1DF982F937021F4682F636084E1CBCF73
:100590000895CF9387E3D6DFC82F90E0BBD29BD2DC
:1005A0002FEF89EF90E0215080409040E1F700C0AC
:1005B0000000C23921F484E791E069D20AC0C05931
:1005C000C23020F489E991E062D203C08EEB91E061
:1005D0005ED2CF9108953F924F925F926F927F9239
:1005E0008F929F92AF92BF92CF92DF92EF92FF9243
:1005F0000F931F93CF93DF93982EF62EE72E442E62
:10060000822E332E58018CE0981609F4BAC0EEE021
:100610009E1203C010E102E102C010E000E084E09D
:1006200091DF682F6F7784E07EDF8AE08BDF682FB1
:1006300060688AE078DF60E081E075DF512C612C32
:10064000712C411451046104710419F414C010E3B5
:1006500007E7CF2DDE2DC12CD12C7601699189E0E1
:1006600062DFFFEFCF1ADF0AEF0AFF0AC414D504D6
:10067000E604F70498F3692D81E055DF8CE09812C9
:1006800006C08DE05FDF682F60688DE04CDF84E09E
:1006900059DFF82EC0E0D0E0116009C084E052DFDD
:1006A000F82E2196CF3CE7E0DE0709F483C0812FC6
:1006B0008F21A1F387C00170F02211F0C2E001C0C8
:1006C000C1E0FCE09F128AC08AE03CDF482E8CE04B
:1006D00039DF282F2770A9F0842D90E00197880F2B
:1006E000991F880F991F880F991F820F911D092E3E
:1006F000000CAA0BBB0BF50180839183A283B3830B
:1007000011C0842D90E0880F991F880F991F880FC2
:10071000991F092E000CAA0BBB0BF5018083918356
:10072000A283B383442071F0842D813108F080E1ED
:10073000482E512C612C712C411451046104710418
:1007400029F44CC0412C512C32014394082D132D17
:10075000C12CD12C760189E0F5DEF80181938F015F
:10076000FFEFCF1ADF0AEF0AFF0AC414D504E6042C
:10077000F70488F333C06CE081E0D5DE10E307E7CF
:1007800080CF84E0DFDE682F6F7784E0CCDE8AE004
:10079000D9DE682F60688AE0C6DE60E081E0C3DEF3
:1007A000512C612C712C411451046104710409F025
:1007B0004ECFE1CF8DE0C6DE682F6F778DE0B3DEE0
:1007C000C3E00CC08DE0BEDE682F6F778DE0ABDE3E
:1007D00086E0B8DE8B7109F46ECFC3E08C2FDF9119
:1007E000CF911F910F91FF90EF90DF90CF90BF902E
:1007F000AF909F908F907F906F905F904F903F90C1
:100800000895EF92FF920F931F93CF93DF9300D041
:1008100000D0CDB7DEB7182F7B0167E08DE083DE17
:10082000F70110838E010F5F1F4F970141E0B70161
:100830008CE0D1DE813059F449815A816B817C8111
:10084000403151056105710519F083E001C083E075
:100850000F900F900F900F90DF91CF911F910F91FC
:10086000FF90EF900895EF92FF920F931F93CF9315
:10087000DF9300D000D0CDB7DEB77C0160E08DE023
:1008800052DE83E9F701808380E281838E010F5F6E
:100890001F4F970142E0B7018CE09DDE813071F47B
:1008A000F701A7014C5F5F4F90E0219192274E170F
:1008B0005F07D9F7F7012481921383E00F900F901F
:1008C0000F900F90DF91CF911F910F91FF90EF90BC
:1008D0000895CF93DF9300D01F92CDB7DEB7888500
:1008E000833021F1811132C029C09C9112969193DD
:1008F000E217F307D1F79B81923020F11B821DB8DC
:10090000833071F4C09A87B3876087BB99818A81ED
:10091000892B80652EB19B81922B9EB98DB916C013
:10092000811114C0BB9A80E48DB910C0DE01199604
:10093000FE0131969E012C5F3F4FD7CF9B819230B5
:10094000E8F602C01DB8DECF1DB8ECCF0F900F90B7
:100950000F90DF91CF9108958FB9779BFECF0895C7
:100960001FB8779BFECF8FB10895BC9A8CE083BFF0
:100970008AEF81BF87B7826087BF0895139A80E4AA
:1009800080938B008AE180938A00109289001092F4
:100990008800109281001092800008959093810049
:1009A000809380000895E0914302F0E0E152FE4F11
:1009B0008081811109C0569884E6EFEDF1E0DF01F6
:1009C0001D928A95E9F70895A3E4B2E0EC9181E0E5
:1009D0008E0F8C93F0E0E152FE4F80818CB9089528
:1009E0001F920F920FB60F9211240BB60F922F93F6
:1009F0003F934F935F936F937F938F939F93AF93A7
:100A0000BF93EF93FF93CFDFFF91EF91BF91AF9132
:100A10009F918F917F916F915F914F913F912F9116
:100A20000F900BBE0F900FBE0F901F901895CF9395
:100A3000DF93EC019B0140E050E060E472E48FE062
:100A400090E032D121503109209751F41098309321
:100A5000900029B988E08AB986E08093950010C09B
:100A6000219771F43093980020939900EAE9F0E01F
:100A700088E0808380818068808386E080939D0009
:100A8000DF91CF9108955D9BFECF8CB90895CF93F0
:100A9000DF93EC018881882329F02196F4DF899186
:100AA0008111FCCFDF91CF910895EBE9F0E09081C7
:100AB00095FFFDCF80939C000895CF93DF93EC01C9
:100AC0008881882329F02196F0DF89918111FCCF5C
:100AD000DF91CF910895CF93DF93FC010190002027
:100AE000E9F73197EF01C81BD90BAE01BC018FEDBF
:100AF00091E00ED15D9BFECF8091DF018CB981E04A
:100B000080934302EC2FEF5FE0934402569ADF910B
:100B1000CF9108950F931F93CF93DF93CDB7DEB797
:100B200064970FB6F894DEBF0FBECDBF9F938F932F
:100B300080ED91E09F938F938E010F5F1F4F1F9366
:100B40000F93F5D0B8018BEA92E0DBD00F900F90B5
:100B50000F900F900F900F908BEA92E064960FB673
:100B6000F894DEBF0FBECDBFDF91CF911F910F91E3
:100B700008950F931F93CF93DF93CDB7DEB764979C
:100B80000FB6F894DEBF0FBECDBF1F928F9384EDDA
:100B900091E09F938F938E010F5F1F4F1F930F93D1
:100BA000C6D0B8018BEA92E0ACD00F900F900F90B6
:100BB0000F900F900F908BEA92E064960FB6F89426
:100BC000DEBF0FBECDBFDF91CF911F910F91089572
:100BD000CF92DF92EF92FF920F931F93CF93DF9309
:100BE000CDB7DEB7E2970FB6F894DEBF0FBECDBF2C
:100BF0009C016B019BE0E0E0F1E08E010F5F1F4F75
:100C0000D80101900D929A95E1F7FE013C9687E29A
:100C1000DF011D928A95E9F7B901C80167D0F80193
:100C200001900020E9F731970F2EF2E2EF2EF12C20
:100C3000F02DF182E082F80101900020E9F7319770
:100C40008CE290E091838083F80101900020E9F725
:100C50003197F182E082B601C80148D0F8010190D5
:100C60000020E9F73197F182E082F801019000203D
:100C7000E9F731978DE09AE0918380831282B80181
:100C80008FEB92E03ED08FEB92E0E2960FB6F894B5
:100C9000DEBF0FBECDBFDF91CF911F910F91FF90AF
:100CA000EF90DF90CF900895A1E21A2EAA1BBB1BF4
:100CB000FD010DC0AA1FBB1FEE1FFF1FA217B30728
:100CC000E407F50720F0A21BB30BE40BF50B661F3E
:100CD000771F881F991F1A9469F760957095809502
:100CE00090959B01AC01BD01CF010895FB01DC0192
:100CF0000D900020E9F7119701900D920020E1F787
:100D00000895FB01DC0101900D920020E1F70895A8
:100D1000FB01DC014150504048F001900D92002051
:100D2000C9F701C01D9241505040E0F708950F935C
:100D30001F93CF93DF93CDB7DEB72E970FB6F894FE
:100D4000DEBF0FBECDBF0D891E8986E08C831A835E
:100D500009838FEF9FE79E838D83AE01475E5F4FD0
:100D60006F89788DCE01019610D0EF81F885E00F64
:100D7000F11F10822E960FB6F894DEBF0FBECDBFC6
:100D8000DF91CF911F910F9108952F923F924F9233
:100D90005F926F927F928F929F92AF92BF92CF920B
:100DA000DF92EF92FF920F931F93CF93DF93CDB714
:100DB000DEB72B970FB6F894DEBF0FBECDBF6C0128
:100DC0007B018A01FC0117821682838181FFBFC1EA
:100DD000CE0101963C01F6019381F70193FD8591C7
:100DE00093FF81917F01882309F4ADC1853239F4E5
:100DF00093FD859193FF81917F01853221F4B601A6
:100E000090E0D6D1E8CF912C212C312CFFE1F315C5
:100E1000D8F08B3279F038F4803279F08332A1F453
:100E2000232D20611DC08D3261F0803369F4232DA4
:100E3000216016C0832D8260382EE32DE4603E2EA3
:100E40002AC0F32DF8601DC037FC2DC020ED280FFF
:100E50002A3040F08E32B9F436FC75C1232D20645F
:100E6000322E19C036FE06C08AE0989E200D11244D
:100E7000922E11C0EAE02E9E200D1124222EF32D79
:100E8000F0623F2E08C08C3621F4832D8068382E06
:100E900002C0883641F4F70193FD859193FF81915B
:100EA0007F018111B3CF982F9F7D9554933028F403
:100EB0000C5F1F4F9FE399830DC0833631F083375A
:100EC00071F0833509F055C020C0F8018081898315
:100ED0000E5F1F4F88248394912C530112C0280168
:100EE000F2E04F0E511CF801A080B18036FE03C025
:100EF000692D70E002C06FEF7FEFC5014ED14C014C
:100F00008201F32DFF773F2E15C0280122E0420E0B
:100F1000511CF801A080B18036FE03C0692D70E03D
:100F200002C06FEF7FEFC5012DD14C01F32DF068AA
:100F30003F2E820133FC19C0822D90E0881699065D
:100F4000A0F4B60180E290E033D12A94F5CFF50108
:100F500037FC859137FE81915F01B60190E028D181
:100F600021102A9421E0821A91088114910479F7C2
:100F7000E1C0843611F0893639F5F80137FE07C033
:100F800060817181828193810C5F1F4F08C06081F5
:100F90007181072E000C880B990B0E5F1F4FF32DEC
:100FA000FF763F2E97FF09C09095809570956195CB
:100FB0007F4F8F4F9F4FF0683F2E2AE030E0A30114
:100FC00033D1882E861844C0853731F4232D2F7EE7
:100FD000B22E2AE030E025C0932D997FB92E8F36AE
:100FE000C1F018F4883579F0AEC0803719F0883731
:100FF00021F0A9C0E92FE061BE2EB4FE0DC0FB2D8B
:10100000F460BF2E09C034FE0AC0292F2660B22E1C
:1010100006C028E030E005C020E130E002C020E159
:1010200032E0F801B7FE07C060817181828193814F
:101030000C5F1F4F06C06081718180E090E00E5F01
:101040001F4FA301F1D0882E8618FB2DFF773F2E6E
:1010500036FE0DC0232D2E7FA22E891458F434FEA7
:101060000BC032FC09C0832D8E7EA82E05C0B82C83
:10107000A32C03C0B82C01C0B92CA4FE0FC0FE01E4
:10108000E80DF11D8081803321F49A2D997EA92EDF
:1010900009C0A2FE06C0B394B39404C08A2D86781A
:1010A00009F0B394A3FC10C0A0FE06C0B21480F4F3
:1010B000280C922C9B180DC0B21458F4B60180E293
:1010C00090E076D0B394F8CFB21418F42B1802C085
:1010D000982C212CA4FE0FC0B60180E390E068D0CC
:1010E000A2FE16C0A1FC03C088E790E002C088E51C
:1010F00090E0B6010CC08A2D867851F0A1FE02C0A6
:101100008BE201C080E2A7FC8DE2B60190E050D0F6
:10111000891430F4B60180E390E04AD09A94F8CF75
:101120008A94F301E80DF11D8081B60190E040D072
:101130008110F6CF222009F44ECEB60180E290E075
:1011400037D02A94F7CFF6018681978102C08FEFBE
:101150009FEF2B960FB6F894DEBF0FBECDBFDF9189
:10116000CF911F910F91FF90EF90DF90CF90BF90A4
:10117000AF909F908F907F906F905F904F903F9037
:101180002F900895FC010590615070400110D8F730
:10119000809590958E0F9F1F0895FC0161507040BF
:1011A00001900110D8F7809590958E0F9F1F08959C
:1011B0000F931F93CF93DF93FB01238121FD03C086
:1011C0008FEF9FEF2CC022FF16C0468157812481EC
:1011D00035814217530744F4A081B1819D012F5FEF
:1011E0003F4F318320838C93268137812F5F3F4F80
:1011F0003783268314C08B01EC01FB010084F18549
:10120000E02D0995892BE1F6D80116968D919C91D8
:101210001797019617969C938E931697CE01DF91A0
:10122000CF911F910F910895FA01AA27283051F10B
:10123000203181F1E8946F936E7F6E5F7F4F8F4F07
:101240009F4FAF4FB1E03ED0B4E03CD0670F781F66
:10125000891F9A1FA11D680F791F8A1F911DA11D4B
:101260006A0F711D811D911DA11D20D009F4689484
:101270003F912AE0269F11243019305D3193DEF62C
:10128000CF010895462F4770405D4193B3E00FD0E2
:10129000C9F7F6CF462F4F70405D4A3318F0495DCD
:1012A00031FD4052419302D0A9F7EACFB4E0A695B0
:1012B0009795879577956795BA95C9F700976105D2
:1012C000710508959B01AC010A2E06945795479528
:1012D00037952795BA95C9F7620F731F841F951F1D
:0812E000A01D0895F894FFCF52
:1012E80041542B43574A41503D2200000000000062
:1012F80000000000000000000000000000000000E6
:1013080000000000000000000000000000000000D5
:1013180000000A0961736369693A20000A09646573
:10132800633A20000A096865783A20005B4348451B
:10133800434B205549445D3A20000A6572726F722A
:101348000A0030333138353635333030006767734B
:10135800672D32000A5B44657465637465642056C2
:10136800657273696F6E5D3A204D4946415245205A
:10137800524335323276320A000A5B44657465633B
:101388007465642056657273696F6E5D3A204D49C5
:101398004641524520524335323276310A000A4ED0
:1013A8006F2072656164657220666F756E640A00ED
:0A13B80025642C00307825782C0005
:00000001FF
