:1000000045C0000061C000005FC000005DC000008E
:100010005BC0000059C0000057C0000055C0000080
:1000200053C0000051C000004FC000004DC0000090
:100030004BC0000049C0000047C00000BAC3000028
:1000400043C0000041C000003FC000003DC00000B0
:10005000B5C6000039C0000037C0000035C0000040
:1000600033C0000031C000002FC000002DC00000D0
:100070002BC0000029C0000028C0000025C00000DF
:1000800023C0000021C000001FC0000011241FBEBB
:10009000CFEFD0E1DEBFCDBF11E0A0E0B1E0EAE7F5
:1000A000F5E100E00BBF02C007900D92AE3EB10734
:1000B000D9F723E0AEEEB1E001C01D92A936B20738
:1000C000E1F793D10C94BB0A9BCF1F920F920FB60E
:1000D0000F9211240BB60F922F933F934F935F9380
:1000E0006F937F938F939F93AF93BF93EF93FF9300
:1000F00020919C00822F90E0A0E0B0E08E3391052B
:10010000A105B10521F431E03093F60107C08D3728
:100110009105A105B10511F41092F5013091F50199
:100120003323C9F04091F1015091F2016091F30144
:100130007091F401FA01EF59FD4F20834F5F5F4F3B
:100140006F4F7F4F4093F1015093F2016093F301A1
:100150007093F40108C01092F1011092F201109214
:10016000F3011092F4018B379105A105B10519F443
:1001700081E08093F501FF91EF91BF91AF919F9145
:100180008F917F916F915F914F913F912F910F9040
:100190000BBE0F900FBE0F901F901895CF92DF925D
:1001A000EF92FF920F931F93CF93C62F813091054B
:1001B00051F18230910509F44DC0892B09F070C0CE
:1001C00081E091E052D60FE313E00F2EF1E5EF2E20
:1001D000F3E0FF2EF02D0F2EF3E4CF2EF3E0DF2E11
:1001E000F02DC11104C0F80180813BD603C0F70196
:1001F000808137D60F5F1F4FFFEFEF1AFF0A0C15F4
:100200001D0579F74DC08BE091E02FD60FE313E089
:100210000F2EF1E5EF2EF3E0FF2EF02D0F2EF3E47D
:10022000CF2EF3E0DF2EF02DC11106C0F801808142
:1002300090E03FD61AD605C0F701808190E039D60C
:1002400014D60F5F1F4FFFEFEF1AFF0A0C151D05A5
:1002500059F726C083E191E008D60FE313E00F2E93
:10026000F1E5EF2EF3E0FF2EF02D0F2EF3E4CF2E6D
:10027000F3E0DF2EF02DC11105C0F801808148D6D2
:10028000F4D504C0F701808143D6EFD580E2E9D5EB
:100290000F5F1F4FFFEFEF1AFF0A0C151D0559F7EF
:1002A000CF911F910F91FF90EF90DF90CF90089525
:1002B000CF938091F001811108C040E06FE373E0BB
:1002C00082E586D48093EF011BC08091EE018823E4
:1002D00031F040E06FE373E082E57AD40BC040E098
:1002E0006FE373E082E574D48093EF01833011F4FF
:1002F0001092F0019091EE0181E089278093EE0148
:10030000C091EF01C13029F088E580930001C0E081
:1003100029C080910001883511F58FE48093000198
:1003200081E08093F0018093EE0160E08FE393E041
:1003300084D48093EF018130A1F48BE191E095D5D5
:1003400060E080E090E02ADF60E081E090E026DF7E
:1003500060E082E090E022DF8AE083D503C0C0E065
:1003600001C0CFEF8C2FCF910895813079F028F024
:100370008230C9F0833021F12FC01092F701109222
:10038000F8011092F9011092FA0126C081E090E084
:10039000A0E0B0E08093F7019093F801A093F901F9
:1003A000B093FA0119C082E090E0A0E0B0E0809341
:1003B000F7019093F801A093F901B093FA010CC0F2
:1003C00083E090E0A0E0B0E08093F7019093F80123
:1003D000A093F901B093FA0110926503109266039D
:1003E0001092670310926803089578948AB383602B
:1003F0008ABB1F921F921F9281E08F9383E08F939D
:1004000056D480E04FD22FEF81EE94E0215080400F
:100410009040E1F700C0000081E044D260E875E25E
:1004200080E090E0F2D460E875E281E090E0EDD405
:10043000EFEFF5EA2EE0E150F0402040E1F700C098
:10044000000080E068D280E092D28FEF95EAEEE083
:1004500081509040E040E1F700C0000081E05BD2B5
:1004600081E085D2F89481E080DF6DD475D47894F2
:10047000109261031092620310926303109264035E
:10048000FFEF21E18AE7F15020408040E1F700C012
:1004900000000F900F900F900F900F90992493945D
:1004A000C1E6D3E00F2EF4E6CF2ED12CE12CF12CB7
:1004B000F02D03E413E08BB389258BBB6881798130
:1004C0008A819B81A701960152D5672B682B692BE6
:1004D00019F4EEDE80934F0380914F03813009F5CC
:1004E00083E691E0D8D49FEFE9EFF0E09150E0404F
:1004F000F040E1F700C000000F2EFFE3AF2EF3E065
:10050000BF2EF02DF50181915F0102D5C4D480E2A8
:10051000BAD4A016B106B1F785E591E0BCD482E06B
:1005200024DF10924F03C7CFEBE8F0E080818F7B90
:1005300080831092F7011092F8011092F901109245
:10054000FA010895009739F0EBE8F0E0208120648B
:10055000208312C40895EBE8F0E080818F7B8083D4
:1005600008958091F7019091F801A091F901B0915F
:10057000FA0181309105A105B10579F060F0823072
:100580009105A105B10509F46DC00397A105B10559
:1005900009F4CDC00895C8CF089580916503909166
:1005A0006603A0916703B0916803883C9105A1059B
:1005B000B10520F48BE996E0C5CF089580916503DD
:1005C00090916603A0916703B0916803883C910500
:1005D000A105B10521F487EE95E0B4CF089580918F
:1005E000650390916603A0916703B0916803803919
:1005F0009140A105B10521F485E694E0A3CF0895CB
:100600008091650390916603A0916703B0916803A0
:1006100088359240A105B10521F48DEF93E092CF8A
:1006200008958091650390916603A0916703B0914E
:10063000680380329340A105B10521F488EF92E070
:1006400081CF08958091650390916603A09167031F
:10065000B0916803803B9440A105B10509F0A8C0A2
:1006600063CF08958091650390916603A09167031D
:10067000B0916803883C9105A105B10520F48BE990
:1006800096E060CF08958091650390916603A091F4
:100690006703B0916803823D9105A105B10521F47E
:1006A00080E090E04FCF08958091650390916603BC
:1006B000A0916703B09168038C3D9105A105B10538
:1006C00021F487EE95E03ECF0895809165039091E7
:1006D0006603A0916703B091680380399140A1053A
:1006E000B10521F480E090E02DCF0895809165035D
:1006F00090916603A0916703B09168038E3A914090
:10070000A105B10521F485E694E01CCF0895809100
:10071000650390916603A0916703B09168038835E3
:100720009240A105B10509F043C0FECE0895809125
:10073000650390916603A0916703B09168038436C6
:100740009105A105B10520F482E194E0FBCE089566
:100750008091650390916603A0916703B09168034F
:10076000883C9105A105B10520F480E090E0EACE37
:1007700008958091650390916603A0916703B091FD
:1007800068038C329140A105B10520F482E194E028
:10079000D9CE08958091650390916603A091670377
:1007A000B0916803823C9140A105B10509F4BCCE2B
:1007B00008951F920F920FB60F9211240BB60F924D
:1007C0002F933F934F935F936F937F938F939F9359
:1007D000AF93BF93EF93FF93E1E6F3E084819581BC
:1007E000A681B7810196A11DB11D84839583A6833F
:1007F000B78380819181A281B3810196A11DB11D32
:1008000080839183A283B383ACDEFF91EF91BF918C
:10081000AF919F918F917F916F915F914F913F9198
:100820002F910F900BBE0F900FBE0F901F90189539
:100830001F93CF93DF93162F95B3C1E0D0E002C092
:10084000CC0FDD1F4A95E2F72C2F2095922395BB04
:10085000880F8E776FD2812F6DD285B3C82BC5BB21
:10086000DF91CF911F910895482F6FE081E0E0CF95
:100870000895CF93DF9395B3C1E0D0E002C0CC0FD1
:10088000DD1F6A95E2F72C2F2095922395BB880FE8
:100890008E7780684FD252D295B3C92BC5BBDF91FA
:1008A000CF910895CF93C82F84B3836084BB15BACA
:1008B0002FEF89EF90E0215080409040E1F700C099
:1008C000000085B3836085BB8C2FCEDF4C2F6DE895
:1008D0008AE2AEDF4C2F6EE38BE2AADF4C2F6EE193
:1008E0008CE2A6DF4C2F60E08DE2A2DF4C2F60E4AB
:1008F00085E19EDF4C2F6DE381E19ADF6C2F84E16F
:10090000B8DF982F937029F4682F63604C2F84E12F
:100910008FDFCF910895CF93DF93D82F682F87E390
:10092000A8DFC82F2FEF89EF90E021508040904042
:10093000E1F700C00000D11104C082E791E095D238
:1009400003C08EE791E091D2C23921F48AE891E0A8
:100950008CD20AC0C059C23020F48EEA91E085D210
:1009600003C082ED91E081D2DF91CF910895CF93C2
:10097000C82F682F82E07DDF682F60624C2F82E0F5
:1009800057DF6C2F83E075DF682F60684C2F83E0A2
:100990004FDFCF9108952F923F924F925F926F92C7
:1009A0007F928F929F92AF92BF92CF92DF92EF92FF
:1009B000FF920F931F93CF93DF93F82EA62EB72E9F
:1009C000442E222ED32E8CE0F81659F0EEE0FE12C3
:1009D00011C06894CC24C4F80F2EF2E13F2EF02D04
:1009E0000BC00F2EF0E3CF2EF02D0F2EF7E73F2E8A
:1009F000F02D02C0C12C312C4E2D632D606882E099
:100A000017DF6E2D84E035DF682F6F774E2D84E081
:100A10000FDF6E2D8AE02DDF682F60684E2D8AE093
:100A200007DF4E2D60E081E003DF512C612C712C3B
:100A3000411451046104710499F0CA2DDB2D812CFD
:100A4000912C540169914E2D89E0F2DEFFEF8F1A4F
:100A50009F0AAF0ABF0A84149504A604B70490F352
:100A60004E2D6F2D81E0E4DE8CE0F81208C06E2D73
:100A70008DE0FFDE682F60684E2D8DE0D9DE6E2D93
:100A800084E0F7DEB82EC0E0D0E0EC2DE160CE2EA1
:100A90000AC06E2D84E0EDDEB82E2196CF3CF7E043
:100AA000DF0709F468C08C2D8B2199F36EC0832D6C
:100AB0008170B82211F0C2E001C0C1E08CE0F812F0
:100AC00073C06E2D8AE0D5DE882E6E2D8CE0D1DECF
:100AD000282F2770A9F0882D90E00197880F991F83
:100AE000880F991F880F991F820F911D092E000CE6
:100AF000AA0BBB0BF80180839183A283B38311C03F
:100B0000882D90E0880F991F880F991F880F991FD3
:100B1000092E000CAA0BBB0BF80180839183A283E2
:100B2000B383882071F0882D813108F080E1882E10
:100B3000912CA12CB12C81149104A104B10429F4AD
:100B400033C0812C912C54018394022D1D2D412CF6
:100B5000512C32016E2D89E08CDEF80181938F01DA
:100B6000FFEF4F1A5F0A6F0A7F0A481459046A049C
:100B70007B0480F319C06E2D8DE07BDE682F6F77CC
:100B80004E2D8DE055DEC3E00FC06E2D8DE071DE81
:100B9000682F6F774E2D8DE04BDE6E2D86E069DE7F
:100BA0008B7109F484CFC3E08C2FDF91CF911F911B
:100BB0000F91FF90EF90DF90CF90BF90AF909F90FC
:100BC0008F907F906F905F904F903F902F900895FF
:100BD000CF92DF92EF920F931F93CF93DF9300D0CA
:100BE00000D0CDB7DEB7182F6B01E42E67E08DE0A3
:100BF0001FDEF60110838E010F5F1F4F960141E04B
:100C0000B6018CE0C8DE813059F449815A816B818C
:100C10007C81403151056105710519F083E001C007
:100C200083E00F900F900F900F90DF91CF911F9165
:100C30000F91EF90DF90CF900895CF92DF92EF92D7
:100C40000F931F93CF93DF9300D000D0CDB7DEB7C3
:100C50006C01E62E462F60E08DE0EADD83E9F601C7
:100C6000808380E281838E010F5F1F4F960142E0F7
:100C7000B6018CE090DE813071F4F601A6014C5F84
:100C80005F4F90E0219192274E175F07D9F7F60149
:100C90002481921383E00F900F900F900F90DF91BB
:100CA000CF911F910F91EF90DF90CF900895CF9348
:100CB000DF9300D01F92CDB7DEB78885833021F156
:100CC000811132C029C09C9112969193E217F307CB
:100CD000D1F79B81923020F11B821DB8833071F4D3
:100CE000C09A87B3876087BB99818A81892B806589
:100CF0002EB19B81922B9EB98DB916C0811114C063
:100D0000BB9A80E48DB910C0DE011996FE013196C0
:100D10009E012C5F3F4FD7CF9B819230E8F602C0F7
:100D20001DB8DECF1DB8ECCF0F900F900F90DF9164
:100D3000CF9108958FB9779BFECF08951FB8779B09
:100D4000FECF8FB10895BC9A8CE083BF8AEF81BF3C
:100D500087B7826087BF0895139A80E480938B00E1
:100D60008AE180938A001092890010928800109284
:100D700081001092800008959093810080938000FC
:100D80000895E0915F02F0E0E550FE4F808181110F
:100D900009C0569884E6EBEFF1E0DF011D928A95D9
:100DA000E9F70895AFE5B2E0EC9181E08E0F8C9306
:100DB000F0E0E550FE4F80818CB908951F920F92AC
:100DC0000FB60F9211240BB60F922F933F934F93B0
:100DD0005F936F937F938F939F93AF93BF93EF93A3
:100DE000FF93CFDFFF91EF91BF91AF919F918F91D3
:100DF0007F916F915F914F913F912F910F900BBE1B
:100E00000F900FBE0F901F901895CF93DF93EC01BA
:100E10009B0140E050E060E472E48FE090E0A7D0F6
:100E200021503109209751F410983093900029B93E
:100E300088E08AB986E08093950010C0219771F40C
:100E40003093980020939900EAE9F0E088E18083EC
:100E500080818068808386E080939D00DF91CF91C0
:100E600008955D9BFECF8CB90895CF93DF93EC017D
:100E70008881882329F02196F4DF89918111FCCFA4
:100E8000DF91CF910895EBE9F0E0908195FFFDCFE0
:100E900080939C000895CF93DF93EC018881882391
:100EA00029F02196F0DF89918111FCCFDF91CF915C
:100EB00008950F931F93CF93DF93CDB7DEB7649759
:100EC0000FB6F894DEBF0FBECDBF9F938F9385EE14
:100ED00091E09F938F938E010F5F1F4F1F930F938E
:100EE0006FD0B80189EF92E064D00F900F900F900F
:100EF0000F900F900F9089EF92E064960FB6F894E0
:100F0000DEBF0FBECDBFDF91CF911F910F9108952E
:100F10000F931F93CF93DF93CDB7DEB764970FB6D0
:100F2000F894DEBF0FBECDBF1F928F9389EE91E084
:100F30009F938F938E010F5F1F4F1F930F9340D08E
:100F4000B80189EF92E035D00F900F900F900F907D
:100F50000F900F9089EF92E064960FB6F894DEBF81
:100F60000FBECDBFDF91CF911F910F910895A1E2E8
:100F70001A2EAA1BBB1BFD010DC0AA1FBB1FEE1F13
:100F8000FF1FA217B307E407F50720F0A21BB30B5E
:100F9000E40BF50B661F771F881F991F1A9469F7DA
:100FA00060957095809590959B01AC01BD01CF0136
:100FB0000895FB01DC0101900D920020E1F70895F6
:100FC0000F931F93CF93DF93CDB7DEB72E970FB656
:100FD000F894DEBF0FBECDBF0D891E8986E08C83DD
:100FE0001A8309838FEF9FE79E838D83AE01475E4F
:100FF0005F4F6F89788DCE01019610D0EF81F88513
:10100000E00FF11F10822E960FB6F894DEBF0FBED0
:10101000CDBFDF91CF911F910F9108952F923F92F5
:101020004F925F926F927F928F929F92AF92BF92F8
:10103000CF92DF92EF92FF920F931F93CF93DF93A4
:10104000CDB7DEB72B970FB6F894DEBF0FBECDBF7E
:101050006C017B018A01FC0117821682838181FF6A
:10106000BFC1CE0101963C01F6019381F70193FDCA
:10107000859193FF81917F01882309F4ADC1853269
:1010800039F493FD859193FF81917F01853221F49D
:10109000B60190E0D6D1E8CF912C212C312CFFE184
:1010A000F315D8F08B3279F038F4803279F083324E
:1010B000A1F4232D20611DC08D3261F0803369F4CD
:1010C000232D216016C0832D8260382EE32DE4602D
:1010D0003E2E2AC0F32DF8601DC037FC2DC020ED38
:1010E000280F2A3040F08E32B9F436FC75C1232D1A
:1010F0002064322E19C036FE06C08AE0989E200D6C
:101100001124922E11C0EAE02E9E200D1124222ED1
:10111000F32DF0623F2E08C08C3621F4832D8068B9
:10112000382E02C0883641F4F70193FD859193FF74
:1011300081917F018111B3CF982F9F7D955493307A
:1011400028F40C5F1F4F9FE399830DC0833631F065
:10115000833771F0833509F055C020C0F8018081D4
:1011600089830E5F1F4F88248394912C530112C0F2
:101170002801F2E04F0E511CF801A080B18036FE2C
:1011800003C0692D70E002C06FEF7FEFC5014ED143
:101190004C018201F32DFF773F2E15C0280122E07C
:1011A000420E511CF801A080B18036FE03C0692DAB
:1011B00070E002C06FEF7FEFC5012DD14C01F32D20
:1011C000F0683F2E820133FC19C0822D90E0881612
:1011D0009906A0F4B60180E290E033D12A94F5CFCD
:1011E000F50137FC859137FE81915F01B60190E0F2
:1011F00028D121102A9421E0821A910881149104A7
:1012000079F7E1C0843611F0893639F5F80137FEF7
:1012100007C060817181828193810C5F1F4F08C07C
:1012200060817181072E000C880B990B0E5F1F4F98
:10123000F32DFF763F2E97FF09C09095809570950E
:1012400061957F4F8F4F9F4FF0683F2E2AE030E02F
:10125000A30133D1882E861844C0853731F4232D5D
:101260002F7EB22E2AE030E025C0932D997FB92E33
:101270008F36C1F018F4883579F0AEC0803719F098
:10128000883721F0A9C0E92FE061BE2EB4FE0DC061
:10129000FB2DF460BF2E09C034FE0AC0292F266042
:1012A000B22E06C028E030E005C020E130E002C0E8
:1012B00020E132E0F801B7FE07C0608171818281D0
:1012C00093810C5F1F4F06C06081718180E090E0C8
:1012D0000E5F1F4FA301F1D0882E8618FB2DFF77DC
:1012E0003F2E36FE0DC0232D2E7FA22E891458F4DA
:1012F00034FE0BC032FC09C0832D8E7EA82E05C0A3
:10130000B82CA32C03C0B82C01C0B92CA4FE0FC06C
:10131000FE01E80DF11D8081803321F49A2D997E24
:10132000A92E09C0A2FE06C0B394B39404C08A2DAE
:10133000867809F0B394A3FC10C0A0FE06C0B214D6
:1013400080F4280C922C9B180DC0B21458F4B601EE
:1013500080E290E076D0B394F8CFB21418F42B1852
:1013600002C0982C212CA4FE0FC0B60180E390E0AF
:1013700068D0A2FE16C0A1FC03C088E790E002C0BE
:1013800088E590E0B6010CC08A2D867851F0A1FE68
:1013900002C08BE201C080E2A7FC8DE2B60190E0C2
:1013A00050D0891430F4B60180E390E04AD09A948A
:1013B000F8CF8A94F301E80DF11D8081B60190E029
:1013C00040D08110F6CF222009F44ECEB60180E243
:1013D00090E037D02A94F7CFF6018681978102C03A
:1013E0008FEF9FEF2B960FB6F894DEBF0FBECDBFE9
:1013F000DF91CF911F910F91FF90EF90DF90CF90F1
:10140000BF90AF909F908F907F906F905F904F9024
:101410003F902F900895FC0105906150704001109D
:10142000D8F7809590958E0F9F1F0895FC0161500D
:10143000704001900110D8F7809590958E0F9F1FF6
:1014400008950F931F93CF93DF93FB01238121FD19
:1014500003C08FEF9FEF2CC022FF16C0468157813B
:10146000248135814217530744F4A081B1819D0145
:101470002F5F3F4F318320838C93268137812F5FED
:101480003F4F3783268314C08B01EC01FB0100849E
:10149000F185E02D0995892BE1F6D80116968D91FD
:1014A0009C911797019617969C938E931697CE0151
:1014B000DF91CF911F910F910895FA01AA2728304B
:1014C00051F1203181F1E8946F936E7F6E5F7F4F11
:1014D0008F4F9F4FAF4FB1E03ED0B4E03CD0670F8D
:1014E000781F891F9A1FA11D680F791F8A1F911DE0
:1014F000A11D6A0F711D811D911DA11D20D009F430
:1015000068943F912AE0269F11243019305D319371
:10151000DEF6CF010895462F4770405D4193B3E05A
:101520000FD0C9F7F6CF462F4F70405D4A3318F001
:10153000495D31FD4052419302D0A9F7EACFB4E0B2
:10154000A6959795879577956795BA95C9F700976A
:101550006105710508959B01AC010A2E069457950B
:10156000479537952795BA95C9F7620F731F841F62
:0A157000951FA01D0895F894FFCF09
:10157A00580A0961736369693A20000A0964656354
:10158A003A20000A096865783A20005B43484543D7
:10159A004B2055494428434830295D3A20005B4393
:1015AA004845434B2055494428434831295D3A2050
:1015BA000041542B5253540D0A0041542B43574DAA
:1015CA004F44453D330D0A0041542B43574A41507D
:1015DA003D220041542B43495053454E443D340D5E
:1015EA000A000A5B6368616E6E656C2030000A5BF4
:1015FA006368616E6E656C203100204465746563B2
:10160A007465642056657273696F6E5D3A204D4940
:10161A004641524520524335323276320A0020443E
:10162A00657465637465642056657273696F6E5D6F
:10163A003A204D494641524520524335323276319D
:10164A000A00204E6F2072656164657220666F75AC
:0E165A006E645D0A0025642C002530325800B5
:00000001FF
