S02300007061726B696E675F73797374656D5F70726F6A6563745F302E31762E7372656357
S113000045C0000061C000005FC000005DC000008A
S11300105BC0000059C0000057C0000055C000007C
S113002053C0000051C000004FC000004DC000008C
S11300304BC0000049C0000047C00000FFC10000E1
S113004043C0000041C000003FC000003DC00000AC
S113005082C4000039C0000037C0000035C0000071
S113006033C0000031C000002FC000002DC00000CC
S11300702BC0000029C0000028C0000025C00000DB
S113008023C0000021C000001FC0000011241FBEB7
S1130090CFEFD0E1DEBFCDBF11E0A0E0B1E0E6EEEE
S11300A0F0E100E00BBF02C007900D92AA38B1073F
S11300B0D9F722E0AAE8B1E001C01D92AA3BB20739
S11300C0E1F791D00C9471089BCF1F920F920FB659
S11300D00F9211240BB60F922F933F934F935F937C
S11300E06F937F938F939F93AF93BF93EF93FF93FC
S11300F080919C0083D4FF91EF91BF91AF919F9128
S11301008F917F916F915F914F913F912F910F90BC
S11301100BBE0F900FBE0F901F901895823069F0A0
S11301208330C1F0811122C010928B0110928C0196
S113013010928D0110928E0119C082E090E0A0E02F
S1130140B0E080938B0190938C01A0938D01B093C8
S11301508E010CC083E090E0A0E0B0E080938B01BE
S113016090938C01A0938D01B0938E011092B602EE
S11301701092B7021092B8021092B90208958091B9
S11301808A01811107C062EA72E082E5F5D28093A8
S1130190A10204C062EA72E082E5EED28091A1027B
S11301A0813029F088E58093000180E008958091F2
S11301B000018835A1F48FE48093000181E08093ED
S11301C08A0182EA92E00AD38093A102813049F045
S11301D083E0A4DF8BE191E015D48FEF089580E0F4
S11301E0089581E0089578948AB383608ABB1F924E
S11301F01F921F9281E08F9383E08F9325D374D154
S113020060E875E280E090E0CDD360E875E281E0DB
S113021090E0C8D32FEF89E698E1215080409040C8
S1130220E1F700C000007FD1A0D1F89481E076DF2F
S113023057D35FD378941092B2021092B302109203
S1130240B4021092B5022FEF83ED90E32150804069
S11302509040E1F700C000000F900F900F900F90B6
S11302600F902FEF81EE94E0215080409040E1F711
S113027000C0000084DF8130A1F782E04FDFF1CFBE
S1130280EBE8F0E080818F7B808310928B011092E9
S11302908C0110928D0110928E010895009739F00F
S11302A0EBE8F0E020812064208333C30895EBE879
S11302B0F0E080818F7B8083089580918B01909101
S11302C08C01A0918D01B0918E0182309105A10520
S11302D0B10569F083309105A105B10509F46CC03D
S11302E0892B8A2B8B2B09F0A8C0CACF0895809143
S11302F0B6029091B702A091B802B091B902883CBD
S11303009105A105B10520F48BE996E0C7CF0895C6
S11303108091B6029091B702A091B802B091B9024F
S1130320823D9105A105B10521F480E090E0B6CFAE
S113033008958091B6029091B702A091B802B0914D
S1130340B9028C3D9105A105B10521F487EE95E034
S1130350A5CF08958091B6029091B702A091B802FA
S1130360B091B90280399140A105B10521F480E032
S113037090E094CF08958091B6029091B702A09135
S1130380B802B091B9028E3A9140A105B10521F4A9
S113039085E694E083CF08958091B6029091B702E8
S11303A0A091B802B091B90288359240A105B10577
S11303B009F043C065CF08958091B6029091B702C9
S11303C0A091B802B091B90284369105A105B10596
S11303D020F482E194E062CF08958091B602909176
S11303E0B702A091B802B091B902883C9105A10569
S11303F0B10520F480E090E051CF08958091B602D9
S11304009091B702A091B802B091B9028C32914098
S1130410A105B10520F482E194E040CF08958091D4
S1130420B6029091B702A091B802B091B902823C91
S11304309140A105B10509F423CF08951F920F92AD
S11304400FB60F9211240BB60F922F933F934F9335
S11304505F936F937F938F939F93AF93BF93EF9328
S1130460FF93E2EBF2E084819581A681B781019646
S1130470A11DB11D84839583A683B7838081918157
S1130480A281B3810196A11DB11D80839183A283B2
S1130490B38313DFFF91EF91BF91AF919F918F9140
S11304A07F916F915F914F913F912F910F900BBE70
S11304B00F900FBE0F901F901895CF93C62FA8983A
S11304C0880F8E7704D28C2F02D2A89ACF910895E8
S11304D06FE081E0F2CF0895A898880F8E77806846
S11304E0F6D1F9D1A89A0895A09AA89AF1DF6DE8F7
S11304F08AE2E3DF6EE38BE2E0DF6EE18CE2DDDFD4
S113050060E08DE2DADF60E485E1D7DF6DE381E16D
S1130510D4DF84E1E1DF982F937021F4682F6360C6
S113052084E1CBCF0895CF9387E3D6DFC82F90E043
S113053096D276D22FEF89EF90E021508040904000
S1130540E1F700C00000C23921F483E291E05AD2FD
S11305500AC0C059C23020F488E491E053D203C0E9
S11305608DE691E04FD2CF91089582E0B5DF682FF8
S1130570606282E0A2DF83E0AFDF682F606883E01F
S11305809CCF08953F924F925F926F927F928F9289
S11305909F92AF92BF92CF92DF92EF92FF920F930E
S11305A01F93CF93DF93982EE62EF72E442E822EA0
S11305B0332E58018CE0981631F0EEE09E1206C0FE
S11305C010E102E105C010E307E702C010E000E01B
S11305D0602F606882E071DF84E07EDF682F6F77D0
S11305E084E06BDF8AE078DF682F60688AE065DF8B
S11305F060E081E062DF512C612C712C41145104C4
S11306006104710491F0CE2DDF2DC12CD12C760123
S1130610699189E052DFFFEFCF1ADF0AEF0AFF0A80
S1130620C414D504E604F70498F3692D81E045DF8A
S11306308CE0981206C08DE04FDF682F60688DE073
S11306403CDF84E049DFF82EC0E0D0E0116009C04F
S113065084E042DFF82E2196CF3CE7E0DE0709F480
S113066064C0812F8F21A1F368C00170F02211F0C2
S1130670C2E001C0C1E0FCE09F126BC08AE02CDF45
S1130680482E8CE029DF282F2770A9F0842D90E0D4
S11306900197880F991F880F991F880F991F820F40
S11306A0911D092E000CAA0BBB0BF50180839183CD
S11306B0A283B38311C0842D90E0880F991F880F03
S11306C0991F880F991F092E000CAA0BBB0BF5016B
S11306D080839183A283B383442071F0842D81317C
S11306E008F080E1482E512C612C712C41145104E6
S11306F06104710429F42DC0412C512C320143941E
S1130700082D132DC12CD12C760189E0E5DEF801EA
S113071081938F01FFEFCF1ADF0AEF0AFF0AC41497
S1130720D504E604F70488F314C08DE0D5DE682F01
S11307306F778DE0C2DEC3E00CC08DE0CDDE682FA4
S11307406F778DE0BADE86E0C7DE8B7109F48DCF5A
S1130750C3E08C2FDF91CF911F910F91FF90EF9009
S1130760DF90CF90BF90AF909F908F907F906F90CD
S11307705F904F903F900895EF92FF920F931F93D5
S1130780CF93DF9300D000D0CDB7DEB7182F7B0115
S113079067E08DE092DEF70110838E010F5F1F4F3B
S11307A0970141E0B7018CE0EDDE813059F44981D5
S11307B05A816B817C81403151056105710519F0C5
S11307C083E001C083E00F900F900F900F90DF91B2
S11307D0CF911F910F91FF90EF900895EF92FF92A8
S11307E00F931F93CF93DF9300D000D0CDB7DEB724
S11307F07C0160E08DE061DE83E9F701808380E2C3
S113080081838E010F5F1F4F970142E0B7018CE097
S1130810B9DE813071F4F701A7014C5F5F4F90E0BE
S1130820219192274E175F07D9F7F701248192137C
S113083083E00F900F900F900F90DF91CF911F9155
S11308400F91FF90EF900895CF93DF9300D01F9204
S1130850CDB7DEB78885833021F1811132C029C03C
S11308609C9112969193E217F307D1F79B819230F2
S113087020F11B821DB8833071F4C09A87B387605E
S113088087BB99818A81892B80652EB19B81922BAC
S11308909EB98DB916C0811114C0BB9A80E48DB97C
S11308A010C0DE011996FE0131969E012C5F3F4F68
S11308B0D7CF9B819230E8F602C01DB8DECF1DB8B9
S11308C0ECCF0F900F900F90DF91CF9108958FB9D7
S11308D0779BFECF08951FB8779BFECF8FB1089505
S11308E0BC9A8CE083BF8AEF81BF87B7826087BFE1
S11308F00895139A80E480938B008AE180938A00A0
S11309001092890010928800109281001092800049
S1130910089590938100809380000895E091F301FD
S1130920F0E0E157FE4F8081811109C0569884E6BA
S1130930EFE8F1E0DF011D928A95E9F70895A3EF4E
S1130940B1E0EC9181E08E0F8C93F0E0E157FE4F23
S113095080818CB908951F920F920FB60F921124C3
S11309600BB60F922F933F934F935F936F937F93A5
S11309708F939F93AF93BF93EF93FF93CFDFFF9139
S1130980EF91BF91AF919F918F917F916F915F9103
S11309904F913F912F910F900BBE0F900FBE0F9070
S11309A01F901895CF93DF93EC019B0140E050E03A
S11309B060E472E48FE090E081D021503109209707
S11309C051F410983093900029B988E08AB986E0F0
S11309D08093950010C0219771F430939800209370
S11309E09900EAE9F0E088E0808380818068808370
S11309F086E080939D00DF91CF9108955D9BFECFAB
S1130A008CB90895CF93DF93EC018881882329F072
S1130A102196F4DF89918111FCCFDF91CF91089564
S1130A20CF93DF93FC0101900020E9F73197EF01A8
S1130A30C81BD90BAE01BC018FE891E068D05D9B67
S1130A40FECF80918F018CB981E08093F301EC2F6C
S1130A50EF5FE093F401569ADF91CF9108950F93DD
S1130A601F93CF93DF93CDB7DEB764970FB6F89497
S1130A70DEBF0FBECDBF9F938F938FE791E09F930F
S1130A808F938E010F5F1F4F1F930F934FD0B801A9
S1130A908BE592E035D00F900F900F900F900F9050
S1130AA00F908BE592E064960FB6F894DEBF0FBE0C
S1130AB0CDBFDF91CF911F910F910895A1E21A2E1E
S1130AC0AA1BBB1BFD010DC0AA1FBB1FEE1FFF1FEE
S1130AD0A217B307E407F50720F0A21BB30BE40B3E
S1130AE0F50B661F771F881F991F1A9469F7609585
S1130AF07095809590959B01AC01BD01CF0108953F
S1130B00FB01DC0101900D920020E1F70895FB0147
S1130B10DC014150504048F001900D920020C9F78B
S1130B2001C01D9241505040E0F708950F931F9368
S1130B30CF93DF93CDB7DEB72E970FB6F894DEBF11
S1130B400FBECDBF0D891E8986E08C831A8309836D
S1130B508FEF9FE79E838D83AE01475E5F4F6F8962
S1130B60788DCE01019610D0EF81F885E00FF11F4A
S1130B7010822E960FB6F894DEBF0FBECDBFDF9164
S1130B80CF911F910F9108952F923F924F925F92B0
S1130B906F927F928F929F92AF92BF92CF92DF9289
S1130BA0EF92FF920F931F93CF93DF93CDB7DEB7EE
S1130BB02B970FB6F894DEBF0FBECDBF6C017B013F
S1130BC08A01FC0117821682838181FFBFC1CE0195
S1130BD001963C01F6019381F70193FD859193FF02
S1130BE081917F01882309F4ADC1853239F493FDE5
S1130BF0859193FF81917F01853221F4B60190E0C4
S1130C00D6D1E8CF912C212C312CFFE1F315D8F06B
S1130C108B3279F038F4803279F08332A1F4232DC9
S1130C2020611DC08D3261F0803369F4232D216071
S1130C3016C0832D8260382EE32DE4603E2E2AC038
S1130C40F32DF8601DC037FC2DC020ED280F2A308D
S1130C5040F08E32B9F436FC75C1232D2064322E57
S1130C6019C036FE06C08AE0989E200D1124922EEB
S1130C7011C0EAE02E9E200D1124222EF32DF062E5
S1130C803F2E08C08C3621F4832D8068382E02C094
S1130C90883641F4F70193FD859193FF81917F019B
S1130CA08111B3CF982F9F7D9554933028F40C5F16
S1130CB01F4F9FE399830DC0833631F0833771F062
S1130CC0833509F055C020C0F801808189830E5F07
S1130CD01F4F88248394912C530112C02801F2E001
S1130CE04F0E511CF801A080B18036FE03C0692D5F
S1130CF070E002C06FEF7FEFC5014ED14C0182015D
S1130D00F32DFF773F2E15C0280122E0420E511C1F
S1130D10F801A080B18036FE03C0692D70E002C0E6
S1130D206FEF7FEFC5012DD14C01F32DF0683F2EFD
S1130D30820133FC19C0822D90E088169906A0F434
S1130D40B60180E290E033D12A94F5CFF50137FC67
S1130D50859137FE81915F01B60190E028D1211081
S1130D602A9421E0821A91088114910479F7E1C050
S1130D70843611F0893639F5F80137FE07C06081F1
S1130D807181828193810C5F1F4F08C060817181E2
S1130D90072E000C880B990B0E5F1F4FF32DFF7667
S1130DA03F2E97FF09C090958095709561957F4F70
S1130DB08F4F9F4FF0683F2E2AE030E0A30133D1DC
S1130DC0882E861844C0853731F4232D2F7EB22E09
S1130DD02AE030E025C0932D997FB92E8F36C1F0DB
S1130DE018F4883579F0AEC0803719F0883721F0CF
S1130DF0A9C0E92FE061BE2EB4FE0DC0FB2DF46046
S1130E00BF2E09C034FE0AC0292F2660B22E06C0A8
S1130E1028E030E005C020E130E002C020E132E00B
S1130E20F801B7FE07C060817181828193810C5FF4
S1130E301F4F06C06081718180E090E00E5F1F4FFC
S1130E40A301F1D0882E8618FB2DFF773F2E36FEA6
S1130E500DC0232D2E7FA22E891458F434FE0BC00E
S1130E6032FC09C0832D8E7EA82E05C0B82CA32C7D
S1130E7003C0B82C01C0B92CA4FE0FC0FE01E80DBC
S1130E80F11D8081803321F49A2D997EA92E09C009
S1130E90A2FE06C0B394B39404C08A2D867809F0E8
S1130EA0B394A3FC10C0A0FE06C0B21480F4280CB6
S1130EB0922C9B180DC0B21458F4B60180E290E055
S1130EC076D0B394F8CFB21418F42B1802C0982C2F
S1130ED0212CA4FE0FC0B60180E390E068D0A2FEEE
S1130EE016C0A1FC03C088E790E002C088E590E04A
S1130EF0B6010CC08A2D867851F0A1FE02C08BE2A7
S1130F0001C080E2A7FC8DE2B60190E050D08914C4
S1130F1030F4B60180E390E04AD09A94F8CF8A94F2
S1130F20F301E80DF11D8081B60190E040D08110FD
S1130F30F6CF222009F44ECEB60180E290E037D0FD
S1130F402A94F7CFF6018681978102C08FEF9FEF35
S1130F502B960FB6F894DEBF0FBECDBFDF91CF91B5
S1130F601F910F91FF90EF90DF90CF90BF90AF90C3
S1130F709F908F907F906F905F904F903F902F90B5
S1130F800895FC010590615070400110D8F78095D8
S1130F9090958E0F9F1F0895FC0161507040019041
S1130FA00110D8F7809590958E0F9F1F08950F9389
S1130FB01F93CF93DF93FB01238121FD03C08FEFA8
S1130FC09FEF2CC022FF16C04681578124813581B2
S1130FD04217530744F4A081B1819D012F5F3F4F15
S1130FE0318320838C93268137812F5F3F4F378352
S1130FF0268314C08B01EC01FB010084F185E02DF4
S11310000995892BE1F6D80116968D919C91179735
S1131010019617969C938E931697CE01DF91CF91EC
S11310201F910F910895FA01AA27283051F1203118
S113103081F1E8946F936E7F6E5F7F4F8F4F9F4F68
S1131040AF4FB1E03ED0B4E03CD0670F781F891FAA
S11310509A1FA11D680F791F8A1F911DA11D6A0F78
S1131060711D811D911DA11D20D009F468943F912B
S11310702AE0269F11243019305D3193DEF6CF012A
S11310800895462F4770405D4193B3E00FD0C9F7F0
S1131090F6CF462F4F70405D4A3318F0495D31FD5D
S11310A04052419302D0A9F7EACFB4E0A6959795B0
S11310B0879577956795BA95C9F700976105710586
S11310C008959B01AC010A2E0694579547953795D0
S11310D02795BA95C9F7620F731F841F951FA01D2A
S10910E00895F894FFCF0F
S11310E6580A0961736369693A20000A09646563E9
S11310F63A20000A096865783A20000A6572726F18
S1131106720A000A5B4465746563746564205665F7
S11311167273696F6E5D3A204D49464152452052BD
S11311264335323276320A000A5B44657465637469
S113113665642056657273696F6E5D3A204D494643
S113114641524520524335323276310A000A4E6FF7
S11311562072656164657220666F756E640A002587
S10D1166642C00307825782C00007A
S9030000FC
