:1000000045C0000061C000005FC000005DC000008E
:100010005BC0000059C0000057C0000055C0000080
:1000200053C0000051C000004FC000004DC0000090
:100030004BC0000049C0000047C00000BBC3000027
:1000400043C0000041C000003FC000003DC00000B0
:10005000ACC6000039C0000037C0000035C0000049
:1000600033C0000031C000002FC000002DC00000D0
:100070002BC0000029C0000028C0000025C00000DF
:1000800023C0000021C000001FC0000011241FBEBB
:10009000CFEFD0E1DEBFCDBF11E0A0E0B1E0ECE3F7
:1000A000F5E100E00BBF02C007900D92A03CB10744
:1000B000D9F723E0A0ECB1E001C01D92A730B20750
:1000C000E1F7AED10C949C0A9BCF1F920F920FB612
:1000D0000F9211240BB60F922F933F934F935F9380
:1000E0006F937F938F939F93AF93BF93EF93FF9300
:1000F00080919C00ADD6FF91EF91BF91AF919F9100
:100100008F917F916F915F914F913F912F910F90C0
:100110000BBE0F900FBE0F901F901895CF92DF92DD
:10012000EF92FF920F931F93CF93C62F81309105CB
:1001300051F18230910509F44DC0892B09F06EC050
:1001400082E091E089D60DED12E00F2EFFEEEF2E4A
:10015000F2E0FF2EF02D0F2EF1EECF2EF2E0DF2E8B
:10016000F02DC11104C0F801808172D603C0F701DF
:1001700080816ED60F5F1F4FFFEFEF1AFF0A0C153D
:100180001D0579F74BC08CE091E066D60DED12E0CD
:100190000F2EFFEEEF2EF2E0FF2EF02D0F2EF1EEE0
:1001A000CF2EF2E0DF2EF02DC11106C0F8018081C4
:1001B00090E060D651D605C0F701808190E05AD614
:1001C0004BD60F5F1F4FFFEFEF1AFF0A0C151D05EF
:1001D00059F724C084E191E03FD60DED12E00F2ED7
:1001E000FFEEEF2EF2E0FF2EF02D0F2EF1EECF2ED0
:1001F000F2E0DF2EF02DC11105C0F801808169D633
:100200002BD604C0F701808164D626D60F5F1F4F1E
:10021000FFEFEF1AFF0A0C151D0569F7CF911F912B
:100220000F91FF90EF90DF90CF900895CF93809142
:10023000C501811108C040E06DED72E082E5BFD4D8
:100240008093C4011BC08091C301882331F040E03A
:100250006DED72E082E5B3D40BC040E06DED72E06D
:1002600082E5ADD48093C401833011F41092C501AE
:100270009091C30181E089278093C301C091C4019B
:10028000C13029F088E580930101C0E029C0809148
:100290000101883511F58FE48093010181E080939D
:1002A000C5018093C30160E08DED92E0BDD48093E1
:1002B000C4018130A1F48CE191E0CED560E080E012
:1002C00090E02CDF60E081E090E028DF60E082E0F9
:1002D00090E024DF8AE0BCD503C0C0E001C0CFEFCE
:1002E0008C2FCF910895CF938091C201811108C0C6
:1002F00041E06FEE72E082E562D48093C1011BC0E1
:100300008091C001882331F041E06FEE72E082E518
:1003100056D40BC041E06FEE72E082E550D480937A
:10032000C101833011F41092C2019091C00181E0AB
:1003300089278093C001C091C101C13029F088E5AF
:1003400080930001C0E029C080910001883511F53B
:100350008FE48093000181E08093C2018093C0010B
:1003600061E08FEE92E060D48093C1018130A1F40E
:100370008FE291E071D561E080E090E0CFDE61E056
:1003800081E090E0CBDE61E082E090E0C7DE8AE0D1
:100390005FD503C0C0E001C0CFEF8C2FCF9108958F
:1003A000813079F028F08230C9F0833021F12FC0FC
:1003B0001092C7011092C8011092C9011092CA018F
:1003C00026C081E090E0A0E0B0E08093C701909368
:1003D000C801A093C901B093CA0119C082E090E09E
:1003E000A0E0B0E08093C7019093C801A093C90139
:1003F000B093CA010CC083E090E0A0E0B0E080932D
:10040000C7019093C801A093C901B093CA0110928B
:10041000030310920403109205031092060308953B
:1004200078948AB383608ABB1F921F921F9281E0E7
:100430008F9383E08F9332D480E035D22FEF81EE1B
:1004400094E0215080409040E1F700C0000081E03E
:100450002AD260E875E280E090E0CED460E875E2F0
:1004600081E090E0C9D42FEF85EA9EE021508040E2
:100470009040E1F700C0000080E044D280E06ED2FE
:100480002FEF85EA9EE0215080409040E1F700C0C8
:10049000000081E037D281E061D2F89481E080DF12
:1004A00049D451D478941092FF0210920003109214
:1004B0000103109202032FEF81E19AE7215080405F
:1004C0009040E1F700C000000F900F900F900F9048
:1004D0000F90CFEFD2E00F2EF4E6CF2ED12CE12CEF
:1004E000F12CF02D11E0688179818A819B81A7012F
:1004F00096011ED5672B682B692B71F48091C6017C
:1005000081278093C601882321F0EDDE8093ED02E0
:1005100003C08CDE8093ED028091ED02813011F4F6
:1005200082E03EDF1092ED02DECFEBE8F0E080816A
:100530008F7B80831092C7011092C8011092C9016D
:100540001092CA010895009739F0EBE8F0E020819D
:100550002064208308C40895EBE8F0E080818F7B5D
:10056000808308958091C7019091C801A091C9012D
:10057000B091CA0181309105A105B10579F060F013
:1005800082309105A105B10509F46DC00397A1055D
:10059000B10509F4CDC00895C8CF08958091030333
:1005A00090910403A0910503B0910603883C910546
:1005B000A105B10520F48BE996E0C5CF089580919F
:1005C000030390910403A0910503B0910603883CB6
:1005D0009105A105B10521F487EE95E0B4CF08950A
:1005E0008091030390910403A0910503B091060349
:1005F00080399140A105B10521F485E694E0A3CFAF
:1006000008958091030390910403A0910503B09194
:10061000060388359240A105B10521F48DEF93E0E2
:1006200092CF08958091030390910403A091050354
:10063000B091060380329340A105B10521F488EF03
:1006400092E081CF08958091030390910403A091DB
:100650000503B0910603803B9440A105B10509F064
:10066000A8C063CF08958091030390910403A091E3
:100670000503B0910603883C9105A105B10520F45E
:100680008BE996E060CF0895809103039091040375
:10069000A0910503B0910603823D9105A105B10526
:1006A00021F480E090E04FCF089580910303909172
:1006B0000403A0910503B09106038C3D9105A105AB
:1006C000B10521F487EE95E03ECF089580910303B4
:1006D00090910403A0910503B091060380399140E5
:1006E000A105B10521F480E090E02DCF089580911F
:1006F000030390910403A0910503B09106038E3A81
:100700009140A105B10521F485E694E01CCF089540
:100710008091030390910403A0910503B091060317
:1007200088359240A105B10509F043C0FECE089579
:100730008091030390910403A0910503B0910603F7
:1007400084369105A105B10520F482E194E0FBCE49
:1007500008958091030390910403A0910503B09143
:100760000603883C9105A105B10520F480E090E0E6
:10077000EACE08958091030390910403A0910503AC
:10078000B09106038C329140A105B10520F482E1BD
:1007900094E0D9CE08958091030390910403A09131
:1007A0000503B0910603823C9140A105B10509F40F
:1007B000BCCE08951F920F920FB60F9211240BB664
:1007C0000F922F933F934F935F936F937F938F93EA
:1007D0009F93AF93BF93EF93FF93EFEFF2E084818A
:1007E0009581A681B7810196A11DB11D8483958352
:1007F000A683B78380819181A281B3810196A11DD7
:10080000B11D80839183A283B383ACDEFF91EF910E
:10081000BF91AF919F918F917F916F915F914F9118
:100820003F912F910F900BBE0F900FBE0F901F9016
:1008300018951F93CF93DF93162F95B3C1E0D0E0A7
:1008400002C0CC0FDD1F4A95E2F72C2F2095922392
:1008500095BB880F8E7765D2812F63D285B3C82B65
:10086000C5BBDF91CF911F910895482F6FE081E0C4
:10087000E0CF0895CF93DF9395B3C1E0D0E002C0FD
:10088000CC0FDD1F6A95E2F72C2F2095922395BBA4
:10089000880F8E77806845D248D295B3C92BC5BBE7
:1008A000DF91CF910895CF93C82F84B3836084BB29
:1008B00085B3836085BB8C2FD8DF4C2F6DE88AE22F
:1008C000B8DF4C2F6EE38BE2B4DF4C2F6EE18CE28D
:1008D000B0DF4C2F60E08DE2ACDF4C2F60E485E1AF
:1008E000A8DF4C2F6DE381E1A4DF6C2F84E1C2DF30
:1008F000982F937029F4682F63604C2F84E199DF5F
:10090000CF910895CF93DF93D82F682F87E3B2DF7D
:10091000C82F2FEF89EF90E0215080409040E1F701
:1009200000C00000D11104C082E491E095D203C060
:100930008EE491E091D2C23921F48AE591E08CD223
:100940000AC0C059C23020F48EE791E085D203C0BE
:1009500082EA91E081D2DF91CF910895CF93C82FA1
:10096000682F82E087DF682F60624C2F82E061DFB2
:100970006C2F83E07FDF682F60684C2F83E059DFA6
:10098000CF9108952F923F924F925F926F927F92F4
:100990008F929F92AF92BF92CF92DF92EF92FF928F
:1009A0000F931F93CF93DF93F82EA62EB72E442ECE
:1009B000222ED32E8CE0F81659F0EEE0FE1211C074
:1009C0006894CC24C4F80F2EF2E13F2EF02D0BC01A
:1009D0000F2EF0E3CF2EF02D0F2EF7E73F2EF02D48
:1009E00002C0C12C312C4E2D632D606882E021DFC6
:1009F0006E2D84E03FDF682F6F774E2D84E019DF86
:100A00006E2D8AE037DF682F60684E2D8AE011DF97
:100A10004E2D60E081E00DDF512C612C712C4114D2
:100A200051046104710499F0CA2DDB2D812C912CA5
:100A3000540169914E2D89E0FCDEFFEF8F1A9F0A69
:100A4000AF0ABF0A84149504A604B70490F34E2D90
:100A50006F2D81E0EEDE8CE0F81208C06E2D8DE087
:100A600009DF682F60684E2D8DE0E3DE6E2D84E097
:100A700001DFB82EC0E0D0E0EC2DE160CE2E0AC040
:100A80006E2D84E0F7DEB82E2196CF3CF7E0DF072D
:100A900009F468C08C2D8B2199F36EC0832D817071
:100AA000B82211F0C2E001C0C1E08CE0F81273C0BE
:100AB0006E2D8AE0DFDE882E6E2D8CE0DBDE282FA7
:100AC0002770A9F0882D90E00197880F991F880F53
:100AD000991F880F991F820F911D092E000CAA0BD8
:100AE000BB0BF80180839183A283B38311C0882D4F
:100AF00090E0880F991F880F991F880F991F092E62
:100B0000000CAA0BBB0BF80180839183A283B383F3
:100B1000882071F0882D813108F080E1882E912C99
:100B2000A12CB12C81149104A104B10429F433C087
:100B3000812C912C54018394022D1D2D412C512C7C
:100B400032016E2D89E096DEF80181938F01FFEF6F
:100B50004F1A5F0A6F0A7F0A481459046A047B041B
:100B600080F319C06E2D8DE085DE682F6F774E2DD6
:100B70008DE05FDEC3E00FC06E2D8DE07BDE682F61
:100B80006F774E2D8DE055DE6E2D86E073DE8B7116
:100B900009F484CFC3E08C2FDF91CF911F910F9187
:100BA000FF90EF90DF90CF90BF90AF909F908F908D
:100BB0007F906F905F904F903F902F900895CF92CD
:100BC000DF92EF920F931F93CF93DF9300D000D06B
:100BD000CDB7DEB7182F6B01E42E67E08DE029DE7C
:100BE000F60110838E010F5F1F4F960141E0B601A1
:100BF0008CE0C8DE813059F449815A816B817C8157
:100C0000403151056105710519F083E001C083E0B1
:100C10000F900F900F900F90DF91CF911F910F9138
:100C2000EF90DF90CF900895CF92DF92EF920F93E5
:100C30001F93CF93DF9300D000D0CDB7DEB76C0108
:100C4000E62E462F60E08DE0F4DD83E9F601808337
:100C500080E281838E010F5F1F4F960142E0B60153
:100C60008CE090DE813071F4F601A6014C5F5F4F9D
:100C700090E0219192274E175F07D9F7F601248162
:100C8000921383E00F900F900F900F90DF91CF9110
:100C90001F910F91EF90DF90CF900895CF93DF9346
:100CA00000D01F92CDB7DEB78885833021F1811146
:100CB00032C029C09C9112969193E217F307D1F7A5
:100CC0009B81923020F11B821DB8833071F4C09A51
:100CD00087B3876087BB99818A81892B80652EB114
:100CE0009B81922B9EB98DB916C0811114C0BB9AFD
:100CF00080E48DB910C0DE011996FE0131969E0187
:100D00002C5F3F4FD7CF9B819230E8F602C01DB8D1
:100D1000DECF1DB8ECCF0F900F900F90DF91CF91E9
:100D200008958FB9779BFECF08951FB8779BFECFAC
:100D30008FB10895BC9A8CE083BF8AEF81BF87B7DB
:100D4000826087BF0895139A80E480938B008AE1C4
:100D500080938A001092890010928800109281007E
:100D600010928000089590938100809380000895F0
:100D7000E0912F02F0E0E553FE4F8081811109C020
:100D8000569884E6EBECF1E0DF011D928A95E9F7D5
:100D90000895AFE2B2E0EC9181E08E0F8C93F0E029
:100DA000E553FE4F80818CB908951F920F920FB6C4
:100DB0000F9211240BB60F922F933F934F935F9393
:100DC0006F937F938F939F93AF93BF93EF93FF9313
:100DD000CFDFFF91EF91BF91AF919F918F917F9165
:100DE0006F915F914F913F912F910F900BBE0F909C
:100DF0000FBE0F901F901895CF93DF93EC019B01CE
:100E000040E050E060E472E48FE090E091D0215047
:100E10003109209751F410983093900029B988E057
:100E20008AB986E08093950010C0219771F43093C1
:100E3000980020939900EAE9F0E088E180838081BE
:100E40008068808386E080939D00DF91CF91089534
:100E50005D9BFECF8CB90895CF93DF93EC01888121
:100E6000882329F02196F4DF89918111FCCFDF914D
:100E7000CF9108950F931F93CF93DF93CDB7DEB734
:100E800064970FB6F894DEBF0FBECDBF9F938F93CC
:100E900085EB91E09F938F938E010F5F1F4F1F9300
:100EA0000F936FD0B80187E992E064D00F900F9054
:100EB0000F900F900F900F9087E992E064960FB615
:100EC000F894DEBF0FBECDBFDF91CF911F910F9180
:100ED00008950F931F93CF93DF93CDB7DEB7649739
:100EE0000FB6F894DEBF0FBECDBF1F928F9389EB74
:100EF00091E09F938F938E010F5F1F4F1F930F936E
:100F000040D0B80187E992E035D00F900F900F9054
:100F10000F900F900F9087E992E064960FB6F894C7
:100F2000DEBF0FBECDBFDF91CF911F910F9108950E
:100F3000A1E21A2EAA1BBB1BFD010DC0AA1FBB1FDD
:100F4000EE1FFF1FA217B307E407F50720F0A21B4F
:100F5000B30BE40BF50B661F771F881F991F1A94BC
:100F600069F760957095809590959B01AC01BD01E6
:100F7000CF010895FB01DC0101900D920020E1F703
:100F800008950F931F93CF93DF93CDB7DEB72E97BE
:100F90000FB6F894DEBF0FBECDBF0D891E8986E067
:100FA0008C831A8309838FEF9FE79E838D83AE0125
:100FB000475E5F4F6F89788DCE01019610D0EF812B
:100FC000F885E00FF11F10822E960FB6F894DEBF61
:100FD0000FBECDBFDF91CF911F910F9108952F923A
:100FE0003F924F925F926F927F928F929F92AF92B9
:100FF000BF92CF92DF92EF92FF920F931F93CF9306
:10100000DF93CDB7DEB72B970FB6F894DEBF0FBED8
:10101000CDBF6C017B018A01FC011782168283819E
:1010200081FFBFC1CE0101963C01F6019381F7011A
:1010300093FD859193FF81917F01882309F4ADC1D0
:10104000853239F493FD859193FF81917F0185323B
:1010500021F4B60190E0D6D1E8CF912C212C312C8F
:10106000FFE1F315D8F08B3279F038F4803279F063
:101070008332A1F4232D20611DC08D3261F08033B5
:1010800069F4232D216016C0832D8260382EE32D54
:10109000E4603E2E2AC0F32DF8601DC037FC2DC041
:1010A00020ED280F2A3040F08E32B9F436FC75C19D
:1010B000232D2064322E19C036FE06C08AE0989E89
:1010C000200D1124922E11C0EAE02E9E200D112435
:1010D000222EF32DF0623F2E08C08C3621F4832D92
:1010E0008068382E02C0883641F4F70193FD85915F
:1010F00093FF81917F018111B3CF982F9F7D9554EC
:10110000933028F40C5F1F4F9FE399830DC0833603
:1011100031F0833771F0833509F055C020C0F801F4
:10112000808189830E5F1F4F88248394912C530103
:1011300012C02801F2E04F0E511CF801A080B180CE
:1011400036FE03C0692D70E002C06FEF7FEFC5016E
:101150004ED14C018201F32DFF773F2E15C028019F
:1011600022E0420E511CF801A080B18036FE03C07F
:10117000692D70E002C06FEF7FEFC5012DD14C01EA
:10118000F32DF0683F2E820133FC19C0822D90E0D0
:1011900088169906A0F4B60180E290E033D12A9433
:1011A000F5CFF50137FC859137FE81915F01B601DE
:1011B00090E028D121102A9421E0821A910881140C
:1011C000910479F7E1C0843611F0893639F5F801D8
:1011D00037FE07C060817181828193810C5F1F4F50
:1011E00008C060817181072E000C880B990B0E5F7F
:1011F0001F4FF32DFF763F2E97FF09C090958095E6
:10120000709561957F4F8F4F9F4FF0683F2E2AE07A
:1012100030E0A30133D1882E861844C0853731F4DD
:10122000232D2F7EB22E2AE030E025C0932D997F0A
:10123000B92E8F36C1F018F4883579F0AEC08037FA
:1012400019F0883721F0A9C0E92FE061BE2EB4FE65
:101250000DC0FB2DF460BF2E09C034FE0AC0292F3B
:101260002660B22E06C028E030E005C020E130E064
:1012700002C020E132E0F801B7FE07C06081718151
:10128000828193810C5F1F4F06C06081718180E075
:1012900090E00E5F1F4FA301F1D0882E8618FB2D22
:1012A000FF773F2E36FE0DC0232D2E7FA22E8914F0
:1012B00058F434FE0BC032FC09C0832D8E7EA82E5C
:1012C00005C0B82CA32C03C0B82C01C0B92CA4FEB7
:1012D0000FC0FE01E80DF11D8081803321F49A2DAD
:1012E000997EA92E09C0A2FE06C0B394B39404C08F
:1012F0008A2D867809F0B394A3FC10C0A0FE06C026
:10130000B21480F4280C922C9B180DC0B21458F41F
:10131000B60180E290E076D0B394F8CFB21418F41E
:101320002B1802C0982C212CA4FE0FC0B60180E31C
:1013300090E068D0A2FE16C0A1FC03C088E790E050
:1013400002C088E590E0B6010CC08A2D867851F085
:10135000A1FE02C08BE201C080E2A7FC8DE2B601D3
:1013600090E050D0891430F4B60180E390E04AD088
:101370009A94F8CF8A94F301E80DF11D8081B601AB
:1013800090E040D08110F6CF222009F44ECEB60175
:1013900080E290E037D02A94F7CFF60186819781DA
:1013A00002C08FEF9FEF2B960FB6F894DEBF0FBEF3
:1013B000CDBFDF91CF911F910F91FF90EF90DF9004
:1013C000CF90BF90AF909F908F907F906F905F90E5
:1013D0004F903F902F900895FC0105906150704010
:1013E0000110D8F7809590958E0F9F1F0895FC01EE
:1013F0006150704001900110D8F7809590958E0F44
:101400009F1F08950F931F93CF93DF93FB012381B9
:1014100021FD03C08FEF9FEF2CC022FF16C0468135
:101420005781248135814217530744F4A081B1814B
:101430009D012F5F3F4F318320838C93268137811D
:101440002F5F3F4F3783268314C08B01EC01FB01D4
:101450000084F185E02D0995892BE1F6D8011696D7
:101460008D919C911797019617969C938E93169742
:10147000CE01DF91CF911F910F910895FA01AA2714
:10148000283051F1203181F1E8946F936E7F6E5FC7
:101490007F4F8F4F9F4FAF4FB1E03ED0B4E03CD075
:1014A000670F781F891F9A1FA11D680F791F8A1F58
:1014B000911DA11D6A0F711D811D911DA11D20D0BF
:1014C00009F468943F912AE0269F11243019305D79
:1014D0003193DEF6CF010895462F4770405D41936A
:1014E000B3E00FD0C9F7F6CF462F4F70405D4A33B7
:1014F00018F0495D31FD4052419302D0A9F7EACF7F
:10150000B4E0A6959795879577956795BA95C9F7AD
:1015100000976105710508959B01AC010A2E0694A0
:101520005795479537952795BA95C9F7620F731F59
:0C153000841F951FA01D0895F894FFCFA4
:10153C0058580A0961736369693A20000A0964659D
:10154C00633A20000A096865783A20005B434845F5
:10155C00434B2055494428434830295D3A20005BD1
:10156C00434845434B2055494428434831295D3A6B
:10157C0020000A5B6368616E6E656C2030000A5B4C
:10158C006368616E6E656C20310020446574656320
:10159C007465642056657273696F6E5D3A204D49AF
:1015AC004641524520524335323276320A002044AD
:1015BC00657465637465642056657273696F6E5DDE
:1015CC003A204D494641524520524335323276310C
:1015DC000A00204E6F2072656164657220666F751B
:1015EC006E645D0A0025642C00307825782C000090
:00000001FF
